{
  "transactions": [
    {
      "hash": "0x87c3eb52fc3c1fe1acc373493764176afac05ebeb8a207d5afdf027312cd605b",
      "transactionType": "CALL",
      "contractName": "TestGHOPassport",
      "contractAddress": "0x17206705E75249B2Cb885423937e88Fc8f068338",
      "function": "mint(address,uint256)",
      "arguments": [
        "0xAE5c72E8dE74AdB50942ecE179e0dE27A8Cab61F",
        "2"
      ],
      "transaction": {
        "type": "0x02",
        "from": "0x1cb30cb181d7854f91c2410bd037e6f42130e860",
        "to": "0x17206705e75249b2cb885423937e88fc8f068338",
        "gas": "0x17307",
        "value": "0x0",
        "data": "0x40c10f19000000000000000000000000ae5c72e8de74adb50942ece179e0de27a8cab61f0000000000000000000000000000000000000000000000000000000000000002",
        "nonce": "0x225",
        "accessList": []
      },
      "additionalContracts": [],
      "isFixedGasLimit": false
    }
  ],
  "receipts": [],
  "libraries": [],
  "pending": [
    "0x87c3eb52fc3c1fe1acc373493764176afac05ebeb8a207d5afdf027312cd605b"
  ],
  "returns": {},
  "timestamp": 1705767164,
  "chain": 11155111,
  "multi": false,
  "commit": "f4d2e32"
}