{
  "transactions": [
    {
      "hash": "0xfeccc4b88d6f11b0ddfe638b47b27a4f2dbc7f512d645b63e99a10ba43dd8b1c",
      "transactionType": "CALL",
      "contractName": "MainVault",
      "contractAddress": "0xA03A35C0117aED845D550CF991c32571510E198a",
      "function": "setMainPayment(address)",
      "arguments": [
        "0x8107b2e64C34ab015Ac86aB724553feEF75dA25D"
      ],
      "transaction": {
        "type": "0x02",
        "from": "0x1cb30cb181d7854f91c2410bd037e6f42130e860",
        "to": "0xa03a35c0117aed845d550cf991c32571510e198a",
        "gas": "0xfed0",
        "value": "0x0",
        "data": "0x3674e6d50000000000000000000000008107b2e64c34ab015ac86ab724553feef75da25d",
        "nonce": "0x2b2",
        "accessList": []
      },
      "additionalContracts": [],
      "isFixedGasLimit": false
    }
  ],
  "receipts": [
    {
      "transactionHash": "0xfeccc4b88d6f11b0ddfe638b47b27a4f2dbc7f512d645b63e99a10ba43dd8b1c",
      "transactionIndex": "0x16",
      "blockHash": "0xbe5ac9f71ceb6d2bcf3761ebfbf2b9965fac63c24046f253e19803c5bbe89925",
      "blockNumber": "0x4e402a",
      "from": "0x1Cb30cb181D7854F91c2410BD037E6F42130e860",
      "to": "0xA03A35C0117aED845D550CF991c32571510E198a",
      "cumulativeGasUsed": "0x2083c6",
      "gasUsed": "0xb87c",
      "contractAddress": null,
      "logs": [
        {
          "address": "0xA03A35C0117aED845D550CF991c32571510E198a",
          "topics": [
            "0x4c070d2bd28acbebea1baca2a0a570d95bcbc30dee9a07c8218065ad38a400fb"
          ],
          "data": "0x0000000000000000000000008107b2e64c34ab015ac86ab724553feef75da25d",
          "blockHash": "0xbe5ac9f71ceb6d2bcf3761ebfbf2b9965fac63c24046f253e19803c5bbe89925",
          "blockNumber": "0x4e402a",
          "transactionHash": "0xfeccc4b88d6f11b0ddfe638b47b27a4f2dbc7f512d645b63e99a10ba43dd8b1c",
          "transactionIndex": "0x16",
          "logIndex": "0x29",
          "removed": false
        }
      ],
      "status": "0x1",
      "logsBloom": "0x00000000000000000000000000000000000000000000000000000000040000000000000000000000000000000000000000000000000004000000000000000000000000000000000000000000000000000000000000000000000100000000000000000000000000000000000000000000000000000000000000000000000000000000000000000000000000000000000000000400002000000000000000000000000000000000000000000000000000000000000000000000000000000000000000000000000000000000000000000000000000000000000000000000000000000004000000000000000000000000000000000000000000000000000000000000",
      "type": "0x2",
      "effectiveGasPrice": "0x199cf53e0"
    }
  ],
  "libraries": [],
  "pending": [],
  "returns": {},
  "timestamp": 1705861646,
  "chain": 11155111,
  "multi": false,
  "commit": "581e935"
}