{
  "transactions": [
    {
      "hash": "0xba6b716091774463feb8d224317ab85086021cde8667d6ff341b21473eaf5df8",
      "transactionType": "CALL",
      "contractName": "MainVault",
      "contractAddress": "0xEcD5f72e814d8A90dd84313755A4050A2BE4c995",
      "function": "setMainPayment(address)",
      "arguments": [
        "0xECa9185Ad2663c635548a177E46801462088cCbc"
      ],
      "transaction": {
        "type": "0x02",
        "from": "0x1cb30cb181d7854f91c2410bd037e6f42130e860",
        "to": "0xecd5f72e814d8a90dd84313755a4050a2be4c995",
        "gas": "0xfed0",
        "value": "0x0",
        "data": "0x3674e6d5000000000000000000000000eca9185ad2663c635548a177e46801462088ccbc",
        "nonce": "0x277",
        "accessList": []
      },
      "additionalContracts": [],
      "isFixedGasLimit": false
    }
  ],
  "receipts": [
    {
      "transactionHash": "0xba6b716091774463feb8d224317ab85086021cde8667d6ff341b21473eaf5df8",
      "transactionIndex": "0x9",
      "blockHash": "0x9e3107118544ba5248a63b2dd23e17c9d0379c8b5dfd6f543276a7cf283b4140",
      "blockNumber": "0x4e3926",
      "from": "0x1Cb30cb181D7854F91c2410BD037E6F42130e860",
      "to": "0xEcD5f72e814d8A90dd84313755A4050A2BE4c995",
      "cumulativeGasUsed": "0x11cdd5",
      "gasUsed": "0xb87c",
      "contractAddress": null,
      "logs": [
        {
          "address": "0xEcD5f72e814d8A90dd84313755A4050A2BE4c995",
          "topics": [
            "0x4c070d2bd28acbebea1baca2a0a570d95bcbc30dee9a07c8218065ad38a400fb"
          ],
          "data": "0x000000000000000000000000eca9185ad2663c635548a177e46801462088ccbc",
          "blockHash": "0x9e3107118544ba5248a63b2dd23e17c9d0379c8b5dfd6f543276a7cf283b4140",
          "blockNumber": "0x4e3926",
          "transactionHash": "0xba6b716091774463feb8d224317ab85086021cde8667d6ff341b21473eaf5df8",
          "transactionIndex": "0x9",
          "logIndex": "0x18",
          "removed": false
        }
      ],
      "status": "0x1",
      "logsBloom": "0x00000000020000000000000000000000000000000000000000000000040000000000000000000000000000000000000000000000020004000000000000000000000000000000000000000000000000000000000000000000000000000000000000000000000000000000000000000000000000000000000000000000000000000000000000000000000000000000000000000000002000000000000000000000000000000000000000000008000000000000000000000000000000000000000000000000000000000000000000000000000000000000000000000000000000000000000000000000000000000000000000000000000000000000000000000000",
      "type": "0x2",
      "effectiveGasPrice": "0xb9ad48f8"
    }
  ],
  "libraries": [],
  "pending": [],
  "returns": {},
  "timestamp": 1705837059,
  "chain": 11155111,
  "multi": false,
  "commit": "0fd21c1"
}