{
  "transactions": [
    {
      "hash": "0x33e917b4ddbfc57bf377f08709fc29e61d0bf0172ff9eb65e2147628b2f4eccd",
      "transactionType": "CALL",
      "contractName": "RPool",
      "contractAddress": "0x7d5fAA2F882fE15819685E3d0FAB95Cb8EaF24e9",
      "function": "setMainVault(address)",
      "arguments": [
        "0x0Daf0Dd7902EB415f9624c102Ef6dA7a20D15e10"
      ],
      "transaction": {
        "type": "0x02",
        "from": "0x1cb30cb181d7854f91c2410bd037e6f42130e860",
        "to": "0x7d5faa2f882fe15819685e3d0fab95cb8eaf24e9",
        "gas": "0xf945",
        "value": "0x0",
        "data": "0xc842d3780000000000000000000000000daf0dd7902eb415f9624c102ef6da7a20d15e10",
        "nonce": "0x24e",
        "accessList": []
      },
      "additionalContracts": [],
      "isFixedGasLimit": false
    }
  ],
  "receipts": [
    {
      "transactionHash": "0x33e917b4ddbfc57bf377f08709fc29e61d0bf0172ff9eb65e2147628b2f4eccd",
      "transactionIndex": "0x35",
      "blockHash": "0x5cc96fe38800d289de4e3710eebc2768c08524475f0da7e002e672d9fb0ed020",
      "blockNumber": "0x4e31ed",
      "from": "0x1Cb30cb181D7854F91c2410BD037E6F42130e860",
      "to": "0x7d5fAA2F882fE15819685E3d0FAB95Cb8EaF24e9",
      "cumulativeGasUsed": "0x253fca",
      "gasUsed": "0xb478",
      "contractAddress": null,
      "logs": [],
      "status": "0x1",
      "logsBloom": "0x00000000000000000000000000000000000000000000000000000000000000000000000000000000000000000000000000000000000000000000000000000000000000000000000000000000000000000000000000000000000000000000000000000000000000000000000000000000000000000000000000000000000000000000000000000000000000000000000000000000000000000000000000000000000000000000000000000000000000000000000000000000000000000000000000000000000000000000000000000000000000000000000000000000000000000000000000000000000000000000000000000000000000000000000000000000",
      "type": "0x2",
      "effectiveGasPrice": "0xbbbf65ca"
    }
  ],
  "libraries": [],
  "pending": [],
  "returns": {},
  "timestamp": 1705811864,
  "chain": 11155111,
  "multi": false,
  "commit": "b80610e"
}