{
  "transactions": [
    {
      "hash": "0xd0cfd400d4846d20e26434f4223de70f21929953adef5298539f0258dd7ea45b",
      "transactionType": "CALL",
      "contractName": "MainVault",
      "contractAddress": "0x4DaB3934373d7f4f0CBC1bA597b5Dc8Cf5d6A2D3",
      "function": "setMainPayment(address)",
      "arguments": [
        "0x8D910C25AE43620FDDA5CFc54c0FD07b4601d137"
      ],
      "transaction": {
        "type": "0x02",
        "from": "0x1cb30cb181d7854f91c2410bd037e6f42130e860",
        "to": "0x4dab3934373d7f4f0cbc1ba597b5dc8cf5d6a2d3",
        "gas": "0xfed0",
        "value": "0x0",
        "data": "0x3674e6d50000000000000000000000008d910c25ae43620fdda5cfc54c0fd07b4601d137",
        "nonce": "0x25b",
        "accessList": []
      },
      "additionalContracts": [],
      "isFixedGasLimit": false
    }
  ],
  "receipts": [
    {
      "transactionHash": "0xd0cfd400d4846d20e26434f4223de70f21929953adef5298539f0258dd7ea45b",
      "transactionIndex": "0x11",
      "blockHash": "0x93050f94d6a70b165dbf186da351ef59a4fefa0d5652a65a4303fa1b934f9f38",
      "blockNumber": "0x4e329c",
      "from": "0x1Cb30cb181D7854F91c2410BD037E6F42130e860",
      "to": "0x4DaB3934373d7f4f0CBC1bA597b5Dc8Cf5d6A2D3",
      "cumulativeGasUsed": "0x93f6f",
      "gasUsed": "0xb87c",
      "contractAddress": null,
      "logs": [
        {
          "address": "0x4DaB3934373d7f4f0CBC1bA597b5Dc8Cf5d6A2D3",
          "topics": [
            "0x4c070d2bd28acbebea1baca2a0a570d95bcbc30dee9a07c8218065ad38a400fb"
          ],
          "data": "0x0000000000000000000000008d910c25ae43620fdda5cfc54c0fd07b4601d137",
          "blockHash": "0x93050f94d6a70b165dbf186da351ef59a4fefa0d5652a65a4303fa1b934f9f38",
          "blockNumber": "0x4e329c",
          "transactionHash": "0xd0cfd400d4846d20e26434f4223de70f21929953adef5298539f0258dd7ea45b",
          "transactionIndex": "0x11",
          "logIndex": "0x6",
          "removed": false
        }
      ],
      "status": "0x1",
      "logsBloom": "0x00000000000000000000000000000000000000000000000000000000040000000000000000000000000000000000000000000000000004000000000000000000000000000000000000000000000000000000000000000000000000000000000000000000000000000000000000000000000000000000000000000000000000000000000000000000000000000000000000000000002000000000000000000000000000000000000000000000000000000000000000000000000008000000000000000400000000000000000000000000000000000000000000000000000000000000000000000000000000000000000000000000000000000000000000000100",
      "type": "0x2",
      "effectiveGasPrice": "0xba0b4fa8"
    }
  ],
  "libraries": [],
  "pending": [],
  "returns": {},
  "timestamp": 1705814209,
  "chain": 11155111,
  "multi": false,
  "commit": "c8c3d9a"
}