{
  "transactions": [
    {
      "hash": "0xba6b716091774463feb8d224317ab85086021cde8667d6ff341b21473eaf5df8",
      "transactionType": "CALL",
      "contractName": "MainVault",
      "contractAddress": "0xEcD5f72e814d8A90dd84313755A4050A2BE4c995",
      "function": "setMainPayment(address)",
      "arguments": [
        "0xECa9185Ad2663c635548a177E46801462088cCbc"
      ],
      "transaction": {
        "type": "0x02",
        "from": "0x1cb30cb181d7854f91c2410bd037e6f42130e860",
        "to": "0xecd5f72e814d8a90dd84313755a4050a2be4c995",
        "gas": "0xfed0",
        "value": "0x0",
        "data": "0x3674e6d5000000000000000000000000eca9185ad2663c635548a177e46801462088ccbc",
        "nonce": "0x277",
        "accessList": []
      },
      "additionalContracts": [],
      "isFixedGasLimit": false
    }
  ],
  "receipts": [],
  "libraries": [],
  "pending": [
    "0xba6b716091774463feb8d224317ab85086021cde8667d6ff341b21473eaf5df8"
  ],
  "returns": {},
  "timestamp": 1705837045,
  "chain": 11155111,
  "multi": false,
  "commit": "0fd21c1"
}