{
  "transactions": [
    {
      "hash": "0x0424710be828be3bbedf30501fd7687cbf814a778928149aa6f4ef13dfd9cd22",
      "transactionType": "CALL",
      "contractName": "TestGHO",
      "contractAddress": "0xBdD9c513Be2514F83B72761503F0be2134ec6A1a",
      "function": "mint(address,uint256)",
      "arguments": [
        "0xfBcEC0A78C5155518AF0982d31F2c69543de6b35",
        "10000000000000000000000"
      ],
      "transaction": {
        "type": "0x02",
        "from": "0x1cb30cb181d7854f91c2410bd037e6f42130e860",
        "to": "0xbdd9c513be2514f83b72761503f0be2134ec6a1a",
        "gas": "0x113fd",
        "value": "0x0",
        "data": "0x40c10f19000000000000000000000000fbcec0a78c5155518af0982d31f2c69543de6b3500000000000000000000000000000000000000000000021e19e0c9bab2400000",
        "nonce": "0x292",
        "accessList": []
      },
      "additionalContracts": [],
      "isFixedGasLimit": false
    }
  ],
  "receipts": [
    {
      "transactionHash": "0x0424710be828be3bbedf30501fd7687cbf814a778928149aa6f4ef13dfd9cd22",
      "transactionIndex": "0x1a",
      "blockHash": "0xd82d99a4f88f81a35c92ae91526422e9a96620580e7c0a31aa937091e911b7b4",
      "blockNumber": "0x4e3f3b",
      "from": "0x1Cb30cb181D7854F91c2410BD037E6F42130e860",
      "to": "0xBdD9c513Be2514F83B72761503F0be2134ec6A1a",
      "cumulativeGasUsed": "0x3683e3",
      "gasUsed": "0xc7d0",
      "contractAddress": null,
      "logs": [
        {
          "address": "0xBdD9c513Be2514F83B72761503F0be2134ec6A1a",
          "topics": [
            "0xddf252ad1be2c89b69c2b068fc378daa952ba7f163c4a11628f55a4df523b3ef",
            "0x0000000000000000000000000000000000000000000000000000000000000000",
            "0x000000000000000000000000fbcec0a78c5155518af0982d31f2c69543de6b35"
          ],
          "data": "0x00000000000000000000000000000000000000000000021e19e0c9bab2400000",
          "blockHash": "0xd82d99a4f88f81a35c92ae91526422e9a96620580e7c0a31aa937091e911b7b4",
          "blockNumber": "0x4e3f3b",
          "transactionHash": "0x0424710be828be3bbedf30501fd7687cbf814a778928149aa6f4ef13dfd9cd22",
          "transactionIndex": "0x1a",
          "logIndex": "0x35",
          "removed": false
        }
      ],
      "status": "0x1",
      "logsBloom": "0x00000000000000000000000000000000000000000000000000000000000000000000000000000000000000000000000004000000000000000000000001000000000000000000000000000008000000000000000000000020000000000000000000000000020000000000000000000800000000000000000000000010000000000000000000008000000000000000000000000000000000000000000000000000000000000001000000000000000000000000000000000000000000000000000000000002000000000000000000000000000000000000000000000000010020000000000000000000000000000000000000000000000000000000000000000000",
      "type": "0x2",
      "effectiveGasPrice": "0x2166cc85e"
    }
  ],
  "libraries": [],
  "pending": [],
  "returns": {},
  "timestamp": 1705858326,
  "chain": 11155111,
  "multi": false,
  "commit": "b7b0b1c"
}