{
  "transactions": [
    {
      "hash": "0xabcb64c86884eb51e67086e07db28af7558f5e9c7a4c16bd8d4eb46e09eb0cdb",
      "transactionType": "CALL",
      "contractName": "TestGHO",
      "contractAddress": "0xBdD9c513Be2514F83B72761503F0be2134ec6A1a",
      "function": "approve(address,uint256):(bool)",
      "arguments": [
        "0x4DaB3934373d7f4f0CBC1bA597b5Dc8Cf5d6A2D3",
        "10000000000000000000000"
      ],
      "transaction": {
        "type": "0x02",
        "from": "0x1cb30cb181d7854f91c2410bd037e6f42130e860",
        "to": "0xbdd9c513be2514f83b72761503f0be2134ec6a1a",
        "gas": "0x107d0",
        "value": "0x0",
        "data": "0x095ea7b30000000000000000000000004dab3934373d7f4f0cbc1ba597b5dc8cf5d6a2d300000000000000000000000000000000000000000000021e19e0c9bab2400000",
        "nonce": "0x25d",
        "accessList": []
      },
      "additionalContracts": [],
      "isFixedGasLimit": false
    },
    {
      "hash": "0x08dc1cbbbb1005d8b74e17d6ae7e5c92f6ff0b8166c82af86e7f4fed37f28fbe",
      "transactionType": "CALL",
      "contractName": "MainVault",
      "contractAddress": "0x4DaB3934373d7f4f0CBC1bA597b5Dc8Cf5d6A2D3",
      "function": "depositGHO(uint256)",
      "arguments": [
        "10000000000000000000000"
      ],
      "transaction": {
        "type": "0x02",
        "from": "0x1cb30cb181d7854f91c2410bd037e6f42130e860",
        "to": "0x4dab3934373d7f4f0cbc1ba597b5dc8cf5d6a2d3",
        "gas": "0x23231",
        "value": "0x0",
        "data": "0x7709b6ab00000000000000000000000000000000000000000000021e19e0c9bab2400000",
        "nonce": "0x25e",
        "accessList": []
      },
      "additionalContracts": [],
      "isFixedGasLimit": false
    }
  ],
  "receipts": [
    {
      "transactionHash": "0xabcb64c86884eb51e67086e07db28af7558f5e9c7a4c16bd8d4eb46e09eb0cdb",
      "transactionIndex": "0x10",
      "blockHash": "0x61bd743cac686d8e3b9dd971ce6b5e6bf84ac59c074b999304788e76c8cac932",
      "blockNumber": "0x4e32a0",
      "from": "0x1Cb30cb181D7854F91c2410BD037E6F42130e860",
      "to": "0xBdD9c513Be2514F83B72761503F0be2134ec6A1a",
      "cumulativeGasUsed": "0x14eccc",
      "gasUsed": "0xb463",
      "contractAddress": null,
      "logs": [
        {
          "address": "0xBdD9c513Be2514F83B72761503F0be2134ec6A1a",
          "topics": [
            "0x8c5be1e5ebec7d5bd14f71427d1e84f3dd0314c0f7b2291e5b200ac8c7c3b925",
            "0x0000000000000000000000001cb30cb181d7854f91c2410bd037e6f42130e860",
            "0x0000000000000000000000004dab3934373d7f4f0cbc1ba597b5dc8cf5d6a2d3"
          ],
          "data": "0x00000000000000000000000000000000000000000000021e19e0c9bab2400000",
          "blockHash": "0x61bd743cac686d8e3b9dd971ce6b5e6bf84ac59c074b999304788e76c8cac932",
          "blockNumber": "0x4e32a0",
          "transactionHash": "0xabcb64c86884eb51e67086e07db28af7558f5e9c7a4c16bd8d4eb46e09eb0cdb",
          "transactionIndex": "0x10",
          "logIndex": "0x12",
          "removed": false
        }
      ],
      "status": "0x1",
      "logsBloom": "0x22002000000000000000000000000000000000000000000000000000000000000000000000000000000000000000000000000000000000000000000001200000000000000000000000000000000000000200000000000020000000000000000000000000000000000000000000080000000000000000000000000000000000000000000000000000000000000000000000000000000000000000000000000000020000000000000000000000000000000000000000000000000000000000000000000000000000000000000000000000000000000004000000000000010000000010000000000000000000000000000000000000000000000000000000000000",
      "type": "0x2",
      "effectiveGasPrice": "0xbaeef12b"
    },
    {
      "transactionHash": "0x08dc1cbbbb1005d8b74e17d6ae7e5c92f6ff0b8166c82af86e7f4fed37f28fbe",
      "transactionIndex": "0x11",
      "blockHash": "0x61bd743cac686d8e3b9dd971ce6b5e6bf84ac59c074b999304788e76c8cac932",
      "blockNumber": "0x4e32a0",
      "from": "0x1Cb30cb181D7854F91c2410BD037E6F42130e860",
      "to": "0x4DaB3934373d7f4f0CBC1bA597b5Dc8Cf5d6A2D3",
      "cumulativeGasUsed": "0x1683d1",
      "gasUsed": "0x19705",
      "contractAddress": null,
      "logs": [
        {
          "address": "0xBdD9c513Be2514F83B72761503F0be2134ec6A1a",
          "topics": [
            "0xddf252ad1be2c89b69c2b068fc378daa952ba7f163c4a11628f55a4df523b3ef",
            "0x0000000000000000000000001cb30cb181d7854f91c2410bd037e6f42130e860",
            "0x0000000000000000000000004dab3934373d7f4f0cbc1ba597b5dc8cf5d6a2d3"
          ],
          "data": "0x00000000000000000000000000000000000000000000021e19e0c9bab2400000",
          "blockHash": "0x61bd743cac686d8e3b9dd971ce6b5e6bf84ac59c074b999304788e76c8cac932",
          "blockNumber": "0x4e32a0",
          "transactionHash": "0x08dc1cbbbb1005d8b74e17d6ae7e5c92f6ff0b8166c82af86e7f4fed37f28fbe",
          "transactionIndex": "0x11",
          "logIndex": "0x13",
          "removed": false
        },
        {
          "address": "0x4DaB3934373d7f4f0CBC1bA597b5Dc8Cf5d6A2D3",
          "topics": [
            "0xddf252ad1be2c89b69c2b068fc378daa952ba7f163c4a11628f55a4df523b3ef",
            "0x0000000000000000000000000000000000000000000000000000000000000000",
            "0x0000000000000000000000008d910c25ae43620fdda5cfc54c0fd07b4601d137"
          ],
          "data": "0x00000000000000000000000000000000000000000000021e19e0c9bab2400000",
          "blockHash": "0x61bd743cac686d8e3b9dd971ce6b5e6bf84ac59c074b999304788e76c8cac932",
          "blockNumber": "0x4e32a0",
          "transactionHash": "0x08dc1cbbbb1005d8b74e17d6ae7e5c92f6ff0b8166c82af86e7f4fed37f28fbe",
          "transactionIndex": "0x11",
          "logIndex": "0x14",
          "removed": false
        },
        {
          "address": "0x4DaB3934373d7f4f0CBC1bA597b5Dc8Cf5d6A2D3",
          "topics": [
            "0xdcbc1c05240f31ff3ad067ef1ee35ce4997762752e3a095284754544f4c709d7",
            "0x0000000000000000000000001cb30cb181d7854f91c2410bd037e6f42130e860",
            "0x0000000000000000000000008d910c25ae43620fdda5cfc54c0fd07b4601d137"
          ],
          "data": "0x00000000000000000000000000000000000000000000021e19e0c9bab240000000000000000000000000000000000000000000000000021e19e0c9bab2400000",
          "blockHash": "0x61bd743cac686d8e3b9dd971ce6b5e6bf84ac59c074b999304788e76c8cac932",
          "blockNumber": "0x4e32a0",
          "transactionHash": "0x08dc1cbbbb1005d8b74e17d6ae7e5c92f6ff0b8166c82af86e7f4fed37f28fbe",
          "transactionIndex": "0x11",
          "logIndex": "0x15",
          "removed": false
        },
        {
          "address": "0x4DaB3934373d7f4f0CBC1bA597b5Dc8Cf5d6A2D3",
          "topics": [
            "0x05481d73db532e5e33460a49c151606cfe362daee86a1cab011fda979f1a9fe5"
          ],
          "data": "0x00000000000000000000000000000000000000000000021e19e0c9bab2400000",
          "blockHash": "0x61bd743cac686d8e3b9dd971ce6b5e6bf84ac59c074b999304788e76c8cac932",
          "blockNumber": "0x4e32a0",
          "transactionHash": "0x08dc1cbbbb1005d8b74e17d6ae7e5c92f6ff0b8166c82af86e7f4fed37f28fbe",
          "transactionIndex": "0x11",
          "logIndex": "0x16",
          "removed": false
        }
      ],
      "status": "0x1",
      "logsBloom": "0x2200200000000000000000000000000000000000004000000000000000000000000000000000000000000000000000000000000000000000000000000100000000000040000000000000000800000000020000000000006000000000000000000000000002000000000000000008080000000000000400000000001000000000000000000000000000000000000000000000000000000000000000000000000000000000000000000000000000000000000000000000000000000800000000020000040200000010000000000000000800000000000c000000000000010020000000000000000000000000000000000000000000000000004000000000000100",
      "type": "0x2",
      "effectiveGasPrice": "0xbaeef12b"
    }
  ],
  "libraries": [],
  "pending": [],
  "returns": {},
  "timestamp": 1705814276,
  "chain": 11155111,
  "multi": false,
  "commit": "c8c3d9a"
}