{
  "transactions": [
    {
      "hash": "0xd0cfd400d4846d20e26434f4223de70f21929953adef5298539f0258dd7ea45b",
      "transactionType": "CALL",
      "contractName": "MainVault",
      "contractAddress": "0x4DaB3934373d7f4f0CBC1bA597b5Dc8Cf5d6A2D3",
      "function": "setMainPayment(address)",
      "arguments": [
        "0x8D910C25AE43620FDDA5CFc54c0FD07b4601d137"
      ],
      "transaction": {
        "type": "0x02",
        "from": "0x1cb30cb181d7854f91c2410bd037e6f42130e860",
        "to": "0x4dab3934373d7f4f0cbc1ba597b5dc8cf5d6a2d3",
        "gas": "0xfed0",
        "value": "0x0",
        "data": "0x3674e6d50000000000000000000000008d910c25ae43620fdda5cfc54c0fd07b4601d137",
        "nonce": "0x25b",
        "accessList": []
      },
      "additionalContracts": [],
      "isFixedGasLimit": false
    }
  ],
  "receipts": [],
  "libraries": [],
  "pending": [
    "0xd0cfd400d4846d20e26434f4223de70f21929953adef5298539f0258dd7ea45b"
  ],
  "returns": {},
  "timestamp": 1705814196,
  "chain": 11155111,
  "multi": false,
  "commit": "c8c3d9a"
}