{
  "transactions": [
    {
      "hash": "0x5534f56475fa6395d55dfdddf6757f3387de27abe450f635cb50c1c94da44a44",
      "transactionType": "CALL",
      "contractName": "TestGHO",
      "contractAddress": "0xBdD9c513Be2514F83B72761503F0be2134ec6A1a",
      "function": "approve(address,uint256):(bool)",
      "arguments": [
        "0x44dc28ea5A729c6235D50bbA2a25e92D5D242149",
        "10000000000000000000000"
      ],
      "transaction": {
        "type": "0x02",
        "from": "0x1cb30cb181d7854f91c2410bd037e6f42130e860",
        "to": "0xbdd9c513be2514f83b72761503f0be2134ec6a1a",
        "gas": "0x107d0",
        "value": "0x0",
        "data": "0x095ea7b300000000000000000000000044dc28ea5a729c6235d50bba2a25e92d5d24214900000000000000000000000000000000000000000000021e19e0c9bab2400000",
        "nonce": "0x288",
        "accessList": []
      },
      "additionalContracts": [],
      "isFixedGasLimit": false
    },
    {
      "hash": "0x59a849fa799e506d2a67295622cf0fbadbbda6c1ea83b4a537d2394f80466093",
      "transactionType": "CALL",
      "contractName": "MainVault",
      "contractAddress": "0x44dc28ea5A729c6235D50bbA2a25e92D5D242149",
      "function": "depositGHO(uint256)",
      "arguments": [
        "10000000000000000000000"
      ],
      "transaction": {
        "type": "0x02",
        "from": "0x1cb30cb181d7854f91c2410bd037e6f42130e860",
        "to": "0x44dc28ea5a729c6235d50bba2a25e92d5d242149",
        "gas": "0x23212",
        "value": "0x0",
        "data": "0x7709b6ab00000000000000000000000000000000000000000000021e19e0c9bab2400000",
        "nonce": "0x289",
        "accessList": []
      },
      "additionalContracts": [],
      "isFixedGasLimit": false
    }
  ],
  "receipts": [
    {
      "transactionHash": "0x5534f56475fa6395d55dfdddf6757f3387de27abe450f635cb50c1c94da44a44",
      "transactionIndex": "0x3f",
      "blockHash": "0x5e91a2f5755f9ff7b98bbf6a59ac4c19a266e54d4beb2d11c0a6310aefe7d95c",
      "blockNumber": "0x4e3e3a",
      "from": "0x1Cb30cb181D7854F91c2410BD037E6F42130e860",
      "to": "0xBdD9c513Be2514F83B72761503F0be2134ec6A1a",
      "cumulativeGasUsed": "0x57d8c4",
      "gasUsed": "0xb463",
      "contractAddress": null,
      "logs": [
        {
          "address": "0xBdD9c513Be2514F83B72761503F0be2134ec6A1a",
          "topics": [
            "0x8c5be1e5ebec7d5bd14f71427d1e84f3dd0314c0f7b2291e5b200ac8c7c3b925",
            "0x0000000000000000000000001cb30cb181d7854f91c2410bd037e6f42130e860",
            "0x00000000000000000000000044dc28ea5a729c6235d50bba2a25e92d5d242149"
          ],
          "data": "0x00000000000000000000000000000000000000000000021e19e0c9bab2400000",
          "blockHash": "0x5e91a2f5755f9ff7b98bbf6a59ac4c19a266e54d4beb2d11c0a6310aefe7d95c",
          "blockNumber": "0x4e3e3a",
          "transactionHash": "0x5534f56475fa6395d55dfdddf6757f3387de27abe450f635cb50c1c94da44a44",
          "transactionIndex": "0x3f",
          "logIndex": "0x66",
          "removed": false
        }
      ],
      "status": "0x1",
      "logsBloom": "0x02002000040000000000000000000000000000000000000000000000000000000000000000000000000000000000000000000000000000000000000001200000000000000000000000000000100000000000000000000020000000000000000000000000000000000000000000000000000000000000000000000000000000000000000000000000000000000000000000000000000000000000000000000000020000000000000000000000000000000000000000000000000000000000000000000000000000000000000000000000000000000004000000000000010000000010000000200000000000000000000000000000000000000000000000000000",
      "type": "0x2",
      "effectiveGasPrice": "0x4d6276f8a"
    },
    {
      "transactionHash": "0x59a849fa799e506d2a67295622cf0fbadbbda6c1ea83b4a537d2394f80466093",
      "transactionIndex": "0x40",
      "blockHash": "0x5e91a2f5755f9ff7b98bbf6a59ac4c19a266e54d4beb2d11c0a6310aefe7d95c",
      "blockNumber": "0x4e3e3a",
      "from": "0x1Cb30cb181D7854F91c2410BD037E6F42130e860",
      "to": "0x44dc28ea5A729c6235D50bbA2a25e92D5D242149",
      "cumulativeGasUsed": "0x596fb3",
      "gasUsed": "0x196ef",
      "contractAddress": null,
      "logs": [
        {
          "address": "0xBdD9c513Be2514F83B72761503F0be2134ec6A1a",
          "topics": [
            "0xddf252ad1be2c89b69c2b068fc378daa952ba7f163c4a11628f55a4df523b3ef",
            "0x0000000000000000000000001cb30cb181d7854f91c2410bd037e6f42130e860",
            "0x00000000000000000000000044dc28ea5a729c6235d50bba2a25e92d5d242149"
          ],
          "data": "0x00000000000000000000000000000000000000000000021e19e0c9bab2400000",
          "blockHash": "0x5e91a2f5755f9ff7b98bbf6a59ac4c19a266e54d4beb2d11c0a6310aefe7d95c",
          "blockNumber": "0x4e3e3a",
          "transactionHash": "0x59a849fa799e506d2a67295622cf0fbadbbda6c1ea83b4a537d2394f80466093",
          "transactionIndex": "0x40",
          "logIndex": "0x67",
          "removed": false
        },
        {
          "address": "0x44dc28ea5A729c6235D50bbA2a25e92D5D242149",
          "topics": [
            "0xddf252ad1be2c89b69c2b068fc378daa952ba7f163c4a11628f55a4df523b3ef",
            "0x0000000000000000000000000000000000000000000000000000000000000000",
            "0x000000000000000000000000e2dc1e2716b8e06b9ed0b4498ddafa2260f32bea"
          ],
          "data": "0x00000000000000000000000000000000000000000000021e19e0c9bab2400000",
          "blockHash": "0x5e91a2f5755f9ff7b98bbf6a59ac4c19a266e54d4beb2d11c0a6310aefe7d95c",
          "blockNumber": "0x4e3e3a",
          "transactionHash": "0x59a849fa799e506d2a67295622cf0fbadbbda6c1ea83b4a537d2394f80466093",
          "transactionIndex": "0x40",
          "logIndex": "0x68",
          "removed": false
        },
        {
          "address": "0x44dc28ea5A729c6235D50bbA2a25e92D5D242149",
          "topics": [
            "0xdcbc1c05240f31ff3ad067ef1ee35ce4997762752e3a095284754544f4c709d7",
            "0x0000000000000000000000001cb30cb181d7854f91c2410bd037e6f42130e860",
            "0x000000000000000000000000e2dc1e2716b8e06b9ed0b4498ddafa2260f32bea"
          ],
          "data": "0x00000000000000000000000000000000000000000000021e19e0c9bab240000000000000000000000000000000000000000000000000021e19e0c9bab2400000",
          "blockHash": "0x5e91a2f5755f9ff7b98bbf6a59ac4c19a266e54d4beb2d11c0a6310aefe7d95c",
          "blockNumber": "0x4e3e3a",
          "transactionHash": "0x59a849fa799e506d2a67295622cf0fbadbbda6c1ea83b4a537d2394f80466093",
          "transactionIndex": "0x40",
          "logIndex": "0x69",
          "removed": false
        },
        {
          "address": "0x44dc28ea5A729c6235D50bbA2a25e92D5D242149",
          "topics": [
            "0x05481d73db532e5e33460a49c151606cfe362daee86a1cab011fda979f1a9fe5"
          ],
          "data": "0x00000000000000000000000000000000000000000000021e19e0c9bab2400000",
          "blockHash": "0x5e91a2f5755f9ff7b98bbf6a59ac4c19a266e54d4beb2d11c0a6310aefe7d95c",
          "blockNumber": "0x4e3e3a",
          "transactionHash": "0x59a849fa799e506d2a67295622cf0fbadbbda6c1ea83b4a537d2394f80466093",
          "transactionIndex": "0x40",
          "logIndex": "0x6a",
          "removed": false
        }
      ],
      "status": "0x1",
      "logsBloom": "0x0200200004000000000000000000000000000000004000000000000000000000010000000000000000000000000000000000000000000000000000000900000000000040000000000000000810000000000000000000002000000000000000000000000002000000000000000000080000000000000400000000001000002800000000000000000000000000000000000000000000000000000000000000000000000100000000000000000000000000000000000000000000000000000000020000000200000000000000000000000800000000004c000000000000010020000000000000200000000000000000000000000000000000000000000000000000",
      "type": "0x2",
      "effectiveGasPrice": "0x4d6276f8a"
    }
  ],
  "libraries": [],
  "pending": [],
  "returns": {},
  "timestamp": 1705854915,
  "chain": 11155111,
  "multi": false,
  "commit": "9058322"
}