{
  "transactions": [
    {
      "hash": "0x3fc0e900688ebc014a6110bcd7bcfc9bb54a475ae2c79976fd81ef9f1dd0e813",
      "transactionType": "CALL",
      "contractName": "MainVault",
      "contractAddress": "0x93EBcd57712B37084564259168b3a1d5738ef76b",
      "function": "setMainPayment(address)",
      "arguments": [
        "0x871886faF72978697829D0a988Dd71dB5F8f17D2"
      ],
      "transaction": {
        "type": "0x02",
        "from": "0x1cb30cb181d7854f91c2410bd037e6f42130e860",
        "to": "0x93ebcd57712b37084564259168b3a1d5738ef76b",
        "gas": "0x10e6f",
        "value": "0x0",
        "data": "0x3674e6d5000000000000000000000000871886faf72978697829d0a988dd71db5f8f17d2",
        "nonce": "0x216",
        "accessList": []
      },
      "additionalContracts": [],
      "isFixedGasLimit": false
    }
  ],
  "receipts": [],
  "libraries": [],
  "pending": [
    "0x3fc0e900688ebc014a6110bcd7bcfc9bb54a475ae2c79976fd81ef9f1dd0e813"
  ],
  "returns": {},
  "timestamp": 1705694294,
  "chain": 11155111,
  "multi": false,
  "commit": "41a6034"
}