{
  "transactions": [
    {
      "hash": "0xe87d126854481978031a3eddc9a372badf341dc7190a7c705713f109043f4ccf",
      "transactionType": "CALL",
      "contractName": "TestGHOPassport",
      "contractAddress": "0x17206705E75249B2Cb885423937e88Fc8f068338",
      "function": "mint(address,uint256)",
      "arguments": [
        "0x52dBBB18Bb3BD5bf31e5822ea0499dDA99A5Abe5",
        "3"
      ],
      "transaction": {
        "type": "0x02",
        "from": "0x1cb30cb181d7854f91c2410bd037e6f42130e860",
        "to": "0x17206705e75249b2cb885423937e88fc8f068338",
        "gas": "0x17307",
        "value": "0x0",
        "data": "0x40c10f1900000000000000000000000052dbbb18bb3bd5bf31e5822ea0499dda99a5abe50000000000000000000000000000000000000000000000000000000000000003",
        "nonce": "0x231",
        "accessList": []
      },
      "additionalContracts": [],
      "isFixedGasLimit": false
    }
  ],
  "receipts": [],
  "libraries": [],
  "pending": [
    "0xe87d126854481978031a3eddc9a372badf341dc7190a7c705713f109043f4ccf"
  ],
  "returns": {},
  "timestamp": 1705787407,
  "chain": 11155111,
  "multi": false,
  "commit": "b417de9"
}