{
  "transactions": [
    {
      "hash": "0xc44a0c595db2a52f09a21faaccc2a96933aae2a68219918620d5d85a770d039e",
      "transactionType": "CALL",
      "contractName": "MainVault",
      "contractAddress": "0x5f87AE2b5B978FDF21A5495518967e7F3d89EA23",
      "function": "setUserFee(uint256)",
      "arguments": [
        "2000000000000000"
      ],
      "transaction": {
        "type": "0x02",
        "from": "0x1cb30cb181d7854f91c2410bd037e6f42130e860",
        "to": "0x5f87ae2b5b978fdf21a5495518967e7f3d89ea23",
        "gas": "0xfd01",
        "value": "0x0",
        "data": "0x2050e09400000000000000000000000000000000000000000000000000071afd498d0000",
        "nonce": "0x2aa",
        "accessList": []
      },
      "additionalContracts": [],
      "isFixedGasLimit": false
    },
    {
      "hash": "0x20bad92c6ba83e79d6e651a484cbe52274e831255d8874136a971ca1ef193888",
      "transactionType": "CALL",
      "contractName": "MainVault",
      "contractAddress": "0x5f87AE2b5B978FDF21A5495518967e7F3d89EA23",
      "function": "setPartnerFee(uint256)",
      "arguments": [
        "300000000000000000"
      ],
      "transaction": {
        "type": "0x02",
        "from": "0x1cb30cb181d7854f91c2410bd037e6f42130e860",
        "to": "0x5f87ae2b5b978fdf21a5495518967e7f3d89ea23",
        "gas": "0x10bf6",
        "value": "0x0",
        "data": "0x3741454d0000000000000000000000000000000000000000000000000429d069189e0000",
        "nonce": "0x2ab",
        "accessList": []
      },
      "additionalContracts": [],
      "isFixedGasLimit": false
    }
  ],
  "receipts": [
    {
      "transactionHash": "0xc44a0c595db2a52f09a21faaccc2a96933aae2a68219918620d5d85a770d039e",
      "transactionIndex": "0x1f",
      "blockHash": "0xe898828690346967b1a91908ab949d64f45e36f295e80cc1f06a8cf1b44e0523",
      "blockNumber": "0x4e3fe5",
      "from": "0x1Cb30cb181D7854F91c2410BD037E6F42130e860",
      "to": "0x5f87AE2b5B978FDF21A5495518967e7F3d89EA23",
      "cumulativeGasUsed": "0x1d759d",
      "gasUsed": "0xb72d",
      "contractAddress": null,
      "logs": [
        {
          "address": "0x5f87AE2b5B978FDF21A5495518967e7F3d89EA23",
          "topics": [
            "0xc013b8341ea863bfc4571c06021cd8a7c8eeea033e27675ba23ef3a6478e8343"
          ],
          "data": "0x00000000000000000000000000000000000000000000000000071afd498d0000",
          "blockHash": "0xe898828690346967b1a91908ab949d64f45e36f295e80cc1f06a8cf1b44e0523",
          "blockNumber": "0x4e3fe5",
          "transactionHash": "0xc44a0c595db2a52f09a21faaccc2a96933aae2a68219918620d5d85a770d039e",
          "transactionIndex": "0x1f",
          "logIndex": "0x1f",
          "removed": false
        }
      ],
      "status": "0x1",
      "logsBloom": "0x00000000000000000000800000000000000000000000000000000000000000000000000000000000000000000000000000000000000000000000000000000000000000000000000000000000000000000000000000000000000000000000000000000000000000000000000000000000000000000002000000000000000000000000000000000000000000000000000000000000000000000000000000000000000000000000000000000000000000000000000000000000000000000000000000000000000000000000000000000000000080000000000000000000140000000100000000000000000000000000000000000000000000000000000000000000",
      "type": "0x2",
      "effectiveGasPrice": "0x1357424b6"
    },
    {
      "transactionHash": "0x20bad92c6ba83e79d6e651a484cbe52274e831255d8874136a971ca1ef193888",
      "transactionIndex": "0x20",
      "blockHash": "0xe898828690346967b1a91908ab949d64f45e36f295e80cc1f06a8cf1b44e0523",
      "blockNumber": "0x4e3fe5",
      "from": "0x1Cb30cb181D7854F91c2410BD037E6F42130e860",
      "to": "0x5f87AE2b5B978FDF21A5495518967e7F3d89EA23",
      "cumulativeGasUsed": "0x1e2cd6",
      "gasUsed": "0xb739",
      "contractAddress": null,
      "logs": [
        {
          "address": "0x5f87AE2b5B978FDF21A5495518967e7F3d89EA23",
          "topics": [
            "0x7d2f55757a415932d0da2e15c82996e62500df6be2e6391891673497531e7dac"
          ],
          "data": "0x0000000000000000000000000000000000000000000000000429d069189e0000",
          "blockHash": "0xe898828690346967b1a91908ab949d64f45e36f295e80cc1f06a8cf1b44e0523",
          "blockNumber": "0x4e3fe5",
          "transactionHash": "0x20bad92c6ba83e79d6e651a484cbe52274e831255d8874136a971ca1ef193888",
          "transactionIndex": "0x20",
          "logIndex": "0x20",
          "removed": false
        }
      ],
      "status": "0x1",
      "logsBloom": "0x00000000000000000000000000000000000000000000000000000000000000000000000000000000000000000000000000000000000000000000000000000000000000000000000000000000000000000000000000000000000000000000000000000000000000000000004000000000000000000000000000000000000000000000000000000000000000000000000000000000000000000000000000000000000000000000000000040000000000000000000000800000000000000000000000000000000000000000000000000000000080000000000000000000140000000000000000000000000000000000000000000000000000000000000000000000",
      "type": "0x2",
      "effectiveGasPrice": "0x1357424b6"
    }
  ],
  "libraries": [],
  "pending": [],
  "returns": {},
  "timestamp": 1705860663,
  "chain": 11155111,
  "multi": false,
  "commit": "581e935"
}