{
  "transactions": [
    {
      "hash": "0xb2092cb3d968c2729a8430881feabaec0a76be5815ebae0a53cc97469c85550a",
      "transactionType": "CALL",
      "contractName": "MainVault",
      "contractAddress": "0x4DaB3934373d7f4f0CBC1bA597b5Dc8Cf5d6A2D3",
      "function": "setUserFee(uint256)",
      "arguments": [
        "2000000000000000"
      ],
      "transaction": {
        "type": "0x02",
        "from": "0x1cb30cb181d7854f91c2410bd037e6f42130e860",
        "to": "0x4dab3934373d7f4f0cbc1ba597b5dc8cf5d6a2d3",
        "gas": "0xfd01",
        "value": "0x0",
        "data": "0x2050e09400000000000000000000000000000000000000000000000000071afd498d0000",
        "nonce": "0x25f",
        "accessList": []
      },
      "additionalContracts": [],
      "isFixedGasLimit": false
    },
    {
      "hash": "0xcf219409d964e1c0867240f5d6e19205886815d0c1366791057a6e604ab7e62e",
      "transactionType": "CALL",
      "contractName": "MainVault",
      "contractAddress": "0x4DaB3934373d7f4f0CBC1bA597b5Dc8Cf5d6A2D3",
      "function": "setPartnerFee(uint256)",
      "arguments": [
        "300000000000000000"
      ],
      "transaction": {
        "type": "0x02",
        "from": "0x1cb30cb181d7854f91c2410bd037e6f42130e860",
        "to": "0x4dab3934373d7f4f0cbc1ba597b5dc8cf5d6a2d3",
        "gas": "0x10bf6",
        "value": "0x0",
        "data": "0x3741454d0000000000000000000000000000000000000000000000000429d069189e0000",
        "nonce": "0x260",
        "accessList": []
      },
      "additionalContracts": [],
      "isFixedGasLimit": false
    }
  ],
  "receipts": [
    {
      "transactionHash": "0xb2092cb3d968c2729a8430881feabaec0a76be5815ebae0a53cc97469c85550a",
      "transactionIndex": "0x40",
      "blockHash": "0x6cdb57ea9d52ac1929b301aecc1cb9c34049edd14c26c0de8e2a9137eb14cd10",
      "blockNumber": "0x4e32a2",
      "from": "0x1Cb30cb181D7854F91c2410BD037E6F42130e860",
      "to": "0x4DaB3934373d7f4f0CBC1bA597b5Dc8Cf5d6A2D3",
      "cumulativeGasUsed": "0x2cc2fc",
      "gasUsed": "0xb72d",
      "contractAddress": null,
      "logs": [
        {
          "address": "0x4DaB3934373d7f4f0CBC1bA597b5Dc8Cf5d6A2D3",
          "topics": [
            "0xc013b8341ea863bfc4571c06021cd8a7c8eeea033e27675ba23ef3a6478e8343"
          ],
          "data": "0x00000000000000000000000000000000000000000000000000071afd498d0000",
          "blockHash": "0x6cdb57ea9d52ac1929b301aecc1cb9c34049edd14c26c0de8e2a9137eb14cd10",
          "blockNumber": "0x4e32a2",
          "transactionHash": "0xb2092cb3d968c2729a8430881feabaec0a76be5815ebae0a53cc97469c85550a",
          "transactionIndex": "0x40",
          "logIndex": "0x24",
          "removed": false
        }
      ],
      "status": "0x1",
      "logsBloom": "0x00000000000000000000800000000000000000000000000000000000000000000000000000000000000000000000000000000000000000000000000000000000000000000000000000000000000000000000000000000000000000000000000000000000000000000000000000000000000000000002000000000000000000000000000000000000000000000000000000000000000000000000000000000000000000000000000000000000000000000000000000000000000008000000000000000400000000000000000000000000000000000000000000000000000000000100000000000000000000000000000000000000000000000000000000000100",
      "type": "0x2",
      "effectiveGasPrice": "0xbaaaa2ac"
    },
    {
      "transactionHash": "0xcf219409d964e1c0867240f5d6e19205886815d0c1366791057a6e604ab7e62e",
      "transactionIndex": "0x41",
      "blockHash": "0x6cdb57ea9d52ac1929b301aecc1cb9c34049edd14c26c0de8e2a9137eb14cd10",
      "blockNumber": "0x4e32a2",
      "from": "0x1Cb30cb181D7854F91c2410BD037E6F42130e860",
      "to": "0x4DaB3934373d7f4f0CBC1bA597b5Dc8Cf5d6A2D3",
      "cumulativeGasUsed": "0x2d7a35",
      "gasUsed": "0xb739",
      "contractAddress": null,
      "logs": [
        {
          "address": "0x4DaB3934373d7f4f0CBC1bA597b5Dc8Cf5d6A2D3",
          "topics": [
            "0x7d2f55757a415932d0da2e15c82996e62500df6be2e6391891673497531e7dac"
          ],
          "data": "0x0000000000000000000000000000000000000000000000000429d069189e0000",
          "blockHash": "0x6cdb57ea9d52ac1929b301aecc1cb9c34049edd14c26c0de8e2a9137eb14cd10",
          "blockNumber": "0x4e32a2",
          "transactionHash": "0xcf219409d964e1c0867240f5d6e19205886815d0c1366791057a6e604ab7e62e",
          "transactionIndex": "0x41",
          "logIndex": "0x25",
          "removed": false
        }
      ],
      "status": "0x1",
      "logsBloom": "0x00000000000000000000000000000000000000000000000000000000000000000000000000000000000000000000000000000000000000000000000000000000000000000000000000000000000000000000000000000000000000000000000000000000000000000000004000000000000000000000000000000000000000000000000000000000000000000000000000000000000000000000000000000000000000000000000000040000000000000000000000800000000008000000000000000400000000000000000000000000000000000000000000000000000000000000000000000000000000000000000000000000000000000000000000000100",
      "type": "0x2",
      "effectiveGasPrice": "0xbaaaa2ac"
    }
  ],
  "libraries": [],
  "pending": [],
  "returns": {},
  "timestamp": 1705814310,
  "chain": 11155111,
  "multi": false,
  "commit": "c8c3d9a"
}