{
  "transactions": [
    {
      "hash": "0x3fc0e900688ebc014a6110bcd7bcfc9bb54a475ae2c79976fd81ef9f1dd0e813",
      "transactionType": "CALL",
      "contractName": "MainVault",
      "contractAddress": "0x93EBcd57712B37084564259168b3a1d5738ef76b",
      "function": "setMainPayment(address)",
      "arguments": [
        "0x871886faF72978697829D0a988Dd71dB5F8f17D2"
      ],
      "transaction": {
        "type": "0x02",
        "from": "0x1cb30cb181d7854f91c2410bd037e6f42130e860",
        "to": "0x93ebcd57712b37084564259168b3a1d5738ef76b",
        "gas": "0x10e6f",
        "value": "0x0",
        "data": "0x3674e6d5000000000000000000000000871886faf72978697829d0a988dd71db5f8f17d2",
        "nonce": "0x216",
        "accessList": []
      },
      "additionalContracts": [],
      "isFixedGasLimit": false
    }
  ],
  "receipts": [
    {
      "transactionHash": "0x3fc0e900688ebc014a6110bcd7bcfc9bb54a475ae2c79976fd81ef9f1dd0e813",
      "transactionIndex": "0xc5",
      "blockHash": "0x48651229b728fe267c5d7eeaa6f36cc81c61ff65798d268bdab607d3b85b1474",
      "blockNumber": "0x4e1123",
      "from": "0x1Cb30cb181D7854F91c2410BD037E6F42130e860",
      "to": "0x93EBcd57712B37084564259168b3a1d5738ef76b",
      "cumulativeGasUsed": "0x1b8ec91",
      "gasUsed": "0xb8ea",
      "contractAddress": null,
      "logs": [
        {
          "address": "0x93EBcd57712B37084564259168b3a1d5738ef76b",
          "topics": [
            "0x4c070d2bd28acbebea1baca2a0a570d95bcbc30dee9a07c8218065ad38a400fb"
          ],
          "data": "0x000000000000000000000000871886faf72978697829d0a988dd71db5f8f17d2",
          "blockHash": "0x48651229b728fe267c5d7eeaa6f36cc81c61ff65798d268bdab607d3b85b1474",
          "blockNumber": "0x4e1123",
          "transactionHash": "0x3fc0e900688ebc014a6110bcd7bcfc9bb54a475ae2c79976fd81ef9f1dd0e813",
          "transactionIndex": "0xc5",
          "logIndex": "0x25a",
          "removed": false
        }
      ],
      "status": "0x1",
      "logsBloom": "0x00000000000000000000000000000000000000000000000000000000040000000000000000000000000000000000000000000000000004000000000000000000000000000000000000000000000000000000000002000000000000000000000000000000000000000000000000000000000002000000000000000000000000000000000000000000000000000000000000000000002000000000000000000000000000000000000020000000000000000000000000000000000000000000000000000000000000000000000000000000000000000000000000000000000000000000000000000000000000000000000000000000000000000000000000000000",
      "type": "0x2",
      "effectiveGasPrice": "0xbde2f8293"
    }
  ],
  "libraries": [],
  "pending": [],
  "returns": {},
  "timestamp": 1705694308,
  "chain": 11155111,
  "multi": false,
  "commit": "41a6034"
}