{
  "transactions": [
    {
      "hash": "0xcc9efe8079e89d9d90881ab9d8f0846373c66e1d7ae596d994e9007bcb2e3dda",
      "transactionType": "CALL",
      "contractName": "TestGHO",
      "contractAddress": "0xBdD9c513Be2514F83B72761503F0be2134ec6A1a",
      "function": "mint(address,uint256)",
      "arguments": [
        "0x1Cb30cb181D7854F91c2410BD037E6F42130e860",
        "10000000000000000000000"
      ],
      "transaction": {
        "type": "0x02",
        "from": "0x1cb30cb181d7854f91c2410bd037e6f42130e860",
        "to": "0xbdd9c513be2514f83b72761503f0be2134ec6a1a",
        "gas": "0x113fd",
        "value": "0x0",
        "data": "0x40c10f190000000000000000000000001cb30cb181d7854f91c2410bd037e6f42130e86000000000000000000000000000000000000000000000021e19e0c9bab2400000",
        "nonce": "0x26a",
        "accessList": []
      },
      "additionalContracts": [],
      "isFixedGasLimit": false
    }
  ],
  "receipts": [
    {
      "transactionHash": "0xcc9efe8079e89d9d90881ab9d8f0846373c66e1d7ae596d994e9007bcb2e3dda",
      "transactionIndex": "0x15",
      "blockHash": "0x5a9923a639293f5e76d973b2012297e15f52ea68f63ba990c4c5b74a4ae86859",
      "blockNumber": "0x4e3510",
      "from": "0x1Cb30cb181D7854F91c2410BD037E6F42130e860",
      "to": "0xBdD9c513Be2514F83B72761503F0be2134ec6A1a",
      "cumulativeGasUsed": "0x18cef2",
      "gasUsed": "0xc7d0",
      "contractAddress": null,
      "logs": [
        {
          "address": "0xBdD9c513Be2514F83B72761503F0be2134ec6A1a",
          "topics": [
            "0xddf252ad1be2c89b69c2b068fc378daa952ba7f163c4a11628f55a4df523b3ef",
            "0x0000000000000000000000000000000000000000000000000000000000000000",
            "0x0000000000000000000000001cb30cb181d7854f91c2410bd037e6f42130e860"
          ],
          "data": "0x00000000000000000000000000000000000000000000021e19e0c9bab2400000",
          "blockHash": "0x5a9923a639293f5e76d973b2012297e15f52ea68f63ba990c4c5b74a4ae86859",
          "blockNumber": "0x4e3510",
          "transactionHash": "0xcc9efe8079e89d9d90881ab9d8f0846373c66e1d7ae596d994e9007bcb2e3dda",
          "transactionIndex": "0x15",
          "logIndex": "0x16",
          "removed": false
        }
      ],
      "status": "0x1",
      "logsBloom": "0x02002000000000000000000000000000000000000000000000000000000000000000000000000000000000000000000000000000000000000000000001000000000000000000000000000008000000000000000000000020000000000000000000000000020000000000000000000800000000000000000000000010000000000000000000000000000000000000000000000000000000000000000000000000000000000000000000000000000000000000000000000000000000000000000000000002000000000000000000000000000000000004000000000000010020000000000000000000000000000000000000000000000000000000000000000000",
      "type": "0x2",
      "effectiveGasPrice": "0xb9431cee"
    }
  ],
  "libraries": [],
  "pending": [],
  "returns": {},
  "timestamp": 1705822646,
  "chain": 11155111,
  "multi": false,
  "commit": "30b4b2d"
}