{
  "transactions": [
    {
      "hash": "0xba184240ea07f6f3e7c147410050583c5fecc322993b3b124d59af40fceced06",
      "transactionType": "CALL",
      "contractName": "MainVault",
      "contractAddress": "0xEcD5f72e814d8A90dd84313755A4050A2BE4c995",
      "function": "setUserFee(uint256)",
      "arguments": [
        "2000000000000000"
      ],
      "transaction": {
        "type": "0x02",
        "from": "0x1cb30cb181d7854f91c2410bd037e6f42130e860",
        "to": "0xecd5f72e814d8a90dd84313755a4050a2be4c995",
        "gas": "0xfd01",
        "value": "0x0",
        "data": "0x2050e09400000000000000000000000000000000000000000000000000071afd498d0000",
        "nonce": "0x27b",
        "accessList": []
      },
      "additionalContracts": [],
      "isFixedGasLimit": false
    },
    {
      "hash": "0x660880fe43dab26e522940c4c0665c4daea5335c4e330162fbacd25b3908a400",
      "transactionType": "CALL",
      "contractName": "MainVault",
      "contractAddress": "0xEcD5f72e814d8A90dd84313755A4050A2BE4c995",
      "function": "setPartnerFee(uint256)",
      "arguments": [
        "300000000000000000"
      ],
      "transaction": {
        "type": "0x02",
        "from": "0x1cb30cb181d7854f91c2410bd037e6f42130e860",
        "to": "0xecd5f72e814d8a90dd84313755a4050a2be4c995",
        "gas": "0x10bf6",
        "value": "0x0",
        "data": "0x3741454d0000000000000000000000000000000000000000000000000429d069189e0000",
        "nonce": "0x27c",
        "accessList": []
      },
      "additionalContracts": [],
      "isFixedGasLimit": false
    }
  ],
  "receipts": [
    {
      "transactionHash": "0xba184240ea07f6f3e7c147410050583c5fecc322993b3b124d59af40fceced06",
      "transactionIndex": "0x18",
      "blockHash": "0x4f1e20500ca750ebab824abf4c0bdf2ceeb249d744b873fc9601503f90f5a145",
      "blockNumber": "0x4e392d",
      "from": "0x1Cb30cb181D7854F91c2410BD037E6F42130e860",
      "to": "0xEcD5f72e814d8A90dd84313755A4050A2BE4c995",
      "cumulativeGasUsed": "0x23e307",
      "gasUsed": "0xb72d",
      "contractAddress": null,
      "logs": [
        {
          "address": "0xEcD5f72e814d8A90dd84313755A4050A2BE4c995",
          "topics": [
            "0xc013b8341ea863bfc4571c06021cd8a7c8eeea033e27675ba23ef3a6478e8343"
          ],
          "data": "0x00000000000000000000000000000000000000000000000000071afd498d0000",
          "blockHash": "0x4f1e20500ca750ebab824abf4c0bdf2ceeb249d744b873fc9601503f90f5a145",
          "blockNumber": "0x4e392d",
          "transactionHash": "0xba184240ea07f6f3e7c147410050583c5fecc322993b3b124d59af40fceced06",
          "transactionIndex": "0x18",
          "logIndex": "0x30",
          "removed": false
        }
      ],
      "status": "0x1",
      "logsBloom": "0x00000000020000000000800000000000000000000000000000000000000000000000000000000000000000000000000000000000020000000000000000000000000000000000000000000000000000000000000000000000000000000000000000000000000000000000000000000000000000000002000000000000000000000000000000000000000000000000000000000000000000000000000000000000000000000000000000000008000000000000000000000000000000000000000000000000000000000000000000000000000000000000000000000000000000000100000000000000000000000000000000000000000000000000000000000000",
      "type": "0x2",
      "effectiveGasPrice": "0xba38fc8a"
    },
    {
      "transactionHash": "0x660880fe43dab26e522940c4c0665c4daea5335c4e330162fbacd25b3908a400",
      "transactionIndex": "0x19",
      "blockHash": "0x4f1e20500ca750ebab824abf4c0bdf2ceeb249d744b873fc9601503f90f5a145",
      "blockNumber": "0x4e392d",
      "from": "0x1Cb30cb181D7854F91c2410BD037E6F42130e860",
      "to": "0xEcD5f72e814d8A90dd84313755A4050A2BE4c995",
      "cumulativeGasUsed": "0x249a40",
      "gasUsed": "0xb739",
      "contractAddress": null,
      "logs": [
        {
          "address": "0xEcD5f72e814d8A90dd84313755A4050A2BE4c995",
          "topics": [
            "0x7d2f55757a415932d0da2e15c82996e62500df6be2e6391891673497531e7dac"
          ],
          "data": "0x0000000000000000000000000000000000000000000000000429d069189e0000",
          "blockHash": "0x4f1e20500ca750ebab824abf4c0bdf2ceeb249d744b873fc9601503f90f5a145",
          "blockNumber": "0x4e392d",
          "transactionHash": "0x660880fe43dab26e522940c4c0665c4daea5335c4e330162fbacd25b3908a400",
          "transactionIndex": "0x19",
          "logIndex": "0x31",
          "removed": false
        }
      ],
      "status": "0x1",
      "logsBloom": "0x00000000020000000000000000000000000000000000000000000000000000000000000000000000000000000000000000000000020000000000000000000000000000000000000000000000000000000000000000000000000000000000000000000000000000000000004000000000000000000000000000000000000000000000000000000000000000000000000000000000000000000000000000000000000000000000000000040008000000000000000000800000000000000000000000000000000000000000000000000000000000000000000000000000000000000000000000000000000000000000000000000000000000000000000000000000",
      "type": "0x2",
      "effectiveGasPrice": "0xba38fc8a"
    }
  ],
  "libraries": [],
  "pending": [],
  "returns": {},
  "timestamp": 1705837180,
  "chain": 11155111,
  "multi": false,
  "commit": "0fd21c1"
}