{
  "transactions": [
    {
      "hash": "0x9390c6e61d9c7d4c198185c72bc61e47ca16847010f9182ad42c65f91f12d10c",
      "transactionType": "CALL",
      "contractName": "TestGHO",
      "contractAddress": "0xBdD9c513Be2514F83B72761503F0be2134ec6A1a",
      "function": "mint(address,uint256)",
      "arguments": [
        "0x79fDC8EC923aE2d6B0CC3757b476422e01DAbE7d",
        "10000000000000000000000"
      ],
      "transaction": {
        "type": "0x02",
        "from": "0x1cb30cb181d7854f91c2410bd037e6f42130e860",
        "to": "0xbdd9c513be2514f83b72761503f0be2134ec6a1a",
        "gas": "0x113fd",
        "value": "0x0",
        "data": "0x40c10f1900000000000000000000000079fdc8ec923ae2d6b0cc3757b476422e01dabe7d00000000000000000000000000000000000000000000021e19e0c9bab2400000",
        "nonce": "0x28e",
        "accessList": []
      },
      "additionalContracts": [],
      "isFixedGasLimit": false
    },
    {
      "hash": "0x007b4afeeda2c41c4ab63a7afd2b15742e20ee6d1eaf36c75dfa513c0557b46c",
      "transactionType": "CALL",
      "contractName": "TestGHO",
      "contractAddress": "0xBdD9c513Be2514F83B72761503F0be2134ec6A1a",
      "function": "mint(address,uint256)",
      "arguments": [
        "0x6C5B323C02E01218689D59f250BBdA6283edd3f7",
        "10000000000000000000000"
      ],
      "transaction": {
        "type": "0x02",
        "from": "0x1cb30cb181d7854f91c2410bd037e6f42130e860",
        "to": "0xbdd9c513be2514f83b72761503f0be2134ec6a1a",
        "gas": "0xb7ba",
        "value": "0x0",
        "data": "0x40c10f190000000000000000000000006c5b323c02e01218689d59f250bbda6283edd3f700000000000000000000000000000000000000000000021e19e0c9bab2400000",
        "nonce": "0x28f",
        "accessList": []
      },
      "additionalContracts": [],
      "isFixedGasLimit": false
    }
  ],
  "receipts": [
    {
      "transactionHash": "0x9390c6e61d9c7d4c198185c72bc61e47ca16847010f9182ad42c65f91f12d10c",
      "transactionIndex": "0x3b",
      "blockHash": "0x65b54ab19b3f363de3a3f850341eb732da0ae7ff5191d84d703a222f0a4355bd",
      "blockNumber": "0x4e3ebb",
      "from": "0x1Cb30cb181D7854F91c2410BD037E6F42130e860",
      "to": "0xBdD9c513Be2514F83B72761503F0be2134ec6A1a",
      "cumulativeGasUsed": "0xac1e7f",
      "gasUsed": "0xc7d0",
      "contractAddress": null,
      "logs": [
        {
          "address": "0xBdD9c513Be2514F83B72761503F0be2134ec6A1a",
          "topics": [
            "0xddf252ad1be2c89b69c2b068fc378daa952ba7f163c4a11628f55a4df523b3ef",
            "0x0000000000000000000000000000000000000000000000000000000000000000",
            "0x00000000000000000000000079fdc8ec923ae2d6b0cc3757b476422e01dabe7d"
          ],
          "data": "0x00000000000000000000000000000000000000000000021e19e0c9bab2400000",
          "blockHash": "0x65b54ab19b3f363de3a3f850341eb732da0ae7ff5191d84d703a222f0a4355bd",
          "blockNumber": "0x4e3ebb",
          "transactionHash": "0x9390c6e61d9c7d4c198185c72bc61e47ca16847010f9182ad42c65f91f12d10c",
          "transactionIndex": "0x3b",
          "logIndex": "0xb4",
          "removed": false
        }
      ],
      "status": "0x1",
      "logsBloom": "0x00000000000000000000000000000000000000000000000008000000000000000000000000000000000000000000000000000000000000000000000001000000000000000000000000000008000000000000000000000020000000000000000000000000020000000000000000000800000000000000000000000010000000000002000000000000000000000000000000000000000000000000000000000000000000000000000000000000000000000000000000000000000000000000000000000002000000000000000000000000000000000000000000000000010020000000000000000000000400000000000000000000000000000000000000000000",
      "type": "0x2",
      "effectiveGasPrice": "0x270e9cc56"
    },
    {
      "transactionHash": "0x007b4afeeda2c41c4ab63a7afd2b15742e20ee6d1eaf36c75dfa513c0557b46c",
      "transactionIndex": "0x40",
      "blockHash": "0x65b54ab19b3f363de3a3f850341eb732da0ae7ff5191d84d703a222f0a4355bd",
      "blockNumber": "0x4e3ebb",
      "from": "0x1Cb30cb181D7854F91c2410BD037E6F42130e860",
      "to": "0xBdD9c513Be2514F83B72761503F0be2134ec6A1a",
      "cumulativeGasUsed": "0xb1a7d5",
      "gasUsed": "0x8504",
      "contractAddress": null,
      "logs": [
        {
          "address": "0xBdD9c513Be2514F83B72761503F0be2134ec6A1a",
          "topics": [
            "0xddf252ad1be2c89b69c2b068fc378daa952ba7f163c4a11628f55a4df523b3ef",
            "0x0000000000000000000000000000000000000000000000000000000000000000",
            "0x0000000000000000000000006c5b323c02e01218689d59f250bbda6283edd3f7"
          ],
          "data": "0x00000000000000000000000000000000000000000000021e19e0c9bab2400000",
          "blockHash": "0x65b54ab19b3f363de3a3f850341eb732da0ae7ff5191d84d703a222f0a4355bd",
          "blockNumber": "0x4e3ebb",
          "transactionHash": "0x007b4afeeda2c41c4ab63a7afd2b15742e20ee6d1eaf36c75dfa513c0557b46c",
          "transactionIndex": "0x40",
          "logIndex": "0xbe",
          "removed": false
        }
      ],
      "status": "0x1",
      "logsBloom": "0x00000000000000000010000000000000000000000000200000000000000000000000000000000000000000000000000000000000100000000000000001000000000000000000000000000008000000000000000000000020000000000000000000000000020000000000000000000800000000000000000000000010000000000000000000000000000000000000000000000000000000000000000000000000000000000000000000000000000000000000000000000000000000000000000000000002000000000000000000000000000000000000000000000000010020000000000000000000000000000000000000000000000000000000000000000000",
      "type": "0x2",
      "effectiveGasPrice": "0x270e9cc56"
    }
  ],
  "libraries": [],
  "pending": [],
  "returns": {},
  "timestamp": 1705856617,
  "chain": 11155111,
  "multi": false,
  "commit": "b7b0b1c"
}