{
  "transactions": [
    {
      "hash": "0x26720763082edd1ac1fe26ca838a2f3e65710c7abd17c5ed135d0ad5c308d659",
      "transactionType": "CALL",
      "contractName": "MainVault",
      "contractAddress": "0x44dc28ea5A729c6235D50bbA2a25e92D5D242149",
      "function": "setUserFee(uint256)",
      "arguments": [
        "2000000000000000"
      ],
      "transaction": {
        "type": "0x02",
        "from": "0x1cb30cb181d7854f91c2410bd037e6f42130e860",
        "to": "0x44dc28ea5a729c6235d50bba2a25e92d5d242149",
        "gas": "0xfd01",
        "value": "0x0",
        "data": "0x2050e09400000000000000000000000000000000000000000000000000071afd498d0000",
        "nonce": "0x28a",
        "accessList": []
      },
      "additionalContracts": [],
      "isFixedGasLimit": false
    },
    {
      "hash": "0x91496bf1ac7d36feee05a78224a5311ac6e1e99dd58b468938c2be87f187500f",
      "transactionType": "CALL",
      "contractName": "MainVault",
      "contractAddress": "0x44dc28ea5A729c6235D50bbA2a25e92D5D242149",
      "function": "setPartnerFee(uint256)",
      "arguments": [
        "300000000000000000"
      ],
      "transaction": {
        "type": "0x02",
        "from": "0x1cb30cb181d7854f91c2410bd037e6f42130e860",
        "to": "0x44dc28ea5a729c6235d50bba2a25e92d5d242149",
        "gas": "0x10bf6",
        "value": "0x0",
        "data": "0x3741454d0000000000000000000000000000000000000000000000000429d069189e0000",
        "nonce": "0x28b",
        "accessList": []
      },
      "additionalContracts": [],
      "isFixedGasLimit": false
    }
  ],
  "receipts": [
    {
      "transactionHash": "0x26720763082edd1ac1fe26ca838a2f3e65710c7abd17c5ed135d0ad5c308d659",
      "transactionIndex": "0x40",
      "blockHash": "0x4e731da001d79b7275319c78451d0d655d1fa545bbe4af2f88761dd0a4f914db",
      "blockNumber": "0x4e3e3c",
      "from": "0x1Cb30cb181D7854F91c2410BD037E6F42130e860",
      "to": "0x44dc28ea5A729c6235D50bbA2a25e92D5D242149",
      "cumulativeGasUsed": "0x5f2359",
      "gasUsed": "0xb72d",
      "contractAddress": null,
      "logs": [
        {
          "address": "0x44dc28ea5A729c6235D50bbA2a25e92D5D242149",
          "topics": [
            "0xc013b8341ea863bfc4571c06021cd8a7c8eeea033e27675ba23ef3a6478e8343"
          ],
          "data": "0x00000000000000000000000000000000000000000000000000071afd498d0000",
          "blockHash": "0x4e731da001d79b7275319c78451d0d655d1fa545bbe4af2f88761dd0a4f914db",
          "blockNumber": "0x4e3e3c",
          "transactionHash": "0x26720763082edd1ac1fe26ca838a2f3e65710c7abd17c5ed135d0ad5c308d659",
          "transactionIndex": "0x40",
          "logIndex": "0x80",
          "removed": false
        }
      ],
      "status": "0x1",
      "logsBloom": "0x00000000000000000000800000000000000000000000000000000000000000000100000000000000000000000000000000000000000000000000000000000000000000000000000000000000000000000000000000000000000000000000000000000000000000000000000000000000000000000002000000000000000020000000000000000000000000000000000000000000000000000000000000000000000001000000000000000000000000000000000000000000000000000000000000000000000000000000000000000000000000000000000000000000000000000100000000000000000000000000000000000000000000000000000000000000",
      "type": "0x2",
      "effectiveGasPrice": "0x4f7c6bd24"
    },
    {
      "transactionHash": "0x91496bf1ac7d36feee05a78224a5311ac6e1e99dd58b468938c2be87f187500f",
      "transactionIndex": "0x41",
      "blockHash": "0x4e731da001d79b7275319c78451d0d655d1fa545bbe4af2f88761dd0a4f914db",
      "blockNumber": "0x4e3e3c",
      "from": "0x1Cb30cb181D7854F91c2410BD037E6F42130e860",
      "to": "0x44dc28ea5A729c6235D50bbA2a25e92D5D242149",
      "cumulativeGasUsed": "0x5fda92",
      "gasUsed": "0xb739",
      "contractAddress": null,
      "logs": [
        {
          "address": "0x44dc28ea5A729c6235D50bbA2a25e92D5D242149",
          "topics": [
            "0x7d2f55757a415932d0da2e15c82996e62500df6be2e6391891673497531e7dac"
          ],
          "data": "0x0000000000000000000000000000000000000000000000000429d069189e0000",
          "blockHash": "0x4e731da001d79b7275319c78451d0d655d1fa545bbe4af2f88761dd0a4f914db",
          "blockNumber": "0x4e3e3c",
          "transactionHash": "0x91496bf1ac7d36feee05a78224a5311ac6e1e99dd58b468938c2be87f187500f",
          "transactionIndex": "0x41",
          "logIndex": "0x81",
          "removed": false
        }
      ],
      "status": "0x1",
      "logsBloom": "0x00000000000000000000000000000000000000000000000000000000000000000100000000000000000000000000000000000000000000000000000000000000000000000000000000000000000000000000000000000000000000000000000000000000000000000000004000000000000000000000000000000000000020000000000000000000000000000000000000000000000000000000000000000000000001000000000000040000000000000000000000800000000000000000000000000000000000000000000000000000000000000000000000000000000000000000000000000000000000000000000000000000000000000000000000000000",
      "type": "0x2",
      "effectiveGasPrice": "0x4f7c6bd24"
    }
  ],
  "libraries": [],
  "pending": [],
  "returns": {},
  "timestamp": 1705854954,
  "chain": 11155111,
  "multi": false,
  "commit": "9058322"
}