{
  "transactions": [
    {
      "hash": "0x9d26a47a81f34341d5deee100aa7621814ebfc59557be90c77a60e11a84a6956",
      "transactionType": "CALL",
      "contractName": "TestGHO",
      "contractAddress": "0xBdD9c513Be2514F83B72761503F0be2134ec6A1a",
      "function": "mint(address,uint256)",
      "arguments": [
        "0x1Cb30cb181D7854F91c2410BD037E6F42130e860",
        "10000000000000000000000"
      ],
      "transaction": {
        "type": "0x02",
        "from": "0x1cb30cb181d7854f91c2410bd037e6f42130e860",
        "to": "0xbdd9c513be2514f83b72761503f0be2134ec6a1a",
        "gas": "0x17040",
        "value": "0x0",
        "data": "0x40c10f190000000000000000000000001cb30cb181d7854f91c2410bd037e6f42130e86000000000000000000000000000000000000000000000021e19e0c9bab2400000",
        "nonce": "0x211",
        "accessList": []
      },
      "additionalContracts": [],
      "isFixedGasLimit": false
    },
    {
      "hash": "0xa990e6b6574c23044441d4691b2abf8141300175dc047e17019d41d5ce0e3374",
      "transactionType": "CALL",
      "contractName": "TestGHO",
      "contractAddress": "0xBdD9c513Be2514F83B72761503F0be2134ec6A1a",
      "function": "mint(address,uint256)",
      "arguments": [
        "0xa60f738a60BCA515Ac529b7335EC7CB2eE3891d2",
        "10000000000000000000000"
      ],
      "transaction": {
        "type": "0x02",
        "from": "0x1cb30cb181d7854f91c2410bd037e6f42130e860",
        "to": "0xbdd9c513be2514f83b72761503f0be2134ec6a1a",
        "gas": "0x113fd",
        "value": "0x0",
        "data": "0x40c10f19000000000000000000000000a60f738a60bca515ac529b7335ec7cb2ee3891d200000000000000000000000000000000000000000000021e19e0c9bab2400000",
        "nonce": "0x212",
        "accessList": []
      },
      "additionalContracts": [],
      "isFixedGasLimit": false
    },
    {
      "hash": "0x4c231d2f243a144a2f1fd33a10b8b17564dad8c842aa5fbc0b6fbf5e7dac6674",
      "transactionType": "CALL",
      "contractName": "TestGHO",
      "contractAddress": "0xBdD9c513Be2514F83B72761503F0be2134ec6A1a",
      "function": "mint(address,uint256)",
      "arguments": [
        "0xdDCc06f98A7C71Ab602b8247d540dA5BD8f5D2A2",
        "10000000000000000000000"
      ],
      "transaction": {
        "type": "0x02",
        "from": "0x1cb30cb181d7854f91c2410bd037e6f42130e860",
        "to": "0xbdd9c513be2514f83b72761503f0be2134ec6a1a",
        "gas": "0x113fd",
        "value": "0x0",
        "data": "0x40c10f19000000000000000000000000ddcc06f98a7c71ab602b8247d540da5bd8f5d2a200000000000000000000000000000000000000000000021e19e0c9bab2400000",
        "nonce": "0x213",
        "accessList": []
      },
      "additionalContracts": [],
      "isFixedGasLimit": false
    }
  ],
  "receipts": [
    {
      "transactionHash": "0x9d26a47a81f34341d5deee100aa7621814ebfc59557be90c77a60e11a84a6956",
      "transactionIndex": "0x19",
      "blockHash": "0xd13c6f07d3502aa38f4aed0594e11ad470d1b5d37b37620419508c0371750dd3",
      "blockNumber": "0x4e10c5",
      "from": "0x1Cb30cb181D7854F91c2410BD037E6F42130e860",
      "to": "0xBdD9c513Be2514F83B72761503F0be2134ec6A1a",
      "cumulativeGasUsed": "0x104bf6",
      "gasUsed": "0x10a9c",
      "contractAddress": null,
      "logs": [
        {
          "address": "0xBdD9c513Be2514F83B72761503F0be2134ec6A1a",
          "topics": [
            "0xddf252ad1be2c89b69c2b068fc378daa952ba7f163c4a11628f55a4df523b3ef",
            "0x0000000000000000000000000000000000000000000000000000000000000000",
            "0x0000000000000000000000001cb30cb181d7854f91c2410bd037e6f42130e860"
          ],
          "data": "0x00000000000000000000000000000000000000000000021e19e0c9bab2400000",
          "blockHash": "0xd13c6f07d3502aa38f4aed0594e11ad470d1b5d37b37620419508c0371750dd3",
          "blockNumber": "0x4e10c5",
          "transactionHash": "0x9d26a47a81f34341d5deee100aa7621814ebfc59557be90c77a60e11a84a6956",
          "transactionIndex": "0x19",
          "logIndex": "0x9",
          "removed": false
        }
      ],
      "status": "0x1",
      "logsBloom": "0x02002000000000000000000000000000000000000000000000000000000000000000000000000000000000000000000000000000000000000000000001000000000000000000000000000008000000000000000000000020000000000000000000000000020000000000000000000800000000000000000000000010000000000000000000000000000000000000000000000000000000000000000000000000000000000000000000000000000000000000000000000000000000000000000000000002000000000000000000000000000000000004000000000000010020000000000000000000000000000000000000000000000000000000000000000000",
      "type": "0x2",
      "effectiveGasPrice": "0xd1cb005f8"
    },
    {
      "transactionHash": "0xa990e6b6574c23044441d4691b2abf8141300175dc047e17019d41d5ce0e3374",
      "transactionIndex": "0x1a",
      "blockHash": "0xd13c6f07d3502aa38f4aed0594e11ad470d1b5d37b37620419508c0371750dd3",
      "blockNumber": "0x4e10c5",
      "from": "0x1Cb30cb181D7854F91c2410BD037E6F42130e860",
      "to": "0xBdD9c513Be2514F83B72761503F0be2134ec6A1a",
      "cumulativeGasUsed": "0x1113c6",
      "gasUsed": "0xc7d0",
      "contractAddress": null,
      "logs": [
        {
          "address": "0xBdD9c513Be2514F83B72761503F0be2134ec6A1a",
          "topics": [
            "0xddf252ad1be2c89b69c2b068fc378daa952ba7f163c4a11628f55a4df523b3ef",
            "0x0000000000000000000000000000000000000000000000000000000000000000",
            "0x000000000000000000000000a60f738a60bca515ac529b7335ec7cb2ee3891d2"
          ],
          "data": "0x00000000000000000000000000000000000000000000021e19e0c9bab2400000",
          "blockHash": "0xd13c6f07d3502aa38f4aed0594e11ad470d1b5d37b37620419508c0371750dd3",
          "blockNumber": "0x4e10c5",
          "transactionHash": "0xa990e6b6574c23044441d4691b2abf8141300175dc047e17019d41d5ce0e3374",
          "transactionIndex": "0x1a",
          "logIndex": "0xa",
          "removed": false
        }
      ],
      "status": "0x1",
      "logsBloom": "0x00000000000000000000000000000000000000000000000000000000080000000000000000080000000000000000000000000000000000000000000001000000000000000000000000000008000000000000000000000020000000000000000000000000020000000000010000000800000000000000000000000010000000000000000000000000000000000000000000000000000000000000000000000000000000000000000000000000000000000000000000000000000000000000000000000002000000000000000000000000000000000000000000000000010020000000000000000000000000000000000000000000000000000000000000000000",
      "type": "0x2",
      "effectiveGasPrice": "0xd1cb005f8"
    },
    {
      "transactionHash": "0x4c231d2f243a144a2f1fd33a10b8b17564dad8c842aa5fbc0b6fbf5e7dac6674",
      "transactionIndex": "0x1b",
      "blockHash": "0xd13c6f07d3502aa38f4aed0594e11ad470d1b5d37b37620419508c0371750dd3",
      "blockNumber": "0x4e10c5",
      "from": "0x1Cb30cb181D7854F91c2410BD037E6F42130e860",
      "to": "0xBdD9c513Be2514F83B72761503F0be2134ec6A1a",
      "cumulativeGasUsed": "0x11db96",
      "gasUsed": "0xc7d0",
      "contractAddress": null,
      "logs": [
        {
          "address": "0xBdD9c513Be2514F83B72761503F0be2134ec6A1a",
          "topics": [
            "0xddf252ad1be2c89b69c2b068fc378daa952ba7f163c4a11628f55a4df523b3ef",
            "0x0000000000000000000000000000000000000000000000000000000000000000",
            "0x000000000000000000000000ddcc06f98a7c71ab602b8247d540da5bd8f5d2a2"
          ],
          "data": "0x00000000000000000000000000000000000000000000021e19e0c9bab2400000",
          "blockHash": "0xd13c6f07d3502aa38f4aed0594e11ad470d1b5d37b37620419508c0371750dd3",
          "blockNumber": "0x4e10c5",
          "transactionHash": "0x4c231d2f243a144a2f1fd33a10b8b17564dad8c842aa5fbc0b6fbf5e7dac6674",
          "transactionIndex": "0x1b",
          "logIndex": "0xb",
          "removed": false
        }
      ],
      "status": "0x1",
      "logsBloom": "0x00000000000000000000000000000000000000000000000000000000000000000000000000000000000000000000000000000000000000000000000001000000000000000000000000000008000000000000000000000020000000000000004000000000020000000020000000000800000000000000000000000010000000000000000000000000000000000000000000000000000000000000000000000000000000000000000000000000000000000000000000000000000000000000000000000002000000000000000000000000000000000000000000000040010020000000000000000000000000000000000000000000000000000000000000000000",
      "type": "0x2",
      "effectiveGasPrice": "0xd1cb005f8"
    }
  ],
  "libraries": [],
  "pending": [],
  "returns": {},
  "timestamp": 1705693026,
  "chain": 11155111,
  "multi": false,
  "commit": "41a6034"
}