{
  "transactions": [
    {
      "hash": "0x28e0ff7d4598a9e094342ace34334f22a2374dfb3dc1e00cfaf9d2ac5576bfb3",
      "transactionType": "CALL",
      "contractName": "TestGHO",
      "contractAddress": "0xBdD9c513Be2514F83B72761503F0be2134ec6A1a",
      "function": "approve(address,uint256):(bool)",
      "arguments": [
        "0x0Daf0Dd7902EB415f9624c102Ef6dA7a20D15e10",
        "10000000000000000000000"
      ],
      "transaction": {
        "type": "0x02",
        "from": "0x1cb30cb181d7854f91c2410bd037e6f42130e860",
        "to": "0xbdd9c513be2514f83b72761503f0be2134ec6a1a",
        "gas": "0x107d0",
        "value": "0x0",
        "data": "0x095ea7b30000000000000000000000000daf0dd7902eb415f9624c102ef6da7a20d15e1000000000000000000000000000000000000000000000021e19e0c9bab2400000",
        "nonce": "0x253",
        "accessList": []
      },
      "additionalContracts": [],
      "isFixedGasLimit": false
    },
    {
      "hash": "0x923c16bb4790a2c99b131bca8932c06c784406a2edc32ad937413e08d06f91ea",
      "transactionType": "CALL",
      "contractName": "MainVault",
      "contractAddress": "0x0Daf0Dd7902EB415f9624c102Ef6dA7a20D15e10",
      "function": "depositGHO(uint256)",
      "arguments": [
        "10000000000000000000000"
      ],
      "transaction": {
        "type": "0x02",
        "from": "0x1cb30cb181d7854f91c2410bd037e6f42130e860",
        "to": "0x0daf0dd7902eb415f9624c102ef6da7a20d15e10",
        "gas": "0x195cd",
        "value": "0x0",
        "data": "0x7709b6ab00000000000000000000000000000000000000000000021e19e0c9bab2400000",
        "nonce": "0x254",
        "accessList": []
      },
      "additionalContracts": [],
      "isFixedGasLimit": false
    }
  ],
  "receipts": [],
  "libraries": [],
  "pending": [
    "0x28e0ff7d4598a9e094342ace34334f22a2374dfb3dc1e00cfaf9d2ac5576bfb3",
    "0x923c16bb4790a2c99b131bca8932c06c784406a2edc32ad937413e08d06f91ea"
  ],
  "returns": {},
  "timestamp": 1705812364,
  "chain": 11155111,
  "multi": false,
  "commit": "b80610e"
}