{
  "transactions": [
    {
      "hash": "0xd2ac64077fd5b1e23db16ffa3684a183e4b7eec73e09bf46aa85aa527c4f2e73",
      "transactionType": "CALL",
      "contractName": "TestGHO",
      "contractAddress": "0xBdD9c513Be2514F83B72761503F0be2134ec6A1a",
      "function": "approve(address,uint256):(bool)",
      "arguments": [
        "0xA03A35C0117aED845D550CF991c32571510E198a",
        "10000000000000000000000"
      ],
      "transaction": {
        "type": "0x02",
        "from": "0x1cb30cb181d7854f91c2410bd037e6f42130e860",
        "to": "0xbdd9c513be2514f83b72761503f0be2134ec6a1a",
        "gas": "0x107d0",
        "value": "0x0",
        "data": "0x095ea7b3000000000000000000000000a03a35c0117aed845d550cf991c32571510e198a00000000000000000000000000000000000000000000021e19e0c9bab2400000",
        "nonce": "0x2b4",
        "accessList": []
      },
      "additionalContracts": [],
      "isFixedGasLimit": false
    },
    {
      "hash": "0xb0a17e9b5be1c7075f43b013f9468730a622227b9c91671e43c544fe10a322e7",
      "transactionType": "CALL",
      "contractName": "MainVault",
      "contractAddress": "0xA03A35C0117aED845D550CF991c32571510E198a",
      "function": "depositGHO(uint256)",
      "arguments": [
        "10000000000000000000000"
      ],
      "transaction": {
        "type": "0x02",
        "from": "0x1cb30cb181d7854f91c2410bd037e6f42130e860",
        "to": "0xa03a35c0117aed845d550cf991c32571510e198a",
        "gas": "0x24bf8",
        "value": "0x0",
        "data": "0x7709b6ab00000000000000000000000000000000000000000000021e19e0c9bab2400000",
        "nonce": "0x2b5",
        "accessList": []
      },
      "additionalContracts": [],
      "isFixedGasLimit": false
    }
  ],
  "receipts": [
    {
      "transactionHash": "0xd2ac64077fd5b1e23db16ffa3684a183e4b7eec73e09bf46aa85aa527c4f2e73",
      "transactionIndex": "0x32",
      "blockHash": "0xb5811e061fe07040ea505641a001189f9f2bc7d9c8fb4606b68d9d818bcec126",
      "blockNumber": "0x4e402e",
      "from": "0x1Cb30cb181D7854F91c2410BD037E6F42130e860",
      "to": "0xBdD9c513Be2514F83B72761503F0be2134ec6A1a",
      "cumulativeGasUsed": "0x3fbac9",
      "gasUsed": "0xb463",
      "contractAddress": null,
      "logs": [
        {
          "address": "0xBdD9c513Be2514F83B72761503F0be2134ec6A1a",
          "topics": [
            "0x8c5be1e5ebec7d5bd14f71427d1e84f3dd0314c0f7b2291e5b200ac8c7c3b925",
            "0x0000000000000000000000001cb30cb181d7854f91c2410bd037e6f42130e860",
            "0x000000000000000000000000a03a35c0117aed845d550cf991c32571510e198a"
          ],
          "data": "0x00000000000000000000000000000000000000000000021e19e0c9bab2400000",
          "blockHash": "0xb5811e061fe07040ea505641a001189f9f2bc7d9c8fb4606b68d9d818bcec126",
          "blockNumber": "0x4e402e",
          "transactionHash": "0xd2ac64077fd5b1e23db16ffa3684a183e4b7eec73e09bf46aa85aa527c4f2e73",
          "transactionIndex": "0x32",
          "logIndex": "0x2d",
          "removed": false
        }
      ],
      "status": "0x1",
      "logsBloom": "0x02002000000000000000000000000000000000000000000000000000000000000000000000000000000000000000000000000000000000000000000001200000000000000000000000020000000000000000000000000020000000000000000000000000000000000000000000000000400000000000000000000000000000000000000000000000000000000000000000000000000000000000000000000000020000000000000080000000000000000000000000000000000000000000000000000000000000000000000000000000000000000004000000000000010000000010000000000000000000000000000000000000000000000000000000000000",
      "type": "0x2",
      "effectiveGasPrice": "0x1b45d1ceb"
    },
    {
      "transactionHash": "0xb0a17e9b5be1c7075f43b013f9468730a622227b9c91671e43c544fe10a322e7",
      "transactionIndex": "0x33",
      "blockHash": "0xb5811e061fe07040ea505641a001189f9f2bc7d9c8fb4606b68d9d818bcec126",
      "blockNumber": "0x4e402e",
      "from": "0x1Cb30cb181D7854F91c2410BD037E6F42130e860",
      "to": "0xA03A35C0117aED845D550CF991c32571510E198a",
      "cumulativeGasUsed": "0x416478",
      "gasUsed": "0x1a9af",
      "contractAddress": null,
      "logs": [
        {
          "address": "0xBdD9c513Be2514F83B72761503F0be2134ec6A1a",
          "topics": [
            "0xddf252ad1be2c89b69c2b068fc378daa952ba7f163c4a11628f55a4df523b3ef",
            "0x0000000000000000000000001cb30cb181d7854f91c2410bd037e6f42130e860",
            "0x000000000000000000000000a03a35c0117aed845d550cf991c32571510e198a"
          ],
          "data": "0x00000000000000000000000000000000000000000000021e19e0c9bab2400000",
          "blockHash": "0xb5811e061fe07040ea505641a001189f9f2bc7d9c8fb4606b68d9d818bcec126",
          "blockNumber": "0x4e402e",
          "transactionHash": "0xb0a17e9b5be1c7075f43b013f9468730a622227b9c91671e43c544fe10a322e7",
          "transactionIndex": "0x33",
          "logIndex": "0x2e",
          "removed": false
        },
        {
          "address": "0xA03A35C0117aED845D550CF991c32571510E198a",
          "topics": [
            "0xddf252ad1be2c89b69c2b068fc378daa952ba7f163c4a11628f55a4df523b3ef",
            "0x0000000000000000000000000000000000000000000000000000000000000000",
            "0x0000000000000000000000008107b2e64c34ab015ac86ab724553feef75da25d"
          ],
          "data": "0x00000000000000000000000000000000000000000000021e19e0c9bab2400000",
          "blockHash": "0xb5811e061fe07040ea505641a001189f9f2bc7d9c8fb4606b68d9d818bcec126",
          "blockNumber": "0x4e402e",
          "transactionHash": "0xb0a17e9b5be1c7075f43b013f9468730a622227b9c91671e43c544fe10a322e7",
          "transactionIndex": "0x33",
          "logIndex": "0x2f",
          "removed": false
        },
        {
          "address": "0xA03A35C0117aED845D550CF991c32571510E198a",
          "topics": [
            "0xdcbc1c05240f31ff3ad067ef1ee35ce4997762752e3a095284754544f4c709d7",
            "0x0000000000000000000000001cb30cb181d7854f91c2410bd037e6f42130e860",
            "0x0000000000000000000000008107b2e64c34ab015ac86ab724553feef75da25d"
          ],
          "data": "0x00000000000000000000000000000000000000000000021e19e0c9bab240000000000000000000000000000000000000000000000000021e19e0c9bab2400000",
          "blockHash": "0xb5811e061fe07040ea505641a001189f9f2bc7d9c8fb4606b68d9d818bcec126",
          "blockNumber": "0x4e402e",
          "transactionHash": "0xb0a17e9b5be1c7075f43b013f9468730a622227b9c91671e43c544fe10a322e7",
          "transactionIndex": "0x33",
          "logIndex": "0x30",
          "removed": false
        },
        {
          "address": "0xA03A35C0117aED845D550CF991c32571510E198a",
          "topics": [
            "0x05481d73db532e5e33460a49c151606cfe362daee86a1cab011fda979f1a9fe5"
          ],
          "data": "0x00000000000000000000000000000000000000000000021e19e0c9bab2400000",
          "blockHash": "0xb5811e061fe07040ea505641a001189f9f2bc7d9c8fb4606b68d9d818bcec126",
          "blockNumber": "0x4e402e",
          "transactionHash": "0xb0a17e9b5be1c7075f43b013f9468730a622227b9c91671e43c544fe10a322e7",
          "transactionIndex": "0x33",
          "logIndex": "0x31",
          "removed": false
        }
      ],
      "status": "0x1",
      "logsBloom": "0x0200200000000000000000000000000000010000004000000000000000000000000000000000000000000000000000000000000000000000000000000100000000000040000000000002000800000000000000000000002000010000000000000000000002000000000000000000080040000000000400000000001000000000000000000000000000000000000000000000040000000000000000000000000000000000000000008000000000000000000000000000000000000000000000020000000200000000000000000000000800000000000c000000000000010020002004001000000000000000000000000000000000000000000000000000000000",
      "type": "0x2",
      "effectiveGasPrice": "0x1b45d1ceb"
    }
  ],
  "libraries": [],
  "pending": [],
  "returns": {},
  "timestamp": 1705861707,
  "chain": 11155111,
  "multi": false,
  "commit": "1b08bd3"
}