{
  "transactions": [
    {
      "hash": "0x1cc779949bf0f7e1901180add07510a30c0871b0b1c0bb38cdaccf8cab2ee062",
      "transactionType": "CALL",
      "contractName": "TestGHO",
      "contractAddress": "0xBdD9c513Be2514F83B72761503F0be2134ec6A1a",
      "function": "approve(address,uint256):(bool)",
      "arguments": [
        "0x93EBcd57712B37084564259168b3a1d5738ef76b",
        "10000000000000000000000"
      ],
      "transaction": {
        "type": "0x02",
        "from": "0x1cb30cb181d7854f91c2410bd037e6f42130e860",
        "to": "0xbdd9c513be2514f83b72761503f0be2134ec6a1a",
        "gas": "0x107d0",
        "value": "0x0",
        "data": "0x095ea7b300000000000000000000000093ebcd57712b37084564259168b3a1d5738ef76b00000000000000000000000000000000000000000000021e19e0c9bab2400000",
        "nonce": "0x217",
        "accessList": []
      },
      "additionalContracts": [],
      "isFixedGasLimit": false
    },
    {
      "hash": "0xab76b664a310a0a843842595833751ee9114fdf90ffa931cff56a6a2f7373d2d",
      "transactionType": "CALL",
      "contractName": "MainVault",
      "contractAddress": "0x93EBcd57712B37084564259168b3a1d5738ef76b",
      "function": "depositGHO(uint256)",
      "arguments": [
        "10000000000000000000000"
      ],
      "transaction": {
        "type": "0x02",
        "from": "0x1cb30cb181d7854f91c2410bd037e6f42130e860",
        "to": "0x93ebcd57712b37084564259168b3a1d5738ef76b",
        "gas": "0x25303",
        "value": "0x0",
        "data": "0x7709b6ab00000000000000000000000000000000000000000000021e19e0c9bab2400000",
        "nonce": "0x218",
        "accessList": []
      },
      "additionalContracts": [],
      "isFixedGasLimit": false
    }
  ],
  "receipts": [
    {
      "transactionHash": "0x1cc779949bf0f7e1901180add07510a30c0871b0b1c0bb38cdaccf8cab2ee062",
      "transactionIndex": "0x31",
      "blockHash": "0xd1b9ba646f09d55e374113f463b6ace565813fe59587045cc5e136e338fb70b7",
      "blockNumber": "0x4e1163",
      "from": "0x1Cb30cb181D7854F91c2410BD037E6F42130e860",
      "to": "0xBdD9c513Be2514F83B72761503F0be2134ec6A1a",
      "cumulativeGasUsed": "0x18ae71",
      "gasUsed": "0xb463",
      "contractAddress": null,
      "logs": [
        {
          "address": "0xBdD9c513Be2514F83B72761503F0be2134ec6A1a",
          "topics": [
            "0x8c5be1e5ebec7d5bd14f71427d1e84f3dd0314c0f7b2291e5b200ac8c7c3b925",
            "0x0000000000000000000000001cb30cb181d7854f91c2410bd037e6f42130e860",
            "0x00000000000000000000000093ebcd57712b37084564259168b3a1d5738ef76b"
          ],
          "data": "0x00000000000000000000000000000000000000000000021e19e0c9bab2400000",
          "blockHash": "0xd1b9ba646f09d55e374113f463b6ace565813fe59587045cc5e136e338fb70b7",
          "blockNumber": "0x4e1163",
          "transactionHash": "0x1cc779949bf0f7e1901180add07510a30c0871b0b1c0bb38cdaccf8cab2ee062",
          "transactionIndex": "0x31",
          "logIndex": "0x15",
          "removed": false
        }
      ],
      "status": "0x1",
      "logsBloom": "0x02002000000000000000000080000000000000000000000000200000080000000000000000000000000000000000000000000000000000000000000001200000000000000000000000000000000000000000000000000020000000000000000000000000000000000000000000000000000000000000000000000000000000000000000000000000000000000000000000000000000000000000000000000000020000000000000000000000000000000000000000000000000000000000000000000000000000000000000000000000000000000004000000000000010000000010000000000000000000000000000000000000000000000000000000000000",
      "type": "0x2",
      "effectiveGasPrice": "0xeaf770139"
    },
    {
      "transactionHash": "0xab76b664a310a0a843842595833751ee9114fdf90ffa931cff56a6a2f7373d2d",
      "transactionIndex": "0x32",
      "blockHash": "0xd1b9ba646f09d55e374113f463b6ace565813fe59587045cc5e136e338fb70b7",
      "blockNumber": "0x4e1163",
      "from": "0x1Cb30cb181D7854F91c2410BD037E6F42130e860",
      "to": "0x93EBcd57712B37084564259168b3a1d5738ef76b",
      "cumulativeGasUsed": "0x1a454a",
      "gasUsed": "0x196d9",
      "contractAddress": null,
      "logs": [
        {
          "address": "0xBdD9c513Be2514F83B72761503F0be2134ec6A1a",
          "topics": [
            "0xddf252ad1be2c89b69c2b068fc378daa952ba7f163c4a11628f55a4df523b3ef",
            "0x0000000000000000000000001cb30cb181d7854f91c2410bd037e6f42130e860",
            "0x00000000000000000000000093ebcd57712b37084564259168b3a1d5738ef76b"
          ],
          "data": "0x00000000000000000000000000000000000000000000021e19e0c9bab2400000",
          "blockHash": "0xd1b9ba646f09d55e374113f463b6ace565813fe59587045cc5e136e338fb70b7",
          "blockNumber": "0x4e1163",
          "transactionHash": "0xab76b664a310a0a843842595833751ee9114fdf90ffa931cff56a6a2f7373d2d",
          "transactionIndex": "0x32",
          "logIndex": "0x16",
          "removed": false
        },
        {
          "address": "0x93EBcd57712B37084564259168b3a1d5738ef76b",
          "topics": [
            "0xddf252ad1be2c89b69c2b068fc378daa952ba7f163c4a11628f55a4df523b3ef",
            "0x0000000000000000000000000000000000000000000000000000000000000000",
            "0x000000000000000000000000871886faf72978697829d0a988dd71db5f8f17d2"
          ],
          "data": "0x00000000000000000000000000000000000000000000021e19e0c9bab2400000",
          "blockHash": "0xd1b9ba646f09d55e374113f463b6ace565813fe59587045cc5e136e338fb70b7",
          "blockNumber": "0x4e1163",
          "transactionHash": "0xab76b664a310a0a843842595833751ee9114fdf90ffa931cff56a6a2f7373d2d",
          "transactionIndex": "0x32",
          "logIndex": "0x17",
          "removed": false
        },
        {
          "address": "0x93EBcd57712B37084564259168b3a1d5738ef76b",
          "topics": [
            "0xdcbc1c05240f31ff3ad067ef1ee35ce4997762752e3a095284754544f4c709d7",
            "0x0000000000000000000000001cb30cb181d7854f91c2410bd037e6f42130e860",
            "0x000000000000000000000000871886faf72978697829d0a988dd71db5f8f17d2"
          ],
          "data": "0x00000000000000000000000000000000000000000000021e19e0c9bab240000000000000000000000000000000000000000000000000021e19e0c9bab2400000",
          "blockHash": "0xd1b9ba646f09d55e374113f463b6ace565813fe59587045cc5e136e338fb70b7",
          "blockNumber": "0x4e1163",
          "transactionHash": "0xab76b664a310a0a843842595833751ee9114fdf90ffa931cff56a6a2f7373d2d",
          "transactionIndex": "0x32",
          "logIndex": "0x18",
          "removed": false
        },
        {
          "address": "0x93EBcd57712B37084564259168b3a1d5738ef76b",
          "topics": [
            "0x05481d73db532e5e33460a49c151606cfe362daee86a1cab011fda979f1a9fe5"
          ],
          "data": "0x00000000000000000000000000000000000000000000021e19e0c9bab2400000",
          "blockHash": "0xd1b9ba646f09d55e374113f463b6ace565813fe59587045cc5e136e338fb70b7",
          "blockNumber": "0x4e1163",
          "transactionHash": "0xab76b664a310a0a843842595833751ee9114fdf90ffa931cff56a6a2f7373d2d",
          "transactionIndex": "0x32",
          "logIndex": "0x19",
          "removed": false
        }
      ],
      "status": "0x1",
      "logsBloom": "0x0200200000000000000000008000000000000000004000000020000008000000000000000000000000000000000000000000000000000000000000000100000000000040000000000800000800000000000000000200002000000000000000000000000002000000000000000000080000000200000400000000001000000000000000000000000000000000000000000000000000000000000000000000000000000000000000002000000000000000000000000000000000000000000000020000000202000000000000000000000800000002000c000000000000010020000000000000000000000000000000000000000000000000000000000000000000",
      "type": "0x2",
      "effectiveGasPrice": "0xeaf770139"
    }
  ],
  "libraries": [],
  "pending": [],
  "returns": {},
  "timestamp": 1705695200,
  "chain": 11155111,
  "multi": false,
  "commit": "004767c"
}