{
  "transactions": [
    {
      "hash": "0x72664e6327c9e897238bd67069fc3f95a463ca66d473b911bbeb4a36ad2f019a",
      "transactionType": "CALL",
      "contractName": "TestGHO",
      "contractAddress": "0xBdD9c513Be2514F83B72761503F0be2134ec6A1a",
      "function": "mint(address,uint256)",
      "arguments": [
        "0x4d2cE66107a44C349036adF33877865a7b6B0d49",
        "10000000000000000000000"
      ],
      "transaction": {
        "type": "0x02",
        "from": "0x1cb30cb181d7854f91c2410bd037e6f42130e860",
        "to": "0xbdd9c513be2514f83b72761503f0be2134ec6a1a",
        "gas": "0x113fd",
        "value": "0x0",
        "data": "0x40c10f190000000000000000000000004d2ce66107a44c349036adf33877865a7b6b0d4900000000000000000000000000000000000000000000021e19e0c9bab2400000",
        "nonce": "0x293",
        "accessList": []
      },
      "additionalContracts": [],
      "isFixedGasLimit": false
    }
  ],
  "receipts": [
    {
      "transactionHash": "0x72664e6327c9e897238bd67069fc3f95a463ca66d473b911bbeb4a36ad2f019a",
      "transactionIndex": "0x1c",
      "blockHash": "0x4aa3209187de1b1483555db5b28ac23b348e7d8cf1ae124b7ff945b189d35cfc",
      "blockNumber": "0x4e3f5e",
      "from": "0x1Cb30cb181D7854F91c2410BD037E6F42130e860",
      "to": "0xBdD9c513Be2514F83B72761503F0be2134ec6A1a",
      "cumulativeGasUsed": "0x2f3551",
      "gasUsed": "0xc7d0",
      "contractAddress": null,
      "logs": [
        {
          "address": "0xBdD9c513Be2514F83B72761503F0be2134ec6A1a",
          "topics": [
            "0xddf252ad1be2c89b69c2b068fc378daa952ba7f163c4a11628f55a4df523b3ef",
            "0x0000000000000000000000000000000000000000000000000000000000000000",
            "0x0000000000000000000000004d2ce66107a44c349036adf33877865a7b6b0d49"
          ],
          "data": "0x00000000000000000000000000000000000000000000021e19e0c9bab2400000",
          "blockHash": "0x4aa3209187de1b1483555db5b28ac23b348e7d8cf1ae124b7ff945b189d35cfc",
          "blockNumber": "0x4e3f5e",
          "transactionHash": "0x72664e6327c9e897238bd67069fc3f95a463ca66d473b911bbeb4a36ad2f019a",
          "transactionIndex": "0x1c",
          "logIndex": "0x34",
          "removed": false
        }
      ],
      "status": "0x1",
      "logsBloom": "0x00000000000000000000000000000000000000000000000000000000000000000000000000000010000000000000000000000000000000000000000001000000000000000000000000000008000000000000000000000020000000000000000000000000020000000000000000000800000000000000000000000010000000000000000000000000000000000000000000000000000000000000000000010000000000000000000000000000000000000000000000000080000000000000000000000002000000000000000000000000000000000000000000000000010020000000000000000000000000000000000000000000000000000000000000000000",
      "type": "0x2",
      "effectiveGasPrice": "0x19115d478"
    }
  ],
  "libraries": [],
  "pending": [],
  "returns": {},
  "timestamp": 1705858773,
  "chain": 11155111,
  "multi": false,
  "commit": "b7b0b1c"
}