{
  "transactions": [
    {
      "hash": "0x947780ee1d843e4882561d704a31c31a7efeba48da2a96ef41c1932af6247a15",
      "transactionType": "CALL",
      "contractName": "MainVault",
      "contractAddress": "0xeEf9639F53a5AcBd7B9db216f88B2EDa72e7597F",
      "function": "setMainPayment(address)",
      "arguments": [
        "0x9028C972cCF1068320A0A4A5620c556177228c4d"
      ],
      "transaction": {
        "type": "0x02",
        "from": "0x1cb30cb181d7854f91c2410bd037e6f42130e860",
        "to": "0xeef9639f53a5acbd7b9db216f88b2eda72e7597f",
        "gas": "0xfed0",
        "value": "0x0",
        "data": "0x3674e6d50000000000000000000000009028c972ccf1068320a0a4a5620c556177228c4d",
        "nonce": "0x26b",
        "accessList": []
      },
      "additionalContracts": [],
      "isFixedGasLimit": false
    }
  ],
  "receipts": [
    {
      "transactionHash": "0x947780ee1d843e4882561d704a31c31a7efeba48da2a96ef41c1932af6247a15",
      "transactionIndex": "0x3c",
      "blockHash": "0x5bd3bcce0a5bea72996100f6f4390e1a485ed0b330649052283d9635f873fe57",
      "blockNumber": "0x4e3512",
      "from": "0x1Cb30cb181D7854F91c2410BD037E6F42130e860",
      "to": "0xeEf9639F53a5AcBd7B9db216f88B2EDa72e7597F",
      "cumulativeGasUsed": "0x26aa35",
      "gasUsed": "0xb87c",
      "contractAddress": null,
      "logs": [
        {
          "address": "0xeEf9639F53a5AcBd7B9db216f88B2EDa72e7597F",
          "topics": [
            "0x4c070d2bd28acbebea1baca2a0a570d95bcbc30dee9a07c8218065ad38a400fb"
          ],
          "data": "0x0000000000000000000000009028c972ccf1068320a0a4a5620c556177228c4d",
          "blockHash": "0x5bd3bcce0a5bea72996100f6f4390e1a485ed0b330649052283d9635f873fe57",
          "blockNumber": "0x4e3512",
          "transactionHash": "0x947780ee1d843e4882561d704a31c31a7efeba48da2a96ef41c1932af6247a15",
          "transactionIndex": "0x3c",
          "logIndex": "0x18",
          "removed": false
        }
      ],
      "status": "0x1",
      "logsBloom": "0x00000000000000000000000000000000000000000000000000000000040000000000000000000000000000000000080000000000000004000000000000000000000000000000000000000000000000000000000000000000000000000000000000000000000000000000000000000000000000000000000000000000000000000000000000020000000000008000000000000000002000000000000000000000000000000000000000000000000000000000000000000000000000000000000000000000000000000000000000000000000000000000000000000000000000000000000000000000000000000000000000000000000000000000000000000000",
      "type": "0x2",
      "effectiveGasPrice": "0xb8f62327"
    }
  ],
  "libraries": [],
  "pending": [],
  "returns": {},
  "timestamp": 1705822697,
  "chain": 11155111,
  "multi": false,
  "commit": "30b4b2d"
}