{
  "transactions": [
    {
      "hash": "0xb2fbbd878c7b72a0f955d5981ad38355988cb47313f5d637b3a6b6913f0c2770",
      "transactionType": "CALL",
      "contractName": "TestGHOPassport",
      "contractAddress": "0x17206705E75249B2Cb885423937e88Fc8f068338",
      "function": "mint(address,uint256)",
      "arguments": [
        "0xdDCc06f98A7C71Ab602b8247d540dA5BD8f5D2A2",
        "1"
      ],
      "transaction": {
        "type": "0x02",
        "from": "0x1cb30cb181d7854f91c2410bd037e6f42130e860",
        "to": "0x17206705e75249b2cb885423937e88fc8f068338",
        "gas": "0x17307",
        "value": "0x0",
        "data": "0x40c10f19000000000000000000000000ddcc06f98a7c71ab602b8247d540da5bd8f5d2a20000000000000000000000000000000000000000000000000000000000000001",
        "nonce": "0x214",
        "accessList": []
      },
      "additionalContracts": [],
      "isFixedGasLimit": false
    },
    {
      "hash": "0x97221497797fee990f3d96a99b6e38523d09754f193d40a854c1c2a4d6f21ef0",
      "transactionType": "CALL",
      "contractName": "TestGHOPartnerPassport",
      "contractAddress": "0xEa9b91D90ff3e904EcF230296D88c30c78E1E4c8",
      "function": "mint(address,uint256)",
      "arguments": [
        "0xa60f738a60BCA515Ac529b7335EC7CB2eE3891d2",
        "1"
      ],
      "transaction": {
        "type": "0x02",
        "from": "0x1cb30cb181d7854f91c2410bd037e6f42130e860",
        "to": "0xea9b91d90ff3e904ecf230296d88c30c78e1e4c8",
        "gas": "0x17307",
        "value": "0x0",
        "data": "0x40c10f19000000000000000000000000a60f738a60bca515ac529b7335ec7cb2ee3891d20000000000000000000000000000000000000000000000000000000000000001",
        "nonce": "0x215",
        "accessList": []
      },
      "additionalContracts": [],
      "isFixedGasLimit": false
    }
  ],
  "receipts": [],
  "libraries": [],
  "pending": [
    "0xb2fbbd878c7b72a0f955d5981ad38355988cb47313f5d637b3a6b6913f0c2770",
    "0x97221497797fee990f3d96a99b6e38523d09754f193d40a854c1c2a4d6f21ef0"
  ],
  "returns": {},
  "timestamp": 1705693872,
  "chain": 11155111,
  "multi": false,
  "commit": "41a6034"
}