{
  "transactions": [
    {
      "hash": "0x93857e2384203dda013e1724a1ce2c97aee443404542d0f31677002cfe2a2183",
      "transactionType": "CALL",
      "contractName": "MainVault",
      "contractAddress": "0x44dc28ea5A729c6235D50bbA2a25e92D5D242149",
      "function": "setMainPayment(address)",
      "arguments": [
        "0xe2Dc1E2716B8E06B9Ed0b4498ddAfa2260F32BEA"
      ],
      "transaction": {
        "type": "0x02",
        "from": "0x1cb30cb181d7854f91c2410bd037e6f42130e860",
        "to": "0x44dc28ea5a729c6235d50bba2a25e92d5d242149",
        "gas": "0xfed0",
        "value": "0x0",
        "data": "0x3674e6d5000000000000000000000000e2dc1e2716b8e06b9ed0b4498ddafa2260f32bea",
        "nonce": "0x286",
        "accessList": []
      },
      "additionalContracts": [],
      "isFixedGasLimit": false
    }
  ],
  "receipts": [],
  "libraries": [],
  "pending": [
    "0x93857e2384203dda013e1724a1ce2c97aee443404542d0f31677002cfe2a2183"
  ],
  "returns": {},
  "timestamp": 1705854828,
  "chain": 11155111,
  "multi": false,
  "commit": "3348477"
}