{
  "transactions": [
    {
      "hash": "0x331a3834b1c69834b28ffeadeca582a363e63d6aaba3d8303749ae7917bd6d5c",
      "transactionType": "CALL",
      "contractName": "MainVault",
      "contractAddress": "0x5f87AE2b5B978FDF21A5495518967e7F3d89EA23",
      "function": "setMainPayment(address)",
      "arguments": [
        "0xfc0d2439D12A501fc5071b871740b8A0430f1133"
      ],
      "transaction": {
        "type": "0x02",
        "from": "0x1cb30cb181d7854f91c2410bd037e6f42130e860",
        "to": "0x5f87ae2b5b978fdf21a5495518967e7f3d89ea23",
        "gas": "0xfed0",
        "value": "0x0",
        "data": "0x3674e6d5000000000000000000000000fc0d2439d12a501fc5071b871740b8a0430f1133",
        "nonce": "0x2a6",
        "accessList": []
      },
      "additionalContracts": [],
      "isFixedGasLimit": false
    }
  ],
  "receipts": [
    {
      "transactionHash": "0x331a3834b1c69834b28ffeadeca582a363e63d6aaba3d8303749ae7917bd6d5c",
      "transactionIndex": "0x30",
      "blockHash": "0xa8dac58d117f809d88f60c2cd1b3f8d96d507449f778d2190518fdfec8d3e8a3",
      "blockNumber": "0x4e3fdb",
      "from": "0x1Cb30cb181D7854F91c2410BD037E6F42130e860",
      "to": "0x5f87AE2b5B978FDF21A5495518967e7F3d89EA23",
      "cumulativeGasUsed": "0x4799fa",
      "gasUsed": "0xb87c",
      "contractAddress": null,
      "logs": [
        {
          "address": "0x5f87AE2b5B978FDF21A5495518967e7F3d89EA23",
          "topics": [
            "0x4c070d2bd28acbebea1baca2a0a570d95bcbc30dee9a07c8218065ad38a400fb"
          ],
          "data": "0x000000000000000000000000fc0d2439d12a501fc5071b871740b8a0430f1133",
          "blockHash": "0xa8dac58d117f809d88f60c2cd1b3f8d96d507449f778d2190518fdfec8d3e8a3",
          "blockNumber": "0x4e3fdb",
          "transactionHash": "0x331a3834b1c69834b28ffeadeca582a363e63d6aaba3d8303749ae7917bd6d5c",
          "transactionIndex": "0x30",
          "logIndex": "0x53",
          "removed": false
        }
      ],
      "status": "0x1",
      "logsBloom": "0x00000000000000000000000000000000000000000000000000000000040000000000000000000000000000000000000000000000000004000000000000000000000000000000000000000000000000000000000000000000000000000000000000000000000000000000000000000000000000000000000000000000000000000000000000000000000000000000000000000000002000000000000000000000000000000000000000000000000000000000000000000000000000000000000000000000000000000000000000000000000080000000000000000000140000000000000000000000000000000000000000000000000000000000000000000000",
      "type": "0x2",
      "effectiveGasPrice": "0xeb846a54"
    }
  ],
  "libraries": [],
  "pending": [],
  "returns": {},
  "timestamp": 1705860544,
  "chain": 11155111,
  "multi": false,
  "commit": "581e935"
}