{
  "transactions": [
    {
      "hash": "0x634f70a3b9f1a23cdfe0052fec521f185ffdae03c0d8506cef6a555ac46366aa",
      "transactionType": "CALL",
      "contractName": "TestGHO",
      "contractAddress": "0xBdD9c513Be2514F83B72761503F0be2134ec6A1a",
      "function": "mint(address,uint256)",
      "arguments": [
        "0x1Cb30cb181D7854F91c2410BD037E6F42130e860",
        "10000000000000000000000"
      ],
      "transaction": {
        "type": "0x02",
        "from": "0x1cb30cb181d7854f91c2410bd037e6f42130e860",
        "to": "0xbdd9c513be2514f83b72761503f0be2134ec6a1a",
        "gas": "0x113fd",
        "value": "0x0",
        "data": "0x40c10f190000000000000000000000001cb30cb181d7854f91c2410bd037e6f42130e86000000000000000000000000000000000000000000000021e19e0c9bab2400000",
        "nonce": "0x21c",
        "accessList": []
      },
      "additionalContracts": [],
      "isFixedGasLimit": false
    },
    {
      "hash": "0x24676a5b63fc3231d9e426f2e3423ca3d3639e08be97b6f6af1edf4ead3f53a1",
      "transactionType": "CALL",
      "contractName": "TestGHO",
      "contractAddress": "0xBdD9c513Be2514F83B72761503F0be2134ec6A1a",
      "function": "mint(address,uint256)",
      "arguments": [
        "0xa60f738a60BCA515Ac529b7335EC7CB2eE3891d2",
        "10000000000000000000000"
      ],
      "transaction": {
        "type": "0x02",
        "from": "0x1cb30cb181d7854f91c2410bd037e6f42130e860",
        "to": "0xbdd9c513be2514f83b72761503f0be2134ec6a1a",
        "gas": "0xb7ba",
        "value": "0x0",
        "data": "0x40c10f19000000000000000000000000a60f738a60bca515ac529b7335ec7cb2ee3891d200000000000000000000000000000000000000000000021e19e0c9bab2400000",
        "nonce": "0x21d",
        "accessList": []
      },
      "additionalContracts": [],
      "isFixedGasLimit": false
    },
    {
      "hash": "0xd3cbfac913b40c956307e59e48f526f214728ac03704232d6a4401b303221bba",
      "transactionType": "CALL",
      "contractName": "TestGHO",
      "contractAddress": "0xBdD9c513Be2514F83B72761503F0be2134ec6A1a",
      "function": "mint(address,uint256)",
      "arguments": [
        "0xdDCc06f98A7C71Ab602b8247d540dA5BD8f5D2A2",
        "10000000000000000000000"
      ],
      "transaction": {
        "type": "0x02",
        "from": "0x1cb30cb181d7854f91c2410bd037e6f42130e860",
        "to": "0xbdd9c513be2514f83b72761503f0be2134ec6a1a",
        "gas": "0xb7ba",
        "value": "0x0",
        "data": "0x40c10f19000000000000000000000000ddcc06f98a7c71ab602b8247d540da5bd8f5d2a200000000000000000000000000000000000000000000021e19e0c9bab2400000",
        "nonce": "0x21e",
        "accessList": []
      },
      "additionalContracts": [],
      "isFixedGasLimit": false
    },
    {
      "hash": "0xbf5d9a46431d6c2186a0da30cd379f7dfcf182649ffcb2c873cb84269b35bade",
      "transactionType": "CALL",
      "contractName": "TestGHO",
      "contractAddress": "0xBdD9c513Be2514F83B72761503F0be2134ec6A1a",
      "function": "mint(address,uint256)",
      "arguments": [
        "0xAE5c72E8dE74AdB50942ecE179e0dE27A8Cab61F",
        "10000000000000000000000"
      ],
      "transaction": {
        "type": "0x02",
        "from": "0x1cb30cb181d7854f91c2410bd037e6f42130e860",
        "to": "0xbdd9c513be2514f83b72761503f0be2134ec6a1a",
        "gas": "0x113fd",
        "value": "0x0",
        "data": "0x40c10f19000000000000000000000000ae5c72e8de74adb50942ece179e0de27a8cab61f00000000000000000000000000000000000000000000021e19e0c9bab2400000",
        "nonce": "0x21f",
        "accessList": []
      },
      "additionalContracts": [],
      "isFixedGasLimit": false
    }
  ],
  "receipts": [
    {
      "transactionHash": "0x634f70a3b9f1a23cdfe0052fec521f185ffdae03c0d8506cef6a555ac46366aa",
      "transactionIndex": "0x1b",
      "blockHash": "0xe279f1d04402bea653274a0dde36c8aa23c140f4e6273f91bb2864d819b9a47b",
      "blockNumber": "0x4e2445",
      "from": "0x1Cb30cb181D7854F91c2410BD037E6F42130e860",
      "to": "0xBdD9c513Be2514F83B72761503F0be2134ec6A1a",
      "cumulativeGasUsed": "0x1c0834",
      "gasUsed": "0xc7d0",
      "contractAddress": null,
      "logs": [
        {
          "address": "0xBdD9c513Be2514F83B72761503F0be2134ec6A1a",
          "topics": [
            "0xddf252ad1be2c89b69c2b068fc378daa952ba7f163c4a11628f55a4df523b3ef",
            "0x0000000000000000000000000000000000000000000000000000000000000000",
            "0x0000000000000000000000001cb30cb181d7854f91c2410bd037e6f42130e860"
          ],
          "data": "0x00000000000000000000000000000000000000000000021e19e0c9bab2400000",
          "blockHash": "0xe279f1d04402bea653274a0dde36c8aa23c140f4e6273f91bb2864d819b9a47b",
          "blockNumber": "0x4e2445",
          "transactionHash": "0x634f70a3b9f1a23cdfe0052fec521f185ffdae03c0d8506cef6a555ac46366aa",
          "transactionIndex": "0x1b",
          "logIndex": "0x1f",
          "removed": false
        }
      ],
      "status": "0x1",
      "logsBloom": "0x02002000000000000000000000000000000000000000000000000000000000000000000000000000000000000000000000000000000000000000000001000000000000000000000000000008000000000000000000000020000000000000000000000000020000000000000000000800000000000000000000000010000000000000000000000000000000000000000000000000000000000000000000000000000000000000000000000000000000000000000000000000000000000000000000000002000000000000000000000000000000000004000000000000010020000000000000000000000000000000000000000000000000000000000000000000",
      "type": "0x2",
      "effectiveGasPrice": "0x21c8e7076"
    },
    {
      "transactionHash": "0x24676a5b63fc3231d9e426f2e3423ca3d3639e08be97b6f6af1edf4ead3f53a1",
      "transactionIndex": "0x1c",
      "blockHash": "0xe279f1d04402bea653274a0dde36c8aa23c140f4e6273f91bb2864d819b9a47b",
      "blockNumber": "0x4e2445",
      "from": "0x1Cb30cb181D7854F91c2410BD037E6F42130e860",
      "to": "0xBdD9c513Be2514F83B72761503F0be2134ec6A1a",
      "cumulativeGasUsed": "0x1c8d38",
      "gasUsed": "0x8504",
      "contractAddress": null,
      "logs": [
        {
          "address": "0xBdD9c513Be2514F83B72761503F0be2134ec6A1a",
          "topics": [
            "0xddf252ad1be2c89b69c2b068fc378daa952ba7f163c4a11628f55a4df523b3ef",
            "0x0000000000000000000000000000000000000000000000000000000000000000",
            "0x000000000000000000000000a60f738a60bca515ac529b7335ec7cb2ee3891d2"
          ],
          "data": "0x00000000000000000000000000000000000000000000021e19e0c9bab2400000",
          "blockHash": "0xe279f1d04402bea653274a0dde36c8aa23c140f4e6273f91bb2864d819b9a47b",
          "blockNumber": "0x4e2445",
          "transactionHash": "0x24676a5b63fc3231d9e426f2e3423ca3d3639e08be97b6f6af1edf4ead3f53a1",
          "transactionIndex": "0x1c",
          "logIndex": "0x20",
          "removed": false
        }
      ],
      "status": "0x1",
      "logsBloom": "0x00000000000000000000000000000000000000000000000000000000080000000000000000080000000000000000000000000000000000000000000001000000000000000000000000000008000000000000000000000020000000000000000000000000020000000000010000000800000000000000000000000010000000000000000000000000000000000000000000000000000000000000000000000000000000000000000000000000000000000000000000000000000000000000000000000002000000000000000000000000000000000000000000000000010020000000000000000000000000000000000000000000000000000000000000000000",
      "type": "0x2",
      "effectiveGasPrice": "0x21c8e7076"
    },
    {
      "transactionHash": "0xd3cbfac913b40c956307e59e48f526f214728ac03704232d6a4401b303221bba",
      "transactionIndex": "0x1d",
      "blockHash": "0xe279f1d04402bea653274a0dde36c8aa23c140f4e6273f91bb2864d819b9a47b",
      "blockNumber": "0x4e2445",
      "from": "0x1Cb30cb181D7854F91c2410BD037E6F42130e860",
      "to": "0xBdD9c513Be2514F83B72761503F0be2134ec6A1a",
      "cumulativeGasUsed": "0x1d123c",
      "gasUsed": "0x8504",
      "contractAddress": null,
      "logs": [
        {
          "address": "0xBdD9c513Be2514F83B72761503F0be2134ec6A1a",
          "topics": [
            "0xddf252ad1be2c89b69c2b068fc378daa952ba7f163c4a11628f55a4df523b3ef",
            "0x0000000000000000000000000000000000000000000000000000000000000000",
            "0x000000000000000000000000ddcc06f98a7c71ab602b8247d540da5bd8f5d2a2"
          ],
          "data": "0x00000000000000000000000000000000000000000000021e19e0c9bab2400000",
          "blockHash": "0xe279f1d04402bea653274a0dde36c8aa23c140f4e6273f91bb2864d819b9a47b",
          "blockNumber": "0x4e2445",
          "transactionHash": "0xd3cbfac913b40c956307e59e48f526f214728ac03704232d6a4401b303221bba",
          "transactionIndex": "0x1d",
          "logIndex": "0x21",
          "removed": false
        }
      ],
      "status": "0x1",
      "logsBloom": "0x00000000000000000000000000000000000000000000000000000000000000000000000000000000000000000000000000000000000000000000000001000000000000000000000000000008000000000000000000000020000000000000004000000000020000000020000000000800000000000000000000000010000000000000000000000000000000000000000000000000000000000000000000000000000000000000000000000000000000000000000000000000000000000000000000000002000000000000000000000000000000000000000000000040010020000000000000000000000000000000000000000000000000000000000000000000",
      "type": "0x2",
      "effectiveGasPrice": "0x21c8e7076"
    },
    {
      "transactionHash": "0xbf5d9a46431d6c2186a0da30cd379f7dfcf182649ffcb2c873cb84269b35bade",
      "transactionIndex": "0x1e",
      "blockHash": "0xe279f1d04402bea653274a0dde36c8aa23c140f4e6273f91bb2864d819b9a47b",
      "blockNumber": "0x4e2445",
      "from": "0x1Cb30cb181D7854F91c2410BD037E6F42130e860",
      "to": "0xBdD9c513Be2514F83B72761503F0be2134ec6A1a",
      "cumulativeGasUsed": "0x1dda0c",
      "gasUsed": "0xc7d0",
      "contractAddress": null,
      "logs": [
        {
          "address": "0xBdD9c513Be2514F83B72761503F0be2134ec6A1a",
          "topics": [
            "0xddf252ad1be2c89b69c2b068fc378daa952ba7f163c4a11628f55a4df523b3ef",
            "0x0000000000000000000000000000000000000000000000000000000000000000",
            "0x000000000000000000000000ae5c72e8de74adb50942ece179e0de27a8cab61f"
          ],
          "data": "0x00000000000000000000000000000000000000000000021e19e0c9bab2400000",
          "blockHash": "0xe279f1d04402bea653274a0dde36c8aa23c140f4e6273f91bb2864d819b9a47b",
          "blockNumber": "0x4e2445",
          "transactionHash": "0xbf5d9a46431d6c2186a0da30cd379f7dfcf182649ffcb2c873cb84269b35bade",
          "transactionIndex": "0x1e",
          "logIndex": "0x22",
          "removed": false
        }
      ],
      "status": "0x1",
      "logsBloom": "0x00000000000000000000000000000000000000000000000400000000000000000000000000000000000000000000000000000000000000000000000001000000000000000000000000000008000000000000000000000020000000000000000000000000020000000000000000000800000000000000000000000010000000000000000000000000000000000000000000000000000000000000000000000000000000000000000000000000000000000000000000000000000000000000000000000002000000000000000000000000000000800000000000000000010020000000000000000000000000000000000000000004000000000000000000000000",
      "type": "0x2",
      "effectiveGasPrice": "0x21c8e7076"
    }
  ],
  "libraries": [],
  "pending": [],
  "returns": {},
  "timestamp": 1705762923,
  "chain": 11155111,
  "multi": false,
  "commit": "52c8f25"
}