{
  "transactions": [
    {
      "hash": "0x9d26a47a81f34341d5deee100aa7621814ebfc59557be90c77a60e11a84a6956",
      "transactionType": "CALL",
      "contractName": "TestGHO",
      "contractAddress": "0xBdD9c513Be2514F83B72761503F0be2134ec6A1a",
      "function": "mint(address,uint256)",
      "arguments": [
        "0x1Cb30cb181D7854F91c2410BD037E6F42130e860",
        "10000000000000000000000"
      ],
      "transaction": {
        "type": "0x02",
        "from": "0x1cb30cb181d7854f91c2410bd037e6f42130e860",
        "to": "0xbdd9c513be2514f83b72761503f0be2134ec6a1a",
        "gas": "0x17040",
        "value": "0x0",
        "data": "0x40c10f190000000000000000000000001cb30cb181d7854f91c2410bd037e6f42130e86000000000000000000000000000000000000000000000021e19e0c9bab2400000",
        "nonce": "0x211",
        "accessList": []
      },
      "additionalContracts": [],
      "isFixedGasLimit": false
    },
    {
      "hash": "0xa990e6b6574c23044441d4691b2abf8141300175dc047e17019d41d5ce0e3374",
      "transactionType": "CALL",
      "contractName": "TestGHO",
      "contractAddress": "0xBdD9c513Be2514F83B72761503F0be2134ec6A1a",
      "function": "mint(address,uint256)",
      "arguments": [
        "0xa60f738a60BCA515Ac529b7335EC7CB2eE3891d2",
        "10000000000000000000000"
      ],
      "transaction": {
        "type": "0x02",
        "from": "0x1cb30cb181d7854f91c2410bd037e6f42130e860",
        "to": "0xbdd9c513be2514f83b72761503f0be2134ec6a1a",
        "gas": "0x113fd",
        "value": "0x0",
        "data": "0x40c10f19000000000000000000000000a60f738a60bca515ac529b7335ec7cb2ee3891d200000000000000000000000000000000000000000000021e19e0c9bab2400000",
        "nonce": "0x212",
        "accessList": []
      },
      "additionalContracts": [],
      "isFixedGasLimit": false
    },
    {
      "hash": "0x4c231d2f243a144a2f1fd33a10b8b17564dad8c842aa5fbc0b6fbf5e7dac6674",
      "transactionType": "CALL",
      "contractName": "TestGHO",
      "contractAddress": "0xBdD9c513Be2514F83B72761503F0be2134ec6A1a",
      "function": "mint(address,uint256)",
      "arguments": [
        "0xdDCc06f98A7C71Ab602b8247d540dA5BD8f5D2A2",
        "10000000000000000000000"
      ],
      "transaction": {
        "type": "0x02",
        "from": "0x1cb30cb181d7854f91c2410bd037e6f42130e860",
        "to": "0xbdd9c513be2514f83b72761503f0be2134ec6a1a",
        "gas": "0x113fd",
        "value": "0x0",
        "data": "0x40c10f19000000000000000000000000ddcc06f98a7c71ab602b8247d540da5bd8f5d2a200000000000000000000000000000000000000000000021e19e0c9bab2400000",
        "nonce": "0x213",
        "accessList": []
      },
      "additionalContracts": [],
      "isFixedGasLimit": false
    }
  ],
  "receipts": [],
  "libraries": [],
  "pending": [
    "0x9d26a47a81f34341d5deee100aa7621814ebfc59557be90c77a60e11a84a6956",
    "0xa990e6b6574c23044441d4691b2abf8141300175dc047e17019d41d5ce0e3374",
    "0x4c231d2f243a144a2f1fd33a10b8b17564dad8c842aa5fbc0b6fbf5e7dac6674"
  ],
  "returns": {},
  "timestamp": 1705693012,
  "chain": 11155111,
  "multi": false,
  "commit": "41a6034"
}