{
  "transactions": [
    {
      "hash": "0x2f54a608996bb627336a068f87a82a119deb9f7504eee288352f0a8104ef12fb",
      "transactionType": "CALL",
      "contractName": "TestGHO",
      "contractAddress": "0xBdD9c513Be2514F83B72761503F0be2134ec6A1a",
      "function": "mint(address,uint256)",
      "arguments": [
        "0x1Cb30cb181D7854F91c2410BD037E6F42130e860",
        "10000000000000000000000"
      ],
      "transaction": {
        "type": "0x02",
        "from": "0x1cb30cb181d7854f91c2410bd037e6f42130e860",
        "to": "0xbdd9c513be2514f83b72761503f0be2134ec6a1a",
        "gas": "0x113fd",
        "value": "0x0",
        "data": "0x40c10f190000000000000000000000001cb30cb181d7854f91c2410bd037e6f42130e86000000000000000000000000000000000000000000000021e19e0c9bab2400000",
        "nonce": "0x252",
        "accessList": []
      },
      "additionalContracts": [],
      "isFixedGasLimit": false
    }
  ],
  "receipts": [
    {
      "transactionHash": "0x2f54a608996bb627336a068f87a82a119deb9f7504eee288352f0a8104ef12fb",
      "transactionIndex": "0x15",
      "blockHash": "0x5165296872cddf2eff83d3a13b967ce95d53e7e38d3a9d7d767318009f38436f",
      "blockNumber": "0x4e3213",
      "from": "0x1Cb30cb181D7854F91c2410BD037E6F42130e860",
      "to": "0xBdD9c513Be2514F83B72761503F0be2134ec6A1a",
      "cumulativeGasUsed": "0x11bcfd",
      "gasUsed": "0xc7d0",
      "contractAddress": null,
      "logs": [
        {
          "address": "0xBdD9c513Be2514F83B72761503F0be2134ec6A1a",
          "topics": [
            "0xddf252ad1be2c89b69c2b068fc378daa952ba7f163c4a11628f55a4df523b3ef",
            "0x0000000000000000000000000000000000000000000000000000000000000000",
            "0x0000000000000000000000001cb30cb181d7854f91c2410bd037e6f42130e860"
          ],
          "data": "0x00000000000000000000000000000000000000000000021e19e0c9bab2400000",
          "blockHash": "0x5165296872cddf2eff83d3a13b967ce95d53e7e38d3a9d7d767318009f38436f",
          "blockNumber": "0x4e3213",
          "transactionHash": "0x2f54a608996bb627336a068f87a82a119deb9f7504eee288352f0a8104ef12fb",
          "transactionIndex": "0x15",
          "logIndex": "0xb",
          "removed": false
        }
      ],
      "status": "0x1",
      "logsBloom": "0x02002000000000000000000000000000000000000000000000000000000000000000000000000000000000000000000000000000000000000000000001000000000000000000000000000008000000000000000000000020000000000000000000000000020000000000000000000800000000000000000000000010000000000000000000000000000000000000000000000000000000000000000000000000000000000000000000000000000000000000000000000000000000000000000000000002000000000000000000000000000000000004000000000000010020000000000000000000000000000000000000000000000000000000000000000000",
      "type": "0x2",
      "effectiveGasPrice": "0xb8d6bc16"
    }
  ],
  "libraries": [],
  "pending": [],
  "returns": {},
  "timestamp": 1705812338,
  "chain": 11155111,
  "multi": false,
  "commit": "b80610e"
}