{
  "transactions": [
    {
      "hash": "0x331a3834b1c69834b28ffeadeca582a363e63d6aaba3d8303749ae7917bd6d5c",
      "transactionType": "CALL",
      "contractName": "MainVault",
      "contractAddress": "0x5f87AE2b5B978FDF21A5495518967e7F3d89EA23",
      "function": "setMainPayment(address)",
      "arguments": [
        "0xfc0d2439D12A501fc5071b871740b8A0430f1133"
      ],
      "transaction": {
        "type": "0x02",
        "from": "0x1cb30cb181d7854f91c2410bd037e6f42130e860",
        "to": "0x5f87ae2b5b978fdf21a5495518967e7f3d89ea23",
        "gas": "0xfed0",
        "value": "0x0",
        "data": "0x3674e6d5000000000000000000000000fc0d2439d12a501fc5071b871740b8a0430f1133",
        "nonce": "0x2a6",
        "accessList": []
      },
      "additionalContracts": [],
      "isFixedGasLimit": false
    }
  ],
  "receipts": [],
  "libraries": [],
  "pending": [
    "0x331a3834b1c69834b28ffeadeca582a363e63d6aaba3d8303749ae7917bd6d5c"
  ],
  "returns": {},
  "timestamp": 1705860518,
  "chain": 11155111,
  "multi": false,
  "commit": "581e935"
}