{
  "transactions": [
    {
      "hash": "0x968847ec9aaa8c587379305ab5f8da3c6694da595427908695d433e1b36f16a7",
      "transactionType": "CALL",
      "contractName": "MainVault",
      "contractAddress": "0x510075afb658EE8b1D3863689ff33Fea8DeA38f5",
      "function": "setMainPayment(address)",
      "arguments": [
        "0x082422192db0651080b486B9B734370E4162242B"
      ],
      "transaction": {
        "type": "0x02",
        "from": "0x1cb30cb181d7854f91c2410bd037e6f42130e860",
        "to": "0x510075afb658ee8b1d3863689ff33fea8dea38f5",
        "gas": "0xfed0",
        "value": "0x0",
        "data": "0x3674e6d5000000000000000000000000082422192db0651080b486b9b734370e4162242b",
        "nonce": "0x29b",
        "accessList": []
      },
      "additionalContracts": [],
      "isFixedGasLimit": false
    }
  ],
  "receipts": [
    {
      "transactionHash": "0x968847ec9aaa8c587379305ab5f8da3c6694da595427908695d433e1b36f16a7",
      "transactionIndex": "0x1d",
      "blockHash": "0xb2cc6c46cf502da4453f96b5e57a754744a95f65ae4562b6e7817dac534ec33f",
      "blockNumber": "0x4e3f87",
      "from": "0x1Cb30cb181D7854F91c2410BD037E6F42130e860",
      "to": "0x510075afb658EE8b1D3863689ff33Fea8DeA38f5",
      "cumulativeGasUsed": "0x32b559",
      "gasUsed": "0xb87c",
      "contractAddress": null,
      "logs": [
        {
          "address": "0x510075afb658EE8b1D3863689ff33Fea8DeA38f5",
          "topics": [
            "0x4c070d2bd28acbebea1baca2a0a570d95bcbc30dee9a07c8218065ad38a400fb"
          ],
          "data": "0x000000000000000000000000082422192db0651080b486b9b734370e4162242b",
          "blockHash": "0xb2cc6c46cf502da4453f96b5e57a754744a95f65ae4562b6e7817dac534ec33f",
          "blockNumber": "0x4e3f87",
          "transactionHash": "0x968847ec9aaa8c587379305ab5f8da3c6694da595427908695d433e1b36f16a7",
          "transactionIndex": "0x1d",
          "logIndex": "0x23",
          "removed": false
        }
      ],
      "status": "0x1",
      "logsBloom": "0x00000000000000000000000000000000000000000000000000000000040000000000000000000000000000000000000000000000000004000000000000000000000000000400000000000000000000000000000000000000000000000000000000000000000000000000000000000000000000000000000000000000000000000000000000000000000000000000000000000000002000000000000000000000000000000000000000000000000000000000000000000000000000000000000000000000000000000000000020000000000000010000000000000000000000000000000000000000000000000000000000000000000000000000000000000000",
      "type": "0x2",
      "effectiveGasPrice": "0x146b299ae"
    }
  ],
  "libraries": [],
  "pending": [],
  "returns": {},
  "timestamp": 1705859344,
  "chain": 11155111,
  "multi": false,
  "commit": "614f306"
}