{
  "transactions": [
    {
      "hash": "0x72664e6327c9e897238bd67069fc3f95a463ca66d473b911bbeb4a36ad2f019a",
      "transactionType": "CALL",
      "contractName": "TestGHO",
      "contractAddress": "0xBdD9c513Be2514F83B72761503F0be2134ec6A1a",
      "function": "mint(address,uint256)",
      "arguments": [
        "0x4d2cE66107a44C349036adF33877865a7b6B0d49",
        "10000000000000000000000"
      ],
      "transaction": {
        "type": "0x02",
        "from": "0x1cb30cb181d7854f91c2410bd037e6f42130e860",
        "to": "0xbdd9c513be2514f83b72761503f0be2134ec6a1a",
        "gas": "0x113fd",
        "value": "0x0",
        "data": "0x40c10f190000000000000000000000004d2ce66107a44c349036adf33877865a7b6b0d4900000000000000000000000000000000000000000000021e19e0c9bab2400000",
        "nonce": "0x293",
        "accessList": []
      },
      "additionalContracts": [],
      "isFixedGasLimit": false
    }
  ],
  "receipts": [],
  "libraries": [],
  "pending": [
    "0x72664e6327c9e897238bd67069fc3f95a463ca66d473b911bbeb4a36ad2f019a"
  ],
  "returns": {},
  "timestamp": 1705858759,
  "chain": 11155111,
  "multi": false,
  "commit": "b7b0b1c"
}