{
  "transactions": [
    {
      "hash": "0xb2fbbd878c7b72a0f955d5981ad38355988cb47313f5d637b3a6b6913f0c2770",
      "transactionType": "CALL",
      "contractName": "TestGHOPassport",
      "contractAddress": "0x17206705E75249B2Cb885423937e88Fc8f068338",
      "function": "mint(address,uint256)",
      "arguments": [
        "0xdDCc06f98A7C71Ab602b8247d540dA5BD8f5D2A2",
        "1"
      ],
      "transaction": {
        "type": "0x02",
        "from": "0x1cb30cb181d7854f91c2410bd037e6f42130e860",
        "to": "0x17206705e75249b2cb885423937e88fc8f068338",
        "gas": "0x17307",
        "value": "0x0",
        "data": "0x40c10f19000000000000000000000000ddcc06f98a7c71ab602b8247d540da5bd8f5d2a20000000000000000000000000000000000000000000000000000000000000001",
        "nonce": "0x214",
        "accessList": []
      },
      "additionalContracts": [],
      "isFixedGasLimit": false
    },
    {
      "hash": "0x97221497797fee990f3d96a99b6e38523d09754f193d40a854c1c2a4d6f21ef0",
      "transactionType": "CALL",
      "contractName": "TestGHOPartnerPassport",
      "contractAddress": "0xEa9b91D90ff3e904EcF230296D88c30c78E1E4c8",
      "function": "mint(address,uint256)",
      "arguments": [
        "0xa60f738a60BCA515Ac529b7335EC7CB2eE3891d2",
        "1"
      ],
      "transaction": {
        "type": "0x02",
        "from": "0x1cb30cb181d7854f91c2410bd037e6f42130e860",
        "to": "0xea9b91d90ff3e904ecf230296d88c30c78e1e4c8",
        "gas": "0x17307",
        "value": "0x0",
        "data": "0x40c10f19000000000000000000000000a60f738a60bca515ac529b7335ec7cb2ee3891d20000000000000000000000000000000000000000000000000000000000000001",
        "nonce": "0x215",
        "accessList": []
      },
      "additionalContracts": [],
      "isFixedGasLimit": false
    }
  ],
  "receipts": [
    {
      "transactionHash": "0xb2fbbd878c7b72a0f955d5981ad38355988cb47313f5d637b3a6b6913f0c2770",
      "transactionIndex": "0x12",
      "blockHash": "0x96f4e2bd192b32dcdde7d3f4a0a55cb058ed32e9943f010aa8b97ee0b82228ba",
      "blockNumber": "0x4e1103",
      "from": "0x1Cb30cb181D7854F91c2410BD037E6F42130e860",
      "to": "0x17206705E75249B2Cb885423937e88Fc8f068338",
      "cumulativeGasUsed": "0x14611d",
      "gasUsed": "0x10c9f",
      "contractAddress": null,
      "logs": [
        {
          "address": "0x17206705E75249B2Cb885423937e88Fc8f068338",
          "topics": [
            "0xddf252ad1be2c89b69c2b068fc378daa952ba7f163c4a11628f55a4df523b3ef",
            "0x0000000000000000000000000000000000000000000000000000000000000000",
            "0x000000000000000000000000ddcc06f98a7c71ab602b8247d540da5bd8f5d2a2",
            "0x0000000000000000000000000000000000000000000000000000000000000001"
          ],
          "data": "0x",
          "blockHash": "0x96f4e2bd192b32dcdde7d3f4a0a55cb058ed32e9943f010aa8b97ee0b82228ba",
          "blockNumber": "0x4e1103",
          "transactionHash": "0xb2fbbd878c7b72a0f955d5981ad38355988cb47313f5d637b3a6b6913f0c2770",
          "transactionIndex": "0x12",
          "logIndex": "0x11",
          "removed": false
        }
      ],
      "status": "0x1",
      "logsBloom": "0x00000000000000000000000000001000000000000000000000000000000000000000000000000000000000000000000000000000000000000000000000040000000000000000000000000008000000000000000000040000000000000000004000000000020000000020000000000880000000000000000000000010000000000000000000000000000000000000000000000000000000000000000000000000000000000000000000000000000002000000000000000000000000000000000000000002000000000000000000000000000000000000000000000040000060000000000000000000000000000000000000000000000000000000000000000000",
      "type": "0x2",
      "effectiveGasPrice": "0xf85d905a6"
    },
    {
      "transactionHash": "0x97221497797fee990f3d96a99b6e38523d09754f193d40a854c1c2a4d6f21ef0",
      "transactionIndex": "0x13",
      "blockHash": "0x96f4e2bd192b32dcdde7d3f4a0a55cb058ed32e9943f010aa8b97ee0b82228ba",
      "blockNumber": "0x4e1103",
      "from": "0x1Cb30cb181D7854F91c2410BD037E6F42130e860",
      "to": "0xEa9b91D90ff3e904EcF230296D88c30c78E1E4c8",
      "cumulativeGasUsed": "0x156dbc",
      "gasUsed": "0x10c9f",
      "contractAddress": null,
      "logs": [
        {
          "address": "0xEa9b91D90ff3e904EcF230296D88c30c78E1E4c8",
          "topics": [
            "0xddf252ad1be2c89b69c2b068fc378daa952ba7f163c4a11628f55a4df523b3ef",
            "0x0000000000000000000000000000000000000000000000000000000000000000",
            "0x000000000000000000000000a60f738a60bca515ac529b7335ec7cb2ee3891d2",
            "0x0000000000000000000000000000000000000000000000000000000000000001"
          ],
          "data": "0x",
          "blockHash": "0x96f4e2bd192b32dcdde7d3f4a0a55cb058ed32e9943f010aa8b97ee0b82228ba",
          "blockNumber": "0x4e1103",
          "transactionHash": "0x97221497797fee990f3d96a99b6e38523d09754f193d40a854c1c2a4d6f21ef0",
          "transactionIndex": "0x13",
          "logIndex": "0x12",
          "removed": false
        }
      ],
      "status": "0x1",
      "logsBloom": "0x00000000000000000000000000000000000000000000000000000000080000000000000000080000000000020000000000000000000000000000008000040000000000000000000000010008000000000000000000040000000000000000000000000000020000000000010000000800000000000000000000000010000000000000000000000000000000000000000000000000000000000000000000000000000000000000000000000000000000000000000000000000000000000000000000000002000000000000000000000000000000000000000000000000000060000000000000000000000000000000000000000000000000000000000000000000",
      "type": "0x2",
      "effectiveGasPrice": "0xf85d905a6"
    }
  ],
  "libraries": [],
  "pending": [],
  "returns": {},
  "timestamp": 1705693886,
  "chain": 11155111,
  "multi": false,
  "commit": "41a6034"
}