{
  "transactions": [
    {
      "hash": "0x0ec8e9fb793773a85da28e089ed106f7130c9cc77faef335d436b8a3c016a432",
      "transactionType": "CALL",
      "contractName": "TestGHO",
      "contractAddress": "0xBdD9c513Be2514F83B72761503F0be2134ec6A1a",
      "function": "mint(address,uint256)",
      "arguments": [
        "0x4d2cE66107a44C349036adF33877865a7b6B0d49",
        "10000000000000000000000"
      ],
      "transaction": {
        "type": "0x02",
        "from": "0x1cb30cb181d7854f91c2410bd037e6f42130e860",
        "to": "0xbdd9c513be2514f83b72761503f0be2134ec6a1a",
        "gas": "0xb7ba",
        "value": "0x0",
        "data": "0x40c10f190000000000000000000000004d2ce66107a44c349036adf33877865a7b6b0d4900000000000000000000000000000000000000000000021e19e0c9bab2400000",
        "nonce": "0x29c",
        "accessList": []
      },
      "additionalContracts": [],
      "isFixedGasLimit": false
    }
  ],
  "receipts": [
    {
      "transactionHash": "0x0ec8e9fb793773a85da28e089ed106f7130c9cc77faef335d436b8a3c016a432",
      "transactionIndex": "0x28",
      "blockHash": "0x4649250cee3d540133c0cf86736c7dfd409a08badfbe4d612351bc264df1f986",
      "blockNumber": "0x4e3fa5",
      "from": "0x1Cb30cb181D7854F91c2410BD037E6F42130e860",
      "to": "0xBdD9c513Be2514F83B72761503F0be2134ec6A1a",
      "cumulativeGasUsed": "0x27071c",
      "gasUsed": "0x8504",
      "contractAddress": null,
      "logs": [
        {
          "address": "0xBdD9c513Be2514F83B72761503F0be2134ec6A1a",
          "topics": [
            "0xddf252ad1be2c89b69c2b068fc378daa952ba7f163c4a11628f55a4df523b3ef",
            "0x0000000000000000000000000000000000000000000000000000000000000000",
            "0x0000000000000000000000004d2ce66107a44c349036adf33877865a7b6b0d49"
          ],
          "data": "0x00000000000000000000000000000000000000000000021e19e0c9bab2400000",
          "blockHash": "0x4649250cee3d540133c0cf86736c7dfd409a08badfbe4d612351bc264df1f986",
          "blockNumber": "0x4e3fa5",
          "transactionHash": "0x0ec8e9fb793773a85da28e089ed106f7130c9cc77faef335d436b8a3c016a432",
          "transactionIndex": "0x28",
          "logIndex": "0x2b",
          "removed": false
        }
      ],
      "status": "0x1",
      "logsBloom": "0x00000000000000000000000000000000000000000000000000000000000000000000000000000010000000000000000000000000000000000000000001000000000000000000000000000008000000000000000000000020000000000000000000000000020000000000000000000800000000000000000000000010000000000000000000000000000000000000000000000000000000000000000000010000000000000000000000000000000000000000000000000080000000000000000000000002000000000000000000000000000000000000000000000000010020000000000000000000000000000000000000000000000000000000000000000000",
      "type": "0x2",
      "effectiveGasPrice": "0x11ed39134"
    }
  ],
  "libraries": [],
  "pending": [],
  "returns": {},
  "timestamp": 1705859766,
  "chain": 11155111,
  "multi": false,
  "commit": "ff594f9"
}