{
  "transactions": [
    {
      "hash": "0x634f70a3b9f1a23cdfe0052fec521f185ffdae03c0d8506cef6a555ac46366aa",
      "transactionType": "CALL",
      "contractName": "TestGHO",
      "contractAddress": "0xBdD9c513Be2514F83B72761503F0be2134ec6A1a",
      "function": "mint(address,uint256)",
      "arguments": [
        "0x1Cb30cb181D7854F91c2410BD037E6F42130e860",
        "10000000000000000000000"
      ],
      "transaction": {
        "type": "0x02",
        "from": "0x1cb30cb181d7854f91c2410bd037e6f42130e860",
        "to": "0xbdd9c513be2514f83b72761503f0be2134ec6a1a",
        "gas": "0x113fd",
        "value": "0x0",
        "data": "0x40c10f190000000000000000000000001cb30cb181d7854f91c2410bd037e6f42130e86000000000000000000000000000000000000000000000021e19e0c9bab2400000",
        "nonce": "0x21c",
        "accessList": []
      },
      "additionalContracts": [],
      "isFixedGasLimit": false
    },
    {
      "hash": "0x24676a5b63fc3231d9e426f2e3423ca3d3639e08be97b6f6af1edf4ead3f53a1",
      "transactionType": "CALL",
      "contractName": "TestGHO",
      "contractAddress": "0xBdD9c513Be2514F83B72761503F0be2134ec6A1a",
      "function": "mint(address,uint256)",
      "arguments": [
        "0xa60f738a60BCA515Ac529b7335EC7CB2eE3891d2",
        "10000000000000000000000"
      ],
      "transaction": {
        "type": "0x02",
        "from": "0x1cb30cb181d7854f91c2410bd037e6f42130e860",
        "to": "0xbdd9c513be2514f83b72761503f0be2134ec6a1a",
        "gas": "0xb7ba",
        "value": "0x0",
        "data": "0x40c10f19000000000000000000000000a60f738a60bca515ac529b7335ec7cb2ee3891d200000000000000000000000000000000000000000000021e19e0c9bab2400000",
        "nonce": "0x21d",
        "accessList": []
      },
      "additionalContracts": [],
      "isFixedGasLimit": false
    },
    {
      "hash": "0xd3cbfac913b40c956307e59e48f526f214728ac03704232d6a4401b303221bba",
      "transactionType": "CALL",
      "contractName": "TestGHO",
      "contractAddress": "0xBdD9c513Be2514F83B72761503F0be2134ec6A1a",
      "function": "mint(address,uint256)",
      "arguments": [
        "0xdDCc06f98A7C71Ab602b8247d540dA5BD8f5D2A2",
        "10000000000000000000000"
      ],
      "transaction": {
        "type": "0x02",
        "from": "0x1cb30cb181d7854f91c2410bd037e6f42130e860",
        "to": "0xbdd9c513be2514f83b72761503f0be2134ec6a1a",
        "gas": "0xb7ba",
        "value": "0x0",
        "data": "0x40c10f19000000000000000000000000ddcc06f98a7c71ab602b8247d540da5bd8f5d2a200000000000000000000000000000000000000000000021e19e0c9bab2400000",
        "nonce": "0x21e",
        "accessList": []
      },
      "additionalContracts": [],
      "isFixedGasLimit": false
    },
    {
      "hash": "0xbf5d9a46431d6c2186a0da30cd379f7dfcf182649ffcb2c873cb84269b35bade",
      "transactionType": "CALL",
      "contractName": "TestGHO",
      "contractAddress": "0xBdD9c513Be2514F83B72761503F0be2134ec6A1a",
      "function": "mint(address,uint256)",
      "arguments": [
        "0xAE5c72E8dE74AdB50942ecE179e0dE27A8Cab61F",
        "10000000000000000000000"
      ],
      "transaction": {
        "type": "0x02",
        "from": "0x1cb30cb181d7854f91c2410bd037e6f42130e860",
        "to": "0xbdd9c513be2514f83b72761503f0be2134ec6a1a",
        "gas": "0x113fd",
        "value": "0x0",
        "data": "0x40c10f19000000000000000000000000ae5c72e8de74adb50942ece179e0de27a8cab61f00000000000000000000000000000000000000000000021e19e0c9bab2400000",
        "nonce": "0x21f",
        "accessList": []
      },
      "additionalContracts": [],
      "isFixedGasLimit": false
    }
  ],
  "receipts": [],
  "libraries": [],
  "pending": [
    "0x634f70a3b9f1a23cdfe0052fec521f185ffdae03c0d8506cef6a555ac46366aa",
    "0x24676a5b63fc3231d9e426f2e3423ca3d3639e08be97b6f6af1edf4ead3f53a1",
    "0xd3cbfac913b40c956307e59e48f526f214728ac03704232d6a4401b303221bba",
    "0xbf5d9a46431d6c2186a0da30cd379f7dfcf182649ffcb2c873cb84269b35bade"
  ],
  "returns": {},
  "timestamp": 1705762908,
  "chain": 11155111,
  "multi": false,
  "commit": "52c8f25"
}