{
  "transactions": [
    {
      "hash": "0xcc8848789da13e30a9e12a3b6371a7c42b7e71b265a8999a0fe7dc796f97f658",
      "transactionType": "CALL",
      "contractName": "TestGHOPassport",
      "contractAddress": "0x17206705E75249B2Cb885423937e88Fc8f068338",
      "function": "mint(address,uint256)",
      "arguments": [
        "0x346e6fF1Ad873FF738D94cAbF8816FD9De5866B6",
        "4"
      ],
      "transaction": {
        "type": "0x02",
        "from": "0x1cb30cb181d7854f91c2410bd037e6f42130e860",
        "to": "0x17206705e75249b2cb885423937e88fc8f068338",
        "gas": "0x17307",
        "value": "0x0",
        "data": "0x40c10f19000000000000000000000000346e6ff1ad873ff738d94cabf8816fd9de5866b60000000000000000000000000000000000000000000000000000000000000004",
        "nonce": "0x261",
        "accessList": []
      },
      "additionalContracts": [],
      "isFixedGasLimit": false
    },
    {
      "hash": "0x43c7448c13e154256cc997e91f6d24e885d660c0899cc560ae2816ed5e3c1403",
      "transactionType": "CALL",
      "contractName": "TestGHOPartnerPassport",
      "contractAddress": "0xEa9b91D90ff3e904EcF230296D88c30c78E1E4c8",
      "function": "mint(address,uint256)",
      "arguments": [
        "0x346e6fF1Ad873FF738D94cAbF8816FD9De5866B6",
        "3"
      ],
      "transaction": {
        "type": "0x02",
        "from": "0x1cb30cb181d7854f91c2410bd037e6f42130e860",
        "to": "0xea9b91d90ff3e904ecf230296d88c30c78e1e4c8",
        "gas": "0x17307",
        "value": "0x0",
        "data": "0x40c10f19000000000000000000000000346e6ff1ad873ff738d94cabf8816fd9de5866b60000000000000000000000000000000000000000000000000000000000000003",
        "nonce": "0x262",
        "accessList": []
      },
      "additionalContracts": [],
      "isFixedGasLimit": false
    }
  ],
  "receipts": [],
  "libraries": [],
  "pending": [
    "0xcc8848789da13e30a9e12a3b6371a7c42b7e71b265a8999a0fe7dc796f97f658",
    "0x43c7448c13e154256cc997e91f6d24e885d660c0899cc560ae2816ed5e3c1403"
  ],
  "returns": {},
  "timestamp": 1705818908,
  "chain": 11155111,
  "multi": false,
  "commit": "c8c3d9a"
}