{
  "transactions": [
    {
      "hash": "0x1dd09a3e353fd17729723c1cfa4d8f154daddd4b1b61a8bc5a461bfe3bc52fe2",
      "transactionType": "CALL",
      "contractName": "TestGHOPartnerPassport",
      "contractAddress": "0xEa9b91D90ff3e904EcF230296D88c30c78E1E4c8",
      "function": "mint(address,uint256)",
      "arguments": [
        "0x4d2cE66107a44C349036adF33877865a7b6B0d49",
        "8"
      ],
      "transaction": {
        "type": "0x02",
        "from": "0x1cb30cb181d7854f91c2410bd037e6f42130e860",
        "to": "0xea9b91d90ff3e904ecf230296d88c30c78e1e4c8",
        "gas": "0x17307",
        "value": "0x0",
        "data": "0x40c10f190000000000000000000000004d2ce66107a44c349036adf33877865a7b6b0d490000000000000000000000000000000000000000000000000000000000000008",
        "nonce": "0x294",
        "accessList": []
      },
      "additionalContracts": [],
      "isFixedGasLimit": false
    }
  ],
  "receipts": [
    {
      "transactionHash": "0x1dd09a3e353fd17729723c1cfa4d8f154daddd4b1b61a8bc5a461bfe3bc52fe2",
      "transactionIndex": "0x1e",
      "blockHash": "0x8ffc970e29700499c0f2186d0de86c259bb429b7171af1e3138d1a64651045ea",
      "blockNumber": "0x4e3f62",
      "from": "0x1Cb30cb181D7854F91c2410BD037E6F42130e860",
      "to": "0xEa9b91D90ff3e904EcF230296D88c30c78E1E4c8",
      "cumulativeGasUsed": "0x2af437",
      "gasUsed": "0x10c9f",
      "contractAddress": null,
      "logs": [
        {
          "address": "0xEa9b91D90ff3e904EcF230296D88c30c78E1E4c8",
          "topics": [
            "0xddf252ad1be2c89b69c2b068fc378daa952ba7f163c4a11628f55a4df523b3ef",
            "0x0000000000000000000000000000000000000000000000000000000000000000",
            "0x0000000000000000000000004d2ce66107a44c349036adf33877865a7b6b0d49",
            "0x0000000000000000000000000000000000000000000000000000000000000008"
          ],
          "data": "0x",
          "blockHash": "0x8ffc970e29700499c0f2186d0de86c259bb429b7171af1e3138d1a64651045ea",
          "blockNumber": "0x4e3f62",
          "transactionHash": "0x1dd09a3e353fd17729723c1cfa4d8f154daddd4b1b61a8bc5a461bfe3bc52fe2",
          "transactionIndex": "0x1e",
          "logIndex": "0x23",
          "removed": false
        }
      ],
      "status": "0x1",
      "logsBloom": "0x00000000000000000000000000000000000000000000000000000000000000000000000000000010000000020000000000000000000080000000008000000000000000000000000000010008000000000000000000000000000000000000000000000000020000000000000000000800000000000000000000000010000000000080000000000000000000000000000000000000000000000000000000010000000000000000000000000000000000000000000000000080000000000000000040000002000000000000000000000000000000000000000000000000000020000000000000000000000000000000000000000000000000000000000000000000",
      "type": "0x2",
      "effectiveGasPrice": "0x18aef885a"
    }
  ],
  "libraries": [],
  "pending": [],
  "returns": {},
  "timestamp": 1705858819,
  "chain": 11155111,
  "multi": false,
  "commit": "b7b0b1c"
}