{
  "transactions": [
    {
      "hash": "0x37f07415c329fbf335443f64290cb39b8a88c3e13fa53c3b5eb1382be4c5ddba",
      "transactionType": "CALL",
      "contractName": "MainVault",
      "contractAddress": "0xeEf9639F53a5AcBd7B9db216f88B2EDa72e7597F",
      "function": "setUserFee(uint256)",
      "arguments": [
        "2000000000000000"
      ],
      "transaction": {
        "type": "0x02",
        "from": "0x1cb30cb181d7854f91c2410bd037e6f42130e860",
        "to": "0xeef9639f53a5acbd7b9db216f88b2eda72e7597f",
        "gas": "0xfd01",
        "value": "0x0",
        "data": "0x2050e09400000000000000000000000000000000000000000000000000071afd498d0000",
        "nonce": "0x26f",
        "accessList": []
      },
      "additionalContracts": [],
      "isFixedGasLimit": false
    },
    {
      "hash": "0x47fa9d1c95c949291bea7dea13e5b7058a690e4431a880d5a8003c2bf4f35172",
      "transactionType": "CALL",
      "contractName": "MainVault",
      "contractAddress": "0xeEf9639F53a5AcBd7B9db216f88B2EDa72e7597F",
      "function": "setPartnerFee(uint256)",
      "arguments": [
        "300000000000000000"
      ],
      "transaction": {
        "type": "0x02",
        "from": "0x1cb30cb181d7854f91c2410bd037e6f42130e860",
        "to": "0xeef9639f53a5acbd7b9db216f88b2eda72e7597f",
        "gas": "0x10bf6",
        "value": "0x0",
        "data": "0x3741454d0000000000000000000000000000000000000000000000000429d069189e0000",
        "nonce": "0x270",
        "accessList": []
      },
      "additionalContracts": [],
      "isFixedGasLimit": false
    }
  ],
  "receipts": [
    {
      "transactionHash": "0x37f07415c329fbf335443f64290cb39b8a88c3e13fa53c3b5eb1382be4c5ddba",
      "transactionIndex": "0x1d",
      "blockHash": "0xcc1cf1f2314ab289c9e4d28e2ad03e779423372cff1b3004ad14518b26aa72d1",
      "blockNumber": "0x4e351b",
      "from": "0x1Cb30cb181D7854F91c2410BD037E6F42130e860",
      "to": "0xeEf9639F53a5AcBd7B9db216f88B2EDa72e7597F",
      "cumulativeGasUsed": "0x24b3b9",
      "gasUsed": "0xb72d",
      "contractAddress": null,
      "logs": [
        {
          "address": "0xeEf9639F53a5AcBd7B9db216f88B2EDa72e7597F",
          "topics": [
            "0xc013b8341ea863bfc4571c06021cd8a7c8eeea033e27675ba23ef3a6478e8343"
          ],
          "data": "0x00000000000000000000000000000000000000000000000000071afd498d0000",
          "blockHash": "0xcc1cf1f2314ab289c9e4d28e2ad03e779423372cff1b3004ad14518b26aa72d1",
          "blockNumber": "0x4e351b",
          "transactionHash": "0x37f07415c329fbf335443f64290cb39b8a88c3e13fa53c3b5eb1382be4c5ddba",
          "transactionIndex": "0x1d",
          "logIndex": "0x26",
          "removed": false
        }
      ],
      "status": "0x1",
      "logsBloom": "0x00000000000000000000800000000000000000000000000000000000000000000000000000000000000000000000080000000000000000000000000000000000000000000000000000000000000000000000000000000000000000000000000000000000000000000000000000000000000000000002000000000000000000000000000000020000000000008000000000000000000000000000000000000000000000000000000000000000000000000000000000000000000000000000000000000000000000000000000000000000000000000000000000000000000000000100000000000000000000000000000000000000000000000000000000000000",
      "type": "0x2",
      "effectiveGasPrice": "0xbaa145be"
    },
    {
      "transactionHash": "0x47fa9d1c95c949291bea7dea13e5b7058a690e4431a880d5a8003c2bf4f35172",
      "transactionIndex": "0x1e",
      "blockHash": "0xcc1cf1f2314ab289c9e4d28e2ad03e779423372cff1b3004ad14518b26aa72d1",
      "blockNumber": "0x4e351b",
      "from": "0x1Cb30cb181D7854F91c2410BD037E6F42130e860",
      "to": "0xeEf9639F53a5AcBd7B9db216f88B2EDa72e7597F",
      "cumulativeGasUsed": "0x256af2",
      "gasUsed": "0xb739",
      "contractAddress": null,
      "logs": [
        {
          "address": "0xeEf9639F53a5AcBd7B9db216f88B2EDa72e7597F",
          "topics": [
            "0x7d2f55757a415932d0da2e15c82996e62500df6be2e6391891673497531e7dac"
          ],
          "data": "0x0000000000000000000000000000000000000000000000000429d069189e0000",
          "blockHash": "0xcc1cf1f2314ab289c9e4d28e2ad03e779423372cff1b3004ad14518b26aa72d1",
          "blockNumber": "0x4e351b",
          "transactionHash": "0x47fa9d1c95c949291bea7dea13e5b7058a690e4431a880d5a8003c2bf4f35172",
          "transactionIndex": "0x1e",
          "logIndex": "0x27",
          "removed": false
        }
      ],
      "status": "0x1",
      "logsBloom": "0x00000000000000000000000000000000000000000000000000000000000000000000000000000000000000000000080000000000000000000000000000000000000000000000000000000000000000000000000000000000000000000000000000000000000000000000004000000000000000000000000000000000000000000000000000020000000000008000000000000000000000000000000000000000000000000000000000040000000000000000000000800000000000000000000000000000000000000000000000000000000000000000000000000000000000000000000000000000000000000000000000000000000000000000000000000000",
      "type": "0x2",
      "effectiveGasPrice": "0xbaa145be"
    }
  ],
  "libraries": [],
  "pending": [],
  "returns": {},
  "timestamp": 1705822840,
  "chain": 11155111,
  "multi": false,
  "commit": "30b4b2d"
}