{
  "transactions": [
    {
      "hash": "0x968847ec9aaa8c587379305ab5f8da3c6694da595427908695d433e1b36f16a7",
      "transactionType": "CALL",
      "contractName": "MainVault",
      "contractAddress": "0x510075afb658EE8b1D3863689ff33Fea8DeA38f5",
      "function": "setMainPayment(address)",
      "arguments": [
        "0x082422192db0651080b486B9B734370E4162242B"
      ],
      "transaction": {
        "type": "0x02",
        "from": "0x1cb30cb181d7854f91c2410bd037e6f42130e860",
        "to": "0x510075afb658ee8b1d3863689ff33fea8dea38f5",
        "gas": "0xfed0",
        "value": "0x0",
        "data": "0x3674e6d5000000000000000000000000082422192db0651080b486b9b734370e4162242b",
        "nonce": "0x29b",
        "accessList": []
      },
      "additionalContracts": [],
      "isFixedGasLimit": false
    }
  ],
  "receipts": [],
  "libraries": [],
  "pending": [
    "0x968847ec9aaa8c587379305ab5f8da3c6694da595427908695d433e1b36f16a7"
  ],
  "returns": {},
  "timestamp": 1705859323,
  "chain": 11155111,
  "multi": false,
  "commit": "614f306"
}