{
  "transactions": [
    {
      "hash": "0x7c9414ea459552da8a447f2986a7aa19d982c21837417774e35900b1d294cedd",
      "transactionType": "CALL",
      "contractName": "TestGHOPassport",
      "contractAddress": "0x17206705E75249B2Cb885423937e88Fc8f068338",
      "function": "mint(address,uint256)",
      "arguments": [
        "0x9158a622f2D24d84ce91E67c336e4c82Cd1578F9",
        "5"
      ],
      "transaction": {
        "type": "0x02",
        "from": "0x1cb30cb181d7854f91c2410bd037e6f42130e860",
        "to": "0x17206705e75249b2cb885423937e88fc8f068338",
        "gas": "0x17307",
        "value": "0x0",
        "data": "0x40c10f190000000000000000000000009158a622f2d24d84ce91e67c336e4c82cd1578f90000000000000000000000000000000000000000000000000000000000000005",
        "nonce": "0x27e",
        "accessList": []
      },
      "additionalContracts": [],
      "isFixedGasLimit": false
    },
    {
      "hash": "0xb920f0292b554ee7eeade1f0fb07f92802e821e7eb0063b83eefecba82e56d98",
      "transactionType": "CALL",
      "contractName": "TestGHOPartnerPassport",
      "contractAddress": "0xEa9b91D90ff3e904EcF230296D88c30c78E1E4c8",
      "function": "mint(address,uint256)",
      "arguments": [
        "0x79917ED157F76862b3d4744862880fd2C04Da152",
        "4"
      ],
      "transaction": {
        "type": "0x02",
        "from": "0x1cb30cb181d7854f91c2410bd037e6f42130e860",
        "to": "0xea9b91d90ff3e904ecf230296d88c30c78e1e4c8",
        "gas": "0x17307",
        "value": "0x0",
        "data": "0x40c10f1900000000000000000000000079917ed157f76862b3d4744862880fd2c04da1520000000000000000000000000000000000000000000000000000000000000004",
        "nonce": "0x27f",
        "accessList": []
      },
      "additionalContracts": [],
      "isFixedGasLimit": false
    }
  ],
  "receipts": [],
  "libraries": [],
  "pending": [
    "0x7c9414ea459552da8a447f2986a7aa19d982c21837417774e35900b1d294cedd",
    "0xb920f0292b554ee7eeade1f0fb07f92802e821e7eb0063b83eefecba82e56d98"
  ],
  "returns": {},
  "timestamp": 1705847228,
  "chain": 11155111,
  "multi": false,
  "commit": "a410125"
}