{
  "transactions": [
    {
      "hash": "0x0424710be828be3bbedf30501fd7687cbf814a778928149aa6f4ef13dfd9cd22",
      "transactionType": "CALL",
      "contractName": "TestGHO",
      "contractAddress": "0xBdD9c513Be2514F83B72761503F0be2134ec6A1a",
      "function": "mint(address,uint256)",
      "arguments": [
        "0xfBcEC0A78C5155518AF0982d31F2c69543de6b35",
        "10000000000000000000000"
      ],
      "transaction": {
        "type": "0x02",
        "from": "0x1cb30cb181d7854f91c2410bd037e6f42130e860",
        "to": "0xbdd9c513be2514f83b72761503f0be2134ec6a1a",
        "gas": "0x113fd",
        "value": "0x0",
        "data": "0x40c10f19000000000000000000000000fbcec0a78c5155518af0982d31f2c69543de6b3500000000000000000000000000000000000000000000021e19e0c9bab2400000",
        "nonce": "0x292",
        "accessList": []
      },
      "additionalContracts": [],
      "isFixedGasLimit": false
    }
  ],
  "receipts": [],
  "libraries": [],
  "pending": [
    "0x0424710be828be3bbedf30501fd7687cbf814a778928149aa6f4ef13dfd9cd22"
  ],
  "returns": {},
  "timestamp": 1705858319,
  "chain": 11155111,
  "multi": false,
  "commit": "b7b0b1c"
}