{
  "transactions": [
    {
      "hash": "0x5534f56475fa6395d55dfdddf6757f3387de27abe450f635cb50c1c94da44a44",
      "transactionType": "CALL",
      "contractName": "TestGHO",
      "contractAddress": "0xBdD9c513Be2514F83B72761503F0be2134ec6A1a",
      "function": "approve(address,uint256):(bool)",
      "arguments": [
        "0x44dc28ea5A729c6235D50bbA2a25e92D5D242149",
        "10000000000000000000000"
      ],
      "transaction": {
        "type": "0x02",
        "from": "0x1cb30cb181d7854f91c2410bd037e6f42130e860",
        "to": "0xbdd9c513be2514f83b72761503f0be2134ec6a1a",
        "gas": "0x107d0",
        "value": "0x0",
        "data": "0x095ea7b300000000000000000000000044dc28ea5a729c6235d50bba2a25e92d5d24214900000000000000000000000000000000000000000000021e19e0c9bab2400000",
        "nonce": "0x288",
        "accessList": []
      },
      "additionalContracts": [],
      "isFixedGasLimit": false
    },
    {
      "hash": "0x59a849fa799e506d2a67295622cf0fbadbbda6c1ea83b4a537d2394f80466093",
      "transactionType": "CALL",
      "contractName": "MainVault",
      "contractAddress": "0x44dc28ea5A729c6235D50bbA2a25e92D5D242149",
      "function": "depositGHO(uint256)",
      "arguments": [
        "10000000000000000000000"
      ],
      "transaction": {
        "type": "0x02",
        "from": "0x1cb30cb181d7854f91c2410bd037e6f42130e860",
        "to": "0x44dc28ea5a729c6235d50bba2a25e92d5d242149",
        "gas": "0x23212",
        "value": "0x0",
        "data": "0x7709b6ab00000000000000000000000000000000000000000000021e19e0c9bab2400000",
        "nonce": "0x289",
        "accessList": []
      },
      "additionalContracts": [],
      "isFixedGasLimit": false
    }
  ],
  "receipts": [],
  "libraries": [],
  "pending": [
    "0x5534f56475fa6395d55dfdddf6757f3387de27abe450f635cb50c1c94da44a44",
    "0x59a849fa799e506d2a67295622cf0fbadbbda6c1ea83b4a537d2394f80466093"
  ],
  "returns": {},
  "timestamp": 1705854908,
  "chain": 11155111,
  "multi": false,
  "commit": "9058322"
}