{
  "transactions": [
    {
      "hash": "0xfefed3da93eae1b2a3e54e855a18f731a72aea39800fa98c438a7405b65f71a9",
      "transactionType": "CALL",
      "contractName": "TestGHO",
      "contractAddress": "0xBdD9c513Be2514F83B72761503F0be2134ec6A1a",
      "function": "mint(address,uint256)",
      "arguments": [
        "0x6C92E8595C8E749be38480e7ed5d53a0682C331F",
        "10000000000000000000000"
      ],
      "transaction": {
        "type": "0x02",
        "from": "0x1cb30cb181d7854f91c2410bd037e6f42130e860",
        "to": "0xbdd9c513be2514f83b72761503f0be2134ec6a1a",
        "gas": "0x113fd",
        "value": "0x0",
        "data": "0x40c10f190000000000000000000000006c92e8595c8e749be38480e7ed5d53a0682c331f00000000000000000000000000000000000000000000021e19e0c9bab2400000",
        "nonce": "0x290",
        "accessList": []
      },
      "additionalContracts": [],
      "isFixedGasLimit": false
    }
  ],
  "receipts": [
    {
      "transactionHash": "0xfefed3da93eae1b2a3e54e855a18f731a72aea39800fa98c438a7405b65f71a9",
      "transactionIndex": "0x1c",
      "blockHash": "0x2e5e7e35a25d9a6216f7d99c6357852941dc6982de1c852148933bc312a6b164",
      "blockNumber": "0x4e3f34",
      "from": "0x1Cb30cb181D7854F91c2410BD037E6F42130e860",
      "to": "0xBdD9c513Be2514F83B72761503F0be2134ec6A1a",
      "cumulativeGasUsed": "0x388fa3",
      "gasUsed": "0xc7d0",
      "contractAddress": null,
      "logs": [
        {
          "address": "0xBdD9c513Be2514F83B72761503F0be2134ec6A1a",
          "topics": [
            "0xddf252ad1be2c89b69c2b068fc378daa952ba7f163c4a11628f55a4df523b3ef",
            "0x0000000000000000000000000000000000000000000000000000000000000000",
            "0x0000000000000000000000006c92e8595c8e749be38480e7ed5d53a0682c331f"
          ],
          "data": "0x00000000000000000000000000000000000000000000021e19e0c9bab2400000",
          "blockHash": "0x2e5e7e35a25d9a6216f7d99c6357852941dc6982de1c852148933bc312a6b164",
          "blockNumber": "0x4e3f34",
          "transactionHash": "0xfefed3da93eae1b2a3e54e855a18f731a72aea39800fa98c438a7405b65f71a9",
          "transactionIndex": "0x1c",
          "logIndex": "0x3e",
          "removed": false
        }
      ],
      "status": "0x1",
      "logsBloom": "0x00000000000000000000000000000000000000000000000000000000000000000000000000000000000000000000000000000000000000000000000001000000000000000000000000000008000000000000000000000020000000000000000000000000020000000000000000000800000000000000000000000010000800000000000000000000000000000000000000000000000000000000000000000000000000000000000000000000000000000000000000000000000000000000000000000002400000000000000000000000000000000000000000000000010020000000000000000000000000000000000000000000040000000000000000000000",
      "type": "0x2",
      "effectiveGasPrice": "0x24bb61287"
    }
  ],
  "libraries": [],
  "pending": [],
  "returns": {},
  "timestamp": 1705858239,
  "chain": 11155111,
  "multi": false,
  "commit": "b7b0b1c"
}