{
  "transactions": [
    {
      "hash": "0x8ba7bd49e0aed9c3dd4a3faee44e871e232ea2020672e5793f08d61d4e9513b2",
      "transactionType": "CALL",
      "contractName": "MainVault",
      "contractAddress": "0x0Daf0Dd7902EB415f9624c102Ef6dA7a20D15e10",
      "function": "setMainPayment(address)",
      "arguments": [
        "0x0A7eba6b4841128E05704890d2326553803570cF"
      ],
      "transaction": {
        "type": "0x02",
        "from": "0x1cb30cb181d7854f91c2410bd037e6f42130e860",
        "to": "0x0daf0dd7902eb415f9624c102ef6da7a20d15e10",
        "gas": "0x10e6f",
        "value": "0x0",
        "data": "0x3674e6d50000000000000000000000000a7eba6b4841128e05704890d2326553803570cf",
        "nonce": "0x251",
        "accessList": []
      },
      "additionalContracts": [],
      "isFixedGasLimit": false
    }
  ],
  "receipts": [
    {
      "transactionHash": "0x8ba7bd49e0aed9c3dd4a3faee44e871e232ea2020672e5793f08d61d4e9513b2",
      "transactionIndex": "0x23",
      "blockHash": "0x89e761eddd663009a94dd02f7e6a4a0bbda7c10197bc0b53f4eb2ed65d6a3fd0",
      "blockNumber": "0x4e3206",
      "from": "0x1Cb30cb181D7854F91c2410BD037E6F42130e860",
      "to": "0x0Daf0Dd7902EB415f9624c102Ef6dA7a20D15e10",
      "cumulativeGasUsed": "0x1c98a3",
      "gasUsed": "0xb8ea",
      "contractAddress": null,
      "logs": [
        {
          "address": "0x0Daf0Dd7902EB415f9624c102Ef6dA7a20D15e10",
          "topics": [
            "0x4c070d2bd28acbebea1baca2a0a570d95bcbc30dee9a07c8218065ad38a400fb"
          ],
          "data": "0x0000000000000000000000000a7eba6b4841128e05704890d2326553803570cf",
          "blockHash": "0x89e761eddd663009a94dd02f7e6a4a0bbda7c10197bc0b53f4eb2ed65d6a3fd0",
          "blockNumber": "0x4e3206",
          "transactionHash": "0x8ba7bd49e0aed9c3dd4a3faee44e871e232ea2020672e5793f08d61d4e9513b2",
          "transactionIndex": "0x23",
          "logIndex": "0x18",
          "removed": false
        }
      ],
      "status": "0x1",
      "logsBloom": "0x00000000000000000000000000000000000000000000000000000000040000000000000000000000000000000000000000000000000004000000000000000000000000000000000000000000000000000000000000000000000000000000000000000000000004000000020000000000000000000000000000000000000000000000000000000000000000000000000000000000002000000000000000000000000000000000000000000000001000000000000000000000000000000000000000000000000000000000000000000000000000000000000000000000000000000000000000000000000000000000000000000000000000000000000000000000",
      "type": "0x2",
      "effectiveGasPrice": "0xba57a705"
    }
  ],
  "libraries": [],
  "pending": [],
  "returns": {},
  "timestamp": 1705812184,
  "chain": 11155111,
  "multi": false,
  "commit": "b80610e"
}