{
  "transactions": [
    {
      "hash": "0xcc8848789da13e30a9e12a3b6371a7c42b7e71b265a8999a0fe7dc796f97f658",
      "transactionType": "CALL",
      "contractName": "TestGHOPassport",
      "contractAddress": "0x17206705E75249B2Cb885423937e88Fc8f068338",
      "function": "mint(address,uint256)",
      "arguments": [
        "0x346e6fF1Ad873FF738D94cAbF8816FD9De5866B6",
        "4"
      ],
      "transaction": {
        "type": "0x02",
        "from": "0x1cb30cb181d7854f91c2410bd037e6f42130e860",
        "to": "0x17206705e75249b2cb885423937e88fc8f068338",
        "gas": "0x17307",
        "value": "0x0",
        "data": "0x40c10f19000000000000000000000000346e6ff1ad873ff738d94cabf8816fd9de5866b60000000000000000000000000000000000000000000000000000000000000004",
        "nonce": "0x261",
        "accessList": []
      },
      "additionalContracts": [],
      "isFixedGasLimit": false
    },
    {
      "hash": "0x43c7448c13e154256cc997e91f6d24e885d660c0899cc560ae2816ed5e3c1403",
      "transactionType": "CALL",
      "contractName": "TestGHOPartnerPassport",
      "contractAddress": "0xEa9b91D90ff3e904EcF230296D88c30c78E1E4c8",
      "function": "mint(address,uint256)",
      "arguments": [
        "0x346e6fF1Ad873FF738D94cAbF8816FD9De5866B6",
        "3"
      ],
      "transaction": {
        "type": "0x02",
        "from": "0x1cb30cb181d7854f91c2410bd037e6f42130e860",
        "to": "0xea9b91d90ff3e904ecf230296d88c30c78e1e4c8",
        "gas": "0x17307",
        "value": "0x0",
        "data": "0x40c10f19000000000000000000000000346e6ff1ad873ff738d94cabf8816fd9de5866b60000000000000000000000000000000000000000000000000000000000000003",
        "nonce": "0x262",
        "accessList": []
      },
      "additionalContracts": [],
      "isFixedGasLimit": false
    }
  ],
  "receipts": [
    {
      "transactionHash": "0xcc8848789da13e30a9e12a3b6371a7c42b7e71b265a8999a0fe7dc796f97f658",
      "transactionIndex": "0x18",
      "blockHash": "0x2f8537bf50a4cb7aaf500e75ad8ab304df8ac8d24086c251d028cafd890122a5",
      "blockNumber": "0x4e33fa",
      "from": "0x1Cb30cb181D7854F91c2410BD037E6F42130e860",
      "to": "0x17206705E75249B2Cb885423937e88Fc8f068338",
      "cumulativeGasUsed": "0xdf115",
      "gasUsed": "0x10c9f",
      "contractAddress": null,
      "logs": [
        {
          "address": "0x17206705E75249B2Cb885423937e88Fc8f068338",
          "topics": [
            "0xddf252ad1be2c89b69c2b068fc378daa952ba7f163c4a11628f55a4df523b3ef",
            "0x0000000000000000000000000000000000000000000000000000000000000000",
            "0x000000000000000000000000346e6ff1ad873ff738d94cabf8816fd9de5866b6",
            "0x0000000000000000000000000000000000000000000000000000000000000004"
          ],
          "data": "0x",
          "blockHash": "0x2f8537bf50a4cb7aaf500e75ad8ab304df8ac8d24086c251d028cafd890122a5",
          "blockNumber": "0x4e33fa",
          "transactionHash": "0xcc8848789da13e30a9e12a3b6371a7c42b7e71b265a8999a0fe7dc796f97f658",
          "transactionIndex": "0x18",
          "logIndex": "0x3",
          "removed": false
        }
      ],
      "status": "0x1",
      "logsBloom": "0x00000000000000000000000000001000008000000000000000000000000000000000000000000000000000000000000000000000000000000000000000000000000000000000000000000008000000000000000000000000000000000000000008000000020000000000000000000880000000000000000000000010000000000000000000000000000000000000000000000000000000000001000400000000000000000000000000000000000002000000000000000000002000000000000000000002000000000000000000000000000000008000000000000000000020000000000000000000000000000000000000000000000000000000000000000000",
      "type": "0x2",
      "effectiveGasPrice": "0xb864641f"
    },
    {
      "transactionHash": "0x43c7448c13e154256cc997e91f6d24e885d660c0899cc560ae2816ed5e3c1403",
      "transactionIndex": "0x19",
      "blockHash": "0x2f8537bf50a4cb7aaf500e75ad8ab304df8ac8d24086c251d028cafd890122a5",
      "blockNumber": "0x4e33fa",
      "from": "0x1Cb30cb181D7854F91c2410BD037E6F42130e860",
      "to": "0xEa9b91D90ff3e904EcF230296D88c30c78E1E4c8",
      "cumulativeGasUsed": "0xefdb4",
      "gasUsed": "0x10c9f",
      "contractAddress": null,
      "logs": [
        {
          "address": "0xEa9b91D90ff3e904EcF230296D88c30c78E1E4c8",
          "topics": [
            "0xddf252ad1be2c89b69c2b068fc378daa952ba7f163c4a11628f55a4df523b3ef",
            "0x0000000000000000000000000000000000000000000000000000000000000000",
            "0x000000000000000000000000346e6ff1ad873ff738d94cabf8816fd9de5866b6",
            "0x0000000000000000000000000000000000000000000000000000000000000003"
          ],
          "data": "0x",
          "blockHash": "0x2f8537bf50a4cb7aaf500e75ad8ab304df8ac8d24086c251d028cafd890122a5",
          "blockNumber": "0x4e33fa",
          "transactionHash": "0x43c7448c13e154256cc997e91f6d24e885d660c0899cc560ae2816ed5e3c1403",
          "transactionIndex": "0x19",
          "logIndex": "0x4",
          "removed": false
        }
      ],
      "status": "0x1",
      "logsBloom": "0x00000000000000000000000000000000008000000000000000000000000000000000000000000000000000020000000000000000020000000000008000000000000000000000000000010008000000000000000000000000000000000000000000000000020000000000000000000800000000000000000000000010000000000000000000000000000000000000000000000000000000000001000400000000000000000000000000000000000000000000000000800000000000000000400000000002000000000000000000000000000000000000000000000000000020000000000000000000000000000000000000000000000000000000000000000000",
      "type": "0x2",
      "effectiveGasPrice": "0xb864641f"
    }
  ],
  "libraries": [],
  "pending": [],
  "returns": {},
  "timestamp": 1705818915,
  "chain": 11155111,
  "multi": false,
  "commit": "c8c3d9a"
}