{
  "transactions": [
    {
      "hash": "0xfb25e87e7f73a0ed5a059fb4442ead1432c014a10e388b611600b93f5838b4e1",
      "transactionType": "CALL",
      "contractName": "MainVault",
      "contractAddress": "0xA03A35C0117aED845D550CF991c32571510E198a",
      "function": "setUserFee(uint256)",
      "arguments": [
        "2000000000000000"
      ],
      "transaction": {
        "type": "0x02",
        "from": "0x1cb30cb181d7854f91c2410bd037e6f42130e860",
        "to": "0xa03a35c0117aed845d550cf991c32571510e198a",
        "gas": "0xfd01",
        "value": "0x0",
        "data": "0x2050e09400000000000000000000000000000000000000000000000000071afd498d0000",
        "nonce": "0x2b6",
        "accessList": []
      },
      "additionalContracts": [],
      "isFixedGasLimit": false
    },
    {
      "hash": "0xfca32d41f44ffb308bd322b592cf4b4e1f49101c6472119683a8605d4d574464",
      "transactionType": "CALL",
      "contractName": "MainVault",
      "contractAddress": "0xA03A35C0117aED845D550CF991c32571510E198a",
      "function": "setPartnerFee(uint256)",
      "arguments": [
        "300000000000000000"
      ],
      "transaction": {
        "type": "0x02",
        "from": "0x1cb30cb181d7854f91c2410bd037e6f42130e860",
        "to": "0xa03a35c0117aed845d550cf991c32571510e198a",
        "gas": "0x10bf6",
        "value": "0x0",
        "data": "0x3741454d0000000000000000000000000000000000000000000000000429d069189e0000",
        "nonce": "0x2b7",
        "accessList": []
      },
      "additionalContracts": [],
      "isFixedGasLimit": false
    }
  ],
  "receipts": [
    {
      "transactionHash": "0xfb25e87e7f73a0ed5a059fb4442ead1432c014a10e388b611600b93f5838b4e1",
      "transactionIndex": "0x1b",
      "blockHash": "0xf95e62d51676328038daf9794a8079982fc998f5677fcb2af07e3b14a9166f5f",
      "blockNumber": "0x4e4031",
      "from": "0x1Cb30cb181D7854F91c2410BD037E6F42130e860",
      "to": "0xA03A35C0117aED845D550CF991c32571510E198a",
      "cumulativeGasUsed": "0x1a6948",
      "gasUsed": "0xb72d",
      "contractAddress": null,
      "logs": [
        {
          "address": "0xA03A35C0117aED845D550CF991c32571510E198a",
          "topics": [
            "0xc013b8341ea863bfc4571c06021cd8a7c8eeea033e27675ba23ef3a6478e8343"
          ],
          "data": "0x00000000000000000000000000000000000000000000000000071afd498d0000",
          "blockHash": "0xf95e62d51676328038daf9794a8079982fc998f5677fcb2af07e3b14a9166f5f",
          "blockNumber": "0x4e4031",
          "transactionHash": "0xfb25e87e7f73a0ed5a059fb4442ead1432c014a10e388b611600b93f5838b4e1",
          "transactionIndex": "0x1b",
          "logIndex": "0x1f",
          "removed": false
        }
      ],
      "status": "0x1",
      "logsBloom": "0x00000000000000000000800000000000000000000000000000000000000000000000000000000000000000000000000000000000000000000000000000000000000000000000000000000000000000000000000000000000000100000000000000000000000000000000000000000000000000000002000000000000000000000000000000000000000000000000000000000400000000000000000000000000000000000000000000000000000000000000000000000000000000000000000000000000000000000000000000000000000000000000000000000000000000000104000000000000000000000000000000000000000000000000000000000000",
      "type": "0x2",
      "effectiveGasPrice": "0x1bc2fff4f"
    },
    {
      "transactionHash": "0xfca32d41f44ffb308bd322b592cf4b4e1f49101c6472119683a8605d4d574464",
      "transactionIndex": "0x1c",
      "blockHash": "0xf95e62d51676328038daf9794a8079982fc998f5677fcb2af07e3b14a9166f5f",
      "blockNumber": "0x4e4031",
      "from": "0x1Cb30cb181D7854F91c2410BD037E6F42130e860",
      "to": "0xA03A35C0117aED845D550CF991c32571510E198a",
      "cumulativeGasUsed": "0x1b2081",
      "gasUsed": "0xb739",
      "contractAddress": null,
      "logs": [
        {
          "address": "0xA03A35C0117aED845D550CF991c32571510E198a",
          "topics": [
            "0x7d2f55757a415932d0da2e15c82996e62500df6be2e6391891673497531e7dac"
          ],
          "data": "0x0000000000000000000000000000000000000000000000000429d069189e0000",
          "blockHash": "0xf95e62d51676328038daf9794a8079982fc998f5677fcb2af07e3b14a9166f5f",
          "blockNumber": "0x4e4031",
          "transactionHash": "0xfca32d41f44ffb308bd322b592cf4b4e1f49101c6472119683a8605d4d574464",
          "transactionIndex": "0x1c",
          "logIndex": "0x20",
          "removed": false
        }
      ],
      "status": "0x1",
      "logsBloom": "0x00000000000000000000000000000000000000000000000000000000000000000000000000000000000000000000000000000000000000000000000000000000000000000000000000000000000000000000000000000000000100000000000000000000000000000000004000000000000000000000000000000000000000000000000000000000000000000000000000000400000000000000000000000000000000000000000000040000000000000000000000800000000000000000000000000000000000000000000000000000000000000000000000000000000000000004000000000000000000000000000000000000000000000000000000000000",
      "type": "0x2",
      "effectiveGasPrice": "0x1bc2fff4f"
    }
  ],
  "libraries": [],
  "pending": [],
  "returns": {},
  "timestamp": 1705861746,
  "chain": 11155111,
  "multi": false,
  "commit": "1b08bd3"
}