{
  "transactions": [
    {
      "hash": "0xfeccc4b88d6f11b0ddfe638b47b27a4f2dbc7f512d645b63e99a10ba43dd8b1c",
      "transactionType": "CALL",
      "contractName": "MainVault",
      "contractAddress": "0xA03A35C0117aED845D550CF991c32571510E198a",
      "function": "setMainPayment(address)",
      "arguments": [
        "0x8107b2e64C34ab015Ac86aB724553feEF75dA25D"
      ],
      "transaction": {
        "type": "0x02",
        "from": "0x1cb30cb181d7854f91c2410bd037e6f42130e860",
        "to": "0xa03a35c0117aed845d550cf991c32571510e198a",
        "gas": "0xfed0",
        "value": "0x0",
        "data": "0x3674e6d50000000000000000000000008107b2e64c34ab015ac86ab724553feef75da25d",
        "nonce": "0x2b2",
        "accessList": []
      },
      "additionalContracts": [],
      "isFixedGasLimit": false
    }
  ],
  "receipts": [],
  "libraries": [],
  "pending": [
    "0xfeccc4b88d6f11b0ddfe638b47b27a4f2dbc7f512d645b63e99a10ba43dd8b1c"
  ],
  "returns": {},
  "timestamp": 1705861639,
  "chain": 11155111,
  "multi": false,
  "commit": "581e935"
}