{
  "transactions": [
    {
      "hash": "0x655faa4438b82f7f674b958a710de5d8e8c3c48b685363ffaf4d4b88f53ca8ce",
      "transactionType": "CALL",
      "contractName": "MainVault",
      "contractAddress": "0x510075afb658EE8b1D3863689ff33Fea8DeA38f5",
      "function": "setMainPayment(address)",
      "arguments": [
        "0x082422192db0651080b486B9B734370E4162242B"
      ],
      "transaction": {
        "type": "0x02",
        "from": "0x1cb30cb181d7854f91c2410bd037e6f42130e860",
        "to": "0x510075afb658ee8b1d3863689ff33fea8dea38f5",
        "gas": "0x9372",
        "value": "0x0",
        "data": "0x3674e6d5000000000000000000000000082422192db0651080b486b9b734370e4162242b",
        "nonce": "0x29d",
        "accessList": []
      },
      "additionalContracts": [],
      "isFixedGasLimit": false
    }
  ],
  "receipts": [
    {
      "transactionHash": "0x655faa4438b82f7f674b958a710de5d8e8c3c48b685363ffaf4d4b88f53ca8ce",
      "transactionIndex": "0x24",
      "blockHash": "0x66c9084b4e26e2b3a0acd1e858c382d0e974099b1b8e87dcbe878404918fa246",
      "blockNumber": "0x4e3fa7",
      "from": "0x1Cb30cb181D7854F91c2410BD037E6F42130e860",
      "to": "0x510075afb658EE8b1D3863689ff33Fea8DeA38f5",
      "cumulativeGasUsed": "0x1c67e0",
      "gasUsed": "0x6ac0",
      "contractAddress": null,
      "logs": [
        {
          "address": "0x510075afb658EE8b1D3863689ff33Fea8DeA38f5",
          "topics": [
            "0x4c070d2bd28acbebea1baca2a0a570d95bcbc30dee9a07c8218065ad38a400fb"
          ],
          "data": "0x000000000000000000000000082422192db0651080b486b9b734370e4162242b",
          "blockHash": "0x66c9084b4e26e2b3a0acd1e858c382d0e974099b1b8e87dcbe878404918fa246",
          "blockNumber": "0x4e3fa7",
          "transactionHash": "0x655faa4438b82f7f674b958a710de5d8e8c3c48b685363ffaf4d4b88f53ca8ce",
          "transactionIndex": "0x24",
          "logIndex": "0x13",
          "removed": false
        }
      ],
      "status": "0x1",
      "logsBloom": "0x00000000000000000000000000000000000000000000000000000000040000000000000000000000000000000000000000000000000004000000000000000000000000000400000000000000000000000000000000000000000000000000000000000000000000000000000000000000000000000000000000000000000000000000000000000000000000000000000000000000002000000000000000000000000000000000000000000000000000000000000000000000000000000000000000000000000000000000000020000000000000010000000000000000000000000000000000000000000000000000000000000000000000000000000000000000",
      "type": "0x2",
      "effectiveGasPrice": "0x142a9d910"
    }
  ],
  "libraries": [],
  "pending": [],
  "returns": {},
  "timestamp": 1705859799,
  "chain": 11155111,
  "multi": false,
  "commit": "ff594f9"
}