{
  "transactions": [
    {
      "hash": "0x45f69ec8dd1c39404f0e67597467678d1545d6e9b28a8eea4e5ffb0e0c15ea5f",
      "transactionType": "CALL",
      "contractName": "TestGHO",
      "contractAddress": "0xBdD9c513Be2514F83B72761503F0be2134ec6A1a",
      "function": "approve(address,uint256):(bool)",
      "arguments": [
        "0xEcD5f72e814d8A90dd84313755A4050A2BE4c995",
        "10000000000000000000000"
      ],
      "transaction": {
        "type": "0x02",
        "from": "0x1cb30cb181d7854f91c2410bd037e6f42130e860",
        "to": "0xbdd9c513be2514f83b72761503f0be2134ec6a1a",
        "gas": "0x107d0",
        "value": "0x0",
        "data": "0x095ea7b3000000000000000000000000ecd5f72e814d8a90dd84313755a4050a2be4c99500000000000000000000000000000000000000000000021e19e0c9bab2400000",
        "nonce": "0x279",
        "accessList": []
      },
      "additionalContracts": [],
      "isFixedGasLimit": false
    },
    {
      "hash": "0xb5202d927ef3275e3ba22d134c4ef068239622143ca6b493b4b81033fb45753c",
      "transactionType": "CALL",
      "contractName": "MainVault",
      "contractAddress": "0xEcD5f72e814d8A90dd84313755A4050A2BE4c995",
      "function": "depositGHO(uint256)",
      "arguments": [
        "10000000000000000000000"
      ],
      "transaction": {
        "type": "0x02",
        "from": "0x1cb30cb181d7854f91c2410bd037e6f42130e860",
        "to": "0xecd5f72e814d8a90dd84313755a4050a2be4c995",
        "gas": "0x23212",
        "value": "0x0",
        "data": "0x7709b6ab00000000000000000000000000000000000000000000021e19e0c9bab2400000",
        "nonce": "0x27a",
        "accessList": []
      },
      "additionalContracts": [],
      "isFixedGasLimit": false
    }
  ],
  "receipts": [
    {
      "transactionHash": "0x45f69ec8dd1c39404f0e67597467678d1545d6e9b28a8eea4e5ffb0e0c15ea5f",
      "transactionIndex": "0x19",
      "blockHash": "0x2050d4363560423afe12879e951ce2538eca83782d14dc105b1a91b1f38e18a3",
      "blockNumber": "0x4e392b",
      "from": "0x1Cb30cb181D7854F91c2410BD037E6F42130e860",
      "to": "0xBdD9c513Be2514F83B72761503F0be2134ec6A1a",
      "cumulativeGasUsed": "0x208445",
      "gasUsed": "0xb463",
      "contractAddress": null,
      "logs": [
        {
          "address": "0xBdD9c513Be2514F83B72761503F0be2134ec6A1a",
          "topics": [
            "0x8c5be1e5ebec7d5bd14f71427d1e84f3dd0314c0f7b2291e5b200ac8c7c3b925",
            "0x0000000000000000000000001cb30cb181d7854f91c2410bd037e6f42130e860",
            "0x000000000000000000000000ecd5f72e814d8a90dd84313755a4050a2be4c995"
          ],
          "data": "0x00000000000000000000000000000000000000000000021e19e0c9bab2400000",
          "blockHash": "0x2050d4363560423afe12879e951ce2538eca83782d14dc105b1a91b1f38e18a3",
          "blockNumber": "0x4e392b",
          "transactionHash": "0x45f69ec8dd1c39404f0e67597467678d1545d6e9b28a8eea4e5ffb0e0c15ea5f",
          "transactionIndex": "0x19",
          "logIndex": "0x24",
          "removed": false
        }
      ],
      "status": "0x1",
      "logsBloom": "0x02002000000000000000000000000000000000000000000000000000000000000000000000000000000000000000000000000000000000000000000001200000000000000000000000000000000000000000000000000020000000000000000000000000000000000000000000000000000000000000000000000000000000000000000000000000000000000000000000000000000000000000000000000000020000000000000000000000000000000000020000000000000000000080000000000000000400000000000000000000000000000004000000000000010000000010000000000000000000000000000000000000000000000000000000000000",
      "type": "0x2",
      "effectiveGasPrice": "0xba56d77d"
    },
    {
      "transactionHash": "0xb5202d927ef3275e3ba22d134c4ef068239622143ca6b493b4b81033fb45753c",
      "transactionIndex": "0x1a",
      "blockHash": "0x2050d4363560423afe12879e951ce2538eca83782d14dc105b1a91b1f38e18a3",
      "blockNumber": "0x4e392b",
      "from": "0x1Cb30cb181D7854F91c2410BD037E6F42130e860",
      "to": "0xEcD5f72e814d8A90dd84313755A4050A2BE4c995",
      "cumulativeGasUsed": "0x221b34",
      "gasUsed": "0x196ef",
      "contractAddress": null,
      "logs": [
        {
          "address": "0xBdD9c513Be2514F83B72761503F0be2134ec6A1a",
          "topics": [
            "0xddf252ad1be2c89b69c2b068fc378daa952ba7f163c4a11628f55a4df523b3ef",
            "0x0000000000000000000000001cb30cb181d7854f91c2410bd037e6f42130e860",
            "0x000000000000000000000000ecd5f72e814d8a90dd84313755a4050a2be4c995"
          ],
          "data": "0x00000000000000000000000000000000000000000000021e19e0c9bab2400000",
          "blockHash": "0x2050d4363560423afe12879e951ce2538eca83782d14dc105b1a91b1f38e18a3",
          "blockNumber": "0x4e392b",
          "transactionHash": "0xb5202d927ef3275e3ba22d134c4ef068239622143ca6b493b4b81033fb45753c",
          "transactionIndex": "0x1a",
          "logIndex": "0x25",
          "removed": false
        },
        {
          "address": "0xEcD5f72e814d8A90dd84313755A4050A2BE4c995",
          "topics": [
            "0xddf252ad1be2c89b69c2b068fc378daa952ba7f163c4a11628f55a4df523b3ef",
            "0x0000000000000000000000000000000000000000000000000000000000000000",
            "0x000000000000000000000000eca9185ad2663c635548a177e46801462088ccbc"
          ],
          "data": "0x00000000000000000000000000000000000000000000021e19e0c9bab2400000",
          "blockHash": "0x2050d4363560423afe12879e951ce2538eca83782d14dc105b1a91b1f38e18a3",
          "blockNumber": "0x4e392b",
          "transactionHash": "0xb5202d927ef3275e3ba22d134c4ef068239622143ca6b493b4b81033fb45753c",
          "transactionIndex": "0x1a",
          "logIndex": "0x26",
          "removed": false
        },
        {
          "address": "0xEcD5f72e814d8A90dd84313755A4050A2BE4c995",
          "topics": [
            "0xdcbc1c05240f31ff3ad067ef1ee35ce4997762752e3a095284754544f4c709d7",
            "0x0000000000000000000000001cb30cb181d7854f91c2410bd037e6f42130e860",
            "0x000000000000000000000000eca9185ad2663c635548a177e46801462088ccbc"
          ],
          "data": "0x00000000000000000000000000000000000000000000021e19e0c9bab240000000000000000000000000000000000000000000000000021e19e0c9bab2400000",
          "blockHash": "0x2050d4363560423afe12879e951ce2538eca83782d14dc105b1a91b1f38e18a3",
          "blockNumber": "0x4e392b",
          "transactionHash": "0xb5202d927ef3275e3ba22d134c4ef068239622143ca6b493b4b81033fb45753c",
          "transactionIndex": "0x1a",
          "logIndex": "0x27",
          "removed": false
        },
        {
          "address": "0xEcD5f72e814d8A90dd84313755A4050A2BE4c995",
          "topics": [
            "0x05481d73db532e5e33460a49c151606cfe362daee86a1cab011fda979f1a9fe5"
          ],
          "data": "0x00000000000000000000000000000000000000000000021e19e0c9bab2400000",
          "blockHash": "0x2050d4363560423afe12879e951ce2538eca83782d14dc105b1a91b1f38e18a3",
          "blockNumber": "0x4e392b",
          "transactionHash": "0xb5202d927ef3275e3ba22d134c4ef068239622143ca6b493b4b81033fb45753c",
          "transactionIndex": "0x1a",
          "logIndex": "0x28",
          "removed": false
        }
      ],
      "status": "0x1",
      "logsBloom": "0x0200200002000000000000000000000000000000004000000000000000000080000000000000000000000000000000000000000002000000000000000100000000000040000800000000000800000000000000000000002000000000000000000000000002000000000000000000080000000000000400000000001000000000000000000000000000000000000000000000000000000000000000000000000000000000000000000000000800000000000002000000000000000000008000020000000200040000000000000000000800000000000c000000800000010020000000000000000000000000000000000000000000000000000000000000000000",
      "type": "0x2",
      "effectiveGasPrice": "0xba56d77d"
    }
  ],
  "libraries": [],
  "pending": [],
  "returns": {},
  "timestamp": 1705837154,
  "chain": 11155111,
  "multi": false,
  "commit": "0fd21c1"
}