{
  "transactions": [
    {
      "hash": "0x28e0ff7d4598a9e094342ace34334f22a2374dfb3dc1e00cfaf9d2ac5576bfb3",
      "transactionType": "CALL",
      "contractName": "TestGHO",
      "contractAddress": "0xBdD9c513Be2514F83B72761503F0be2134ec6A1a",
      "function": "approve(address,uint256):(bool)",
      "arguments": [
        "0x0Daf0Dd7902EB415f9624c102Ef6dA7a20D15e10",
        "10000000000000000000000"
      ],
      "transaction": {
        "type": "0x02",
        "from": "0x1cb30cb181d7854f91c2410bd037e6f42130e860",
        "to": "0xbdd9c513be2514f83b72761503f0be2134ec6a1a",
        "gas": "0x107d0",
        "value": "0x0",
        "data": "0x095ea7b30000000000000000000000000daf0dd7902eb415f9624c102ef6da7a20d15e1000000000000000000000000000000000000000000000021e19e0c9bab2400000",
        "nonce": "0x253",
        "accessList": []
      },
      "additionalContracts": [],
      "isFixedGasLimit": false
    },
    {
      "hash": "0x923c16bb4790a2c99b131bca8932c06c784406a2edc32ad937413e08d06f91ea",
      "transactionType": "CALL",
      "contractName": "MainVault",
      "contractAddress": "0x0Daf0Dd7902EB415f9624c102Ef6dA7a20D15e10",
      "function": "depositGHO(uint256)",
      "arguments": [
        "10000000000000000000000"
      ],
      "transaction": {
        "type": "0x02",
        "from": "0x1cb30cb181d7854f91c2410bd037e6f42130e860",
        "to": "0x0daf0dd7902eb415f9624c102ef6da7a20d15e10",
        "gas": "0x195cd",
        "value": "0x0",
        "data": "0x7709b6ab00000000000000000000000000000000000000000000021e19e0c9bab2400000",
        "nonce": "0x254",
        "accessList": []
      },
      "additionalContracts": [],
      "isFixedGasLimit": false
    }
  ],
  "receipts": [
    {
      "transactionHash": "0x28e0ff7d4598a9e094342ace34334f22a2374dfb3dc1e00cfaf9d2ac5576bfb3",
      "transactionIndex": "0x16",
      "blockHash": "0x930ae75e3bae80170f3263fe72e740ad5078eedbe4b5304169acfd894eb2ecfc",
      "blockNumber": "0x4e3216",
      "from": "0x1Cb30cb181D7854F91c2410BD037E6F42130e860",
      "to": "0xBdD9c513Be2514F83B72761503F0be2134ec6A1a",
      "cumulativeGasUsed": "0x17a2a0",
      "gasUsed": "0xb463",
      "contractAddress": null,
      "logs": [
        {
          "address": "0xBdD9c513Be2514F83B72761503F0be2134ec6A1a",
          "topics": [
            "0x8c5be1e5ebec7d5bd14f71427d1e84f3dd0314c0f7b2291e5b200ac8c7c3b925",
            "0x0000000000000000000000001cb30cb181d7854f91c2410bd037e6f42130e860",
            "0x0000000000000000000000000daf0dd7902eb415f9624c102ef6da7a20d15e10"
          ],
          "data": "0x00000000000000000000000000000000000000000000021e19e0c9bab2400000",
          "blockHash": "0x930ae75e3bae80170f3263fe72e740ad5078eedbe4b5304169acfd894eb2ecfc",
          "blockNumber": "0x4e3216",
          "transactionHash": "0x28e0ff7d4598a9e094342ace34334f22a2374dfb3dc1e00cfaf9d2ac5576bfb3",
          "transactionIndex": "0x16",
          "logIndex": "0x14",
          "removed": false
        }
      ],
      "status": "0x1",
      "logsBloom": "0x02002000000000000000000000000000000000000000000000000000000000000000000000000000000000000000000041000000000000000000000001200000000000000000000000000000000000000000000000000020000000000000000000000000000000000000000000000000000000000000000000000000000000000000000000000000000000000000000000000000000000000000000000000000020000000000000000000000000000000000000000000000000000000000000000000000000000000000000000000000200000000004000000000000010000000010000000000000000000000000000000000000000000000000000000000000",
      "type": "0x2",
      "effectiveGasPrice": "0xba39d517"
    },
    {
      "transactionHash": "0x923c16bb4790a2c99b131bca8932c06c784406a2edc32ad937413e08d06f91ea",
      "transactionIndex": "0x18",
      "blockHash": "0x930ae75e3bae80170f3263fe72e740ad5078eedbe4b5304169acfd894eb2ecfc",
      "blockNumber": "0x4e3216",
      "from": "0x1Cb30cb181D7854F91c2410BD037E6F42130e860",
      "to": "0x0Daf0Dd7902EB415f9624c102Ef6dA7a20D15e10",
      "cumulativeGasUsed": "0x1cca0c",
      "gasUsed": "0x11579",
      "contractAddress": null,
      "logs": [
        {
          "address": "0xBdD9c513Be2514F83B72761503F0be2134ec6A1a",
          "topics": [
            "0xddf252ad1be2c89b69c2b068fc378daa952ba7f163c4a11628f55a4df523b3ef",
            "0x0000000000000000000000001cb30cb181d7854f91c2410bd037e6f42130e860",
            "0x0000000000000000000000000daf0dd7902eb415f9624c102ef6da7a20d15e10"
          ],
          "data": "0x00000000000000000000000000000000000000000000021e19e0c9bab2400000",
          "blockHash": "0x930ae75e3bae80170f3263fe72e740ad5078eedbe4b5304169acfd894eb2ecfc",
          "blockNumber": "0x4e3216",
          "transactionHash": "0x923c16bb4790a2c99b131bca8932c06c784406a2edc32ad937413e08d06f91ea",
          "transactionIndex": "0x18",
          "logIndex": "0x16",
          "removed": false
        },
        {
          "address": "0x0Daf0Dd7902EB415f9624c102Ef6dA7a20D15e10",
          "topics": [
            "0xddf252ad1be2c89b69c2b068fc378daa952ba7f163c4a11628f55a4df523b3ef",
            "0x0000000000000000000000000000000000000000000000000000000000000000",
            "0x0000000000000000000000000a7eba6b4841128e05704890d2326553803570cf"
          ],
          "data": "0x00000000000000000000000000000000000000000000021e19e0c9bab2400000",
          "blockHash": "0x930ae75e3bae80170f3263fe72e740ad5078eedbe4b5304169acfd894eb2ecfc",
          "blockNumber": "0x4e3216",
          "transactionHash": "0x923c16bb4790a2c99b131bca8932c06c784406a2edc32ad937413e08d06f91ea",
          "transactionIndex": "0x18",
          "logIndex": "0x17",
          "removed": false
        },
        {
          "address": "0x0Daf0Dd7902EB415f9624c102Ef6dA7a20D15e10",
          "topics": [
            "0xdcbc1c05240f31ff3ad067ef1ee35ce4997762752e3a095284754544f4c709d7",
            "0x0000000000000000000000001cb30cb181d7854f91c2410bd037e6f42130e860",
            "0x0000000000000000000000000a7eba6b4841128e05704890d2326553803570cf"
          ],
          "data": "0x00000000000000000000000000000000000000000000021e19e0c9bab240000000000000000000000000000000000000000000000000021e19e0c9bab2400000",
          "blockHash": "0x930ae75e3bae80170f3263fe72e740ad5078eedbe4b5304169acfd894eb2ecfc",
          "blockNumber": "0x4e3216",
          "transactionHash": "0x923c16bb4790a2c99b131bca8932c06c784406a2edc32ad937413e08d06f91ea",
          "transactionIndex": "0x18",
          "logIndex": "0x18",
          "removed": false
        },
        {
          "address": "0x0Daf0Dd7902EB415f9624c102Ef6dA7a20D15e10",
          "topics": [
            "0x05481d73db532e5e33460a49c151606cfe362daee86a1cab011fda979f1a9fe5"
          ],
          "data": "0x00000000000000000000000000000000000000000000021e19e0c9bab2400000",
          "blockHash": "0x930ae75e3bae80170f3263fe72e740ad5078eedbe4b5304169acfd894eb2ecfc",
          "blockNumber": "0x4e3216",
          "transactionHash": "0x923c16bb4790a2c99b131bca8932c06c784406a2edc32ad937413e08d06f91ea",
          "transactionIndex": "0x18",
          "logIndex": "0x19",
          "removed": false
        }
      ],
      "status": "0x1",
      "logsBloom": "0x0200200000000000000000000000080000000000004000000000000000000000000000000000000000000000000000004100000000000000000000000100000000000040000000000000000800000000000000000000002000000000000000000000000002000400000002000000080000000000000400000000001000000000000000000000000000000000000000000000000000000000000000000000000000000000000000000000000000100000000000000000000000000000000000020000000200000000000000000000000820000000000c000000000000010020000000000000000100000000000000000000000000020000000000000000000000",
      "type": "0x2",
      "effectiveGasPrice": "0xba39d517"
    }
  ],
  "libraries": [],
  "pending": [],
  "returns": {},
  "timestamp": 1705812379,
  "chain": 11155111,
  "multi": false,
  "commit": "b80610e"
}