{
  "transactions": [
    {
      "hash": "0xe87d126854481978031a3eddc9a372badf341dc7190a7c705713f109043f4ccf",
      "transactionType": "CALL",
      "contractName": "TestGHOPassport",
      "contractAddress": "0x17206705E75249B2Cb885423937e88Fc8f068338",
      "function": "mint(address,uint256)",
      "arguments": [
        "0x52dBBB18Bb3BD5bf31e5822ea0499dDA99A5Abe5",
        "3"
      ],
      "transaction": {
        "type": "0x02",
        "from": "0x1cb30cb181d7854f91c2410bd037e6f42130e860",
        "to": "0x17206705e75249b2cb885423937e88fc8f068338",
        "gas": "0x17307",
        "value": "0x0",
        "data": "0x40c10f1900000000000000000000000052dbbb18bb3bd5bf31e5822ea0499dda99a5abe50000000000000000000000000000000000000000000000000000000000000003",
        "nonce": "0x231",
        "accessList": []
      },
      "additionalContracts": [],
      "isFixedGasLimit": false
    }
  ],
  "receipts": [
    {
      "transactionHash": "0xe87d126854481978031a3eddc9a372badf341dc7190a7c705713f109043f4ccf",
      "transactionIndex": "0x17",
      "blockHash": "0xc21ae4136f1f5becc40befca6e20bd609a8cdd1422200e34565e6c4d4ff5af57",
      "blockNumber": "0x4e2b1e",
      "from": "0x1Cb30cb181D7854F91c2410BD037E6F42130e860",
      "to": "0x17206705E75249B2Cb885423937e88Fc8f068338",
      "cumulativeGasUsed": "0x15a68b",
      "gasUsed": "0x10c9f",
      "contractAddress": null,
      "logs": [
        {
          "address": "0x17206705E75249B2Cb885423937e88Fc8f068338",
          "topics": [
            "0xddf252ad1be2c89b69c2b068fc378daa952ba7f163c4a11628f55a4df523b3ef",
            "0x0000000000000000000000000000000000000000000000000000000000000000",
            "0x00000000000000000000000052dbbb18bb3bd5bf31e5822ea0499dda99a5abe5",
            "0x0000000000000000000000000000000000000000000000000000000000000003"
          ],
          "data": "0x",
          "blockHash": "0xc21ae4136f1f5becc40befca6e20bd609a8cdd1422200e34565e6c4d4ff5af57",
          "blockNumber": "0x4e2b1e",
          "transactionHash": "0xe87d126854481978031a3eddc9a372badf341dc7190a7c705713f109043f4ccf",
          "transactionIndex": "0x17",
          "logIndex": "0x15",
          "removed": false
        }
      ],
      "status": "0x1",
      "logsBloom": "0x00000000000000000000000000001000000000000000000000000000000000000000000000000000000200000000000000000000020000000000000002000000000000000000000000000008000000000000000000000000000000000000000000000000020000000000000000000880000000000000000000000010000000000000000000000000000000000000000000000000000000000000000000000000000000000100000000000000000002000000000000800000000000000000400000000002000000000000000000000000000000000000000000000000000020000000000000000000000000000000000000000000000000000000000000000000",
      "type": "0x2",
      "effectiveGasPrice": "0xb589cb23"
    }
  ],
  "libraries": [],
  "pending": [],
  "returns": {},
  "timestamp": 1705787414,
  "chain": 11155111,
  "multi": false,
  "commit": "b417de9"
}