{
  "transactions": [
    {
      "hash": "0x52ae8c64ab1ebc0353ff7e7f7b99054c1a06f087cae9e007f15c09dbbcca7f58",
      "transactionType": "CALL",
      "contractName": "TestGHO",
      "contractAddress": "0xBdD9c513Be2514F83B72761503F0be2134ec6A1a",
      "function": "approve(address,uint256):(bool)",
      "arguments": [
        "0xeEf9639F53a5AcBd7B9db216f88B2EDa72e7597F",
        "10000000000000000000000"
      ],
      "transaction": {
        "type": "0x02",
        "from": "0x1cb30cb181d7854f91c2410bd037e6f42130e860",
        "to": "0xbdd9c513be2514f83b72761503f0be2134ec6a1a",
        "gas": "0x107d0",
        "value": "0x0",
        "data": "0x095ea7b3000000000000000000000000eef9639f53a5acbd7b9db216f88b2eda72e7597f00000000000000000000000000000000000000000000021e19e0c9bab2400000",
        "nonce": "0x26d",
        "accessList": []
      },
      "additionalContracts": [],
      "isFixedGasLimit": false
    },
    {
      "hash": "0xb9142b48e4ccb9f0573c5651a94f00a97cbcfb309be4f056e515153595c2c5ba",
      "transactionType": "CALL",
      "contractName": "MainVault",
      "contractAddress": "0xeEf9639F53a5AcBd7B9db216f88B2EDa72e7597F",
      "function": "depositGHO(uint256)",
      "arguments": [
        "10000000000000000000000"
      ],
      "transaction": {
        "type": "0x02",
        "from": "0x1cb30cb181d7854f91c2410bd037e6f42130e860",
        "to": "0xeef9639f53a5acbd7b9db216f88b2eda72e7597f",
        "gas": "0x23212",
        "value": "0x0",
        "data": "0x7709b6ab00000000000000000000000000000000000000000000021e19e0c9bab2400000",
        "nonce": "0x26e",
        "accessList": []
      },
      "additionalContracts": [],
      "isFixedGasLimit": false
    }
  ],
  "receipts": [
    {
      "transactionHash": "0x52ae8c64ab1ebc0353ff7e7f7b99054c1a06f087cae9e007f15c09dbbcca7f58",
      "transactionIndex": "0x46",
      "blockHash": "0xc050592c9fa5b4b76ec4667b4d2a96fd2a73346e859a89ffd510bdf8d7645a5d",
      "blockNumber": "0x4e3518",
      "from": "0x1Cb30cb181D7854F91c2410BD037E6F42130e860",
      "to": "0xBdD9c513Be2514F83B72761503F0be2134ec6A1a",
      "cumulativeGasUsed": "0x418795",
      "gasUsed": "0xb463",
      "contractAddress": null,
      "logs": [
        {
          "address": "0xBdD9c513Be2514F83B72761503F0be2134ec6A1a",
          "topics": [
            "0x8c5be1e5ebec7d5bd14f71427d1e84f3dd0314c0f7b2291e5b200ac8c7c3b925",
            "0x0000000000000000000000001cb30cb181d7854f91c2410bd037e6f42130e860",
            "0x000000000000000000000000eef9639f53a5acbd7b9db216f88b2eda72e7597f"
          ],
          "data": "0x00000000000000000000000000000000000000000000021e19e0c9bab2400000",
          "blockHash": "0xc050592c9fa5b4b76ec4667b4d2a96fd2a73346e859a89ffd510bdf8d7645a5d",
          "blockNumber": "0x4e3518",
          "transactionHash": "0x52ae8c64ab1ebc0353ff7e7f7b99054c1a06f087cae9e007f15c09dbbcca7f58",
          "transactionIndex": "0x46",
          "logIndex": "0x47",
          "removed": false
        }
      ],
      "status": "0x1",
      "logsBloom": "0x02002000000000000020000000000000000000000000000000008000000000000000000000000000000000000000000000000000000000000000000001200000000000000000000000000000000000000000000000000020000000000000000000000000000000000000000000000000000000000000000000000000000000000000000000000000000004000000000000000000000000000000000000000000020000000000000000000000000000000000000000000000000000000000000000000000000000000000000000000000000000000004000000000000010000000010000000000000000000000000000000000000000000000000000000000000",
      "type": "0x2",
      "effectiveGasPrice": "0xb90d5edf"
    },
    {
      "transactionHash": "0xb9142b48e4ccb9f0573c5651a94f00a97cbcfb309be4f056e515153595c2c5ba",
      "transactionIndex": "0x47",
      "blockHash": "0xc050592c9fa5b4b76ec4667b4d2a96fd2a73346e859a89ffd510bdf8d7645a5d",
      "blockNumber": "0x4e3518",
      "from": "0x1Cb30cb181D7854F91c2410BD037E6F42130e860",
      "to": "0xeEf9639F53a5AcBd7B9db216f88B2EDa72e7597F",
      "cumulativeGasUsed": "0x431e84",
      "gasUsed": "0x196ef",
      "contractAddress": null,
      "logs": [
        {
          "address": "0xBdD9c513Be2514F83B72761503F0be2134ec6A1a",
          "topics": [
            "0xddf252ad1be2c89b69c2b068fc378daa952ba7f163c4a11628f55a4df523b3ef",
            "0x0000000000000000000000001cb30cb181d7854f91c2410bd037e6f42130e860",
            "0x000000000000000000000000eef9639f53a5acbd7b9db216f88b2eda72e7597f"
          ],
          "data": "0x00000000000000000000000000000000000000000000021e19e0c9bab2400000",
          "blockHash": "0xc050592c9fa5b4b76ec4667b4d2a96fd2a73346e859a89ffd510bdf8d7645a5d",
          "blockNumber": "0x4e3518",
          "transactionHash": "0xb9142b48e4ccb9f0573c5651a94f00a97cbcfb309be4f056e515153595c2c5ba",
          "transactionIndex": "0x47",
          "logIndex": "0x48",
          "removed": false
        },
        {
          "address": "0xeEf9639F53a5AcBd7B9db216f88B2EDa72e7597F",
          "topics": [
            "0xddf252ad1be2c89b69c2b068fc378daa952ba7f163c4a11628f55a4df523b3ef",
            "0x0000000000000000000000000000000000000000000000000000000000000000",
            "0x0000000000000000000000009028c972ccf1068320a0a4a5620c556177228c4d"
          ],
          "data": "0x00000000000000000000000000000000000000000000021e19e0c9bab2400000",
          "blockHash": "0xc050592c9fa5b4b76ec4667b4d2a96fd2a73346e859a89ffd510bdf8d7645a5d",
          "blockNumber": "0x4e3518",
          "transactionHash": "0xb9142b48e4ccb9f0573c5651a94f00a97cbcfb309be4f056e515153595c2c5ba",
          "transactionIndex": "0x47",
          "logIndex": "0x49",
          "removed": false
        },
        {
          "address": "0xeEf9639F53a5AcBd7B9db216f88B2EDa72e7597F",
          "topics": [
            "0xdcbc1c05240f31ff3ad067ef1ee35ce4997762752e3a095284754544f4c709d7",
            "0x0000000000000000000000001cb30cb181d7854f91c2410bd037e6f42130e860",
            "0x0000000000000000000000009028c972ccf1068320a0a4a5620c556177228c4d"
          ],
          "data": "0x00000000000000000000000000000000000000000000021e19e0c9bab240000000000000000000000000000000000000000000000000021e19e0c9bab2400000",
          "blockHash": "0xc050592c9fa5b4b76ec4667b4d2a96fd2a73346e859a89ffd510bdf8d7645a5d",
          "blockNumber": "0x4e3518",
          "transactionHash": "0xb9142b48e4ccb9f0573c5651a94f00a97cbcfb309be4f056e515153595c2c5ba",
          "transactionIndex": "0x47",
          "logIndex": "0x4a",
          "removed": false
        },
        {
          "address": "0xeEf9639F53a5AcBd7B9db216f88B2EDa72e7597F",
          "topics": [
            "0x05481d73db532e5e33460a49c151606cfe362daee86a1cab011fda979f1a9fe5"
          ],
          "data": "0x00000000000000000000000000000000000000000000021e19e0c9bab2400000",
          "blockHash": "0xc050592c9fa5b4b76ec4667b4d2a96fd2a73346e859a89ffd510bdf8d7645a5d",
          "blockNumber": "0x4e3518",
          "transactionHash": "0xb9142b48e4ccb9f0573c5651a94f00a97cbcfb309be4f056e515153595c2c5ba",
          "transactionIndex": "0x47",
          "logIndex": "0x4b",
          "removed": false
        }
      ],
      "status": "0x1",
      "logsBloom": "0x0200200000000000002000000000000000000000004000000000800001000000000000000000000000000000000008000000000040000000000000000100000000000040000000000000000800000000000000000000002000000000000000000000000002000000000000000000080000000000000400000000001000000000000000000002000000000400800000000000000000000000000000000000000000000000000000000000000000000000000000000000000000000000000000020000000200000000000000000000000800000000000c020000000000010020000000000000000000000000000000000000000000000000000000000000000000",
      "type": "0x2",
      "effectiveGasPrice": "0xb90d5edf"
    }
  ],
  "libraries": [],
  "pending": [],
  "returns": {},
  "timestamp": 1705822807,
  "chain": 11155111,
  "multi": false,
  "commit": "30b4b2d"
}