{
  "transactions": [
    {
      "hash": "0x87c3eb52fc3c1fe1acc373493764176afac05ebeb8a207d5afdf027312cd605b",
      "transactionType": "CALL",
      "contractName": "TestGHOPassport",
      "contractAddress": "0x17206705E75249B2Cb885423937e88Fc8f068338",
      "function": "mint(address,uint256)",
      "arguments": [
        "0xAE5c72E8dE74AdB50942ecE179e0dE27A8Cab61F",
        "2"
      ],
      "transaction": {
        "type": "0x02",
        "from": "0x1cb30cb181d7854f91c2410bd037e6f42130e860",
        "to": "0x17206705e75249b2cb885423937e88fc8f068338",
        "gas": "0x17307",
        "value": "0x0",
        "data": "0x40c10f19000000000000000000000000ae5c72e8de74adb50942ece179e0de27a8cab61f0000000000000000000000000000000000000000000000000000000000000002",
        "nonce": "0x225",
        "accessList": []
      },
      "additionalContracts": [],
      "isFixedGasLimit": false
    }
  ],
  "receipts": [
    {
      "transactionHash": "0x87c3eb52fc3c1fe1acc373493764176afac05ebeb8a207d5afdf027312cd605b",
      "transactionIndex": "0x41",
      "blockHash": "0x7a68802aa55154112c832cb791efaec6fd31710f47be8cb082598c534964950c",
      "blockNumber": "0x4e2576",
      "from": "0x1Cb30cb181D7854F91c2410BD037E6F42130e860",
      "to": "0x17206705E75249B2Cb885423937e88Fc8f068338",
      "cumulativeGasUsed": "0x33a694",
      "gasUsed": "0x10c9f",
      "contractAddress": null,
      "logs": [
        {
          "address": "0x17206705E75249B2Cb885423937e88Fc8f068338",
          "topics": [
            "0xddf252ad1be2c89b69c2b068fc378daa952ba7f163c4a11628f55a4df523b3ef",
            "0x0000000000000000000000000000000000000000000000000000000000000000",
            "0x000000000000000000000000ae5c72e8de74adb50942ece179e0de27a8cab61f",
            "0x0000000000000000000000000000000000000000000000000000000000000002"
          ],
          "data": "0x",
          "blockHash": "0x7a68802aa55154112c832cb791efaec6fd31710f47be8cb082598c534964950c",
          "blockNumber": "0x4e2576",
          "transactionHash": "0x87c3eb52fc3c1fe1acc373493764176afac05ebeb8a207d5afdf027312cd605b",
          "transactionIndex": "0x41",
          "logIndex": "0x30",
          "removed": false
        }
      ],
      "status": "0x1",
      "logsBloom": "0x04000000000000000000000000001000000000000000000400000000000000000000000000000000000000000000000000000000000000000000000000000000000000000000000000000008000000000000000000000000000000000000000000000000020000000000000000000880000000000000000000000010000000000000000000000000000000000000000000000000000000000000000000000000000000000000000000000100000002000000000000000000000000000000000000000002000000000000000000000000000000800000000000000000000020000000000000000000000000000000000000000004008000000000000000000000",
      "type": "0x2",
      "effectiveGasPrice": "0x1d4ad73ae"
    }
  ],
  "libraries": [],
  "pending": [],
  "returns": {},
  "timestamp": 1705767172,
  "chain": 11155111,
  "multi": false,
  "commit": "f4d2e32"
}