{
  "transactions": [
    {
      "hash": "0x6cf832fc2ac88d94c8e92e16d2a6d851b65b1119eae9f0ccd807799112f51a31",
      "transactionType": "CALL",
      "contractName": "TestGHO",
      "contractAddress": "0xBdD9c513Be2514F83B72761503F0be2134ec6A1a",
      "function": "approve(address,uint256):(bool)",
      "arguments": [
        "0x5f87AE2b5B978FDF21A5495518967e7F3d89EA23",
        "10000000000000000000000"
      ],
      "transaction": {
        "type": "0x02",
        "from": "0x1cb30cb181d7854f91c2410bd037e6f42130e860",
        "to": "0xbdd9c513be2514f83b72761503f0be2134ec6a1a",
        "gas": "0x107d0",
        "value": "0x0",
        "data": "0x095ea7b30000000000000000000000005f87ae2b5b978fdf21a5495518967e7f3d89ea2300000000000000000000000000000000000000000000021e19e0c9bab2400000",
        "nonce": "0x2a8",
        "accessList": []
      },
      "additionalContracts": [],
      "isFixedGasLimit": false
    },
    {
      "hash": "0x0619c352bb6df21f73de33a14c8806c161e9e1cde37c8c0263807846805c10f2",
      "transactionType": "CALL",
      "contractName": "MainVault",
      "contractAddress": "0x5f87AE2b5B978FDF21A5495518967e7F3d89EA23",
      "function": "depositGHO(uint256)",
      "arguments": [
        "10000000000000000000000"
      ],
      "transaction": {
        "type": "0x02",
        "from": "0x1cb30cb181d7854f91c2410bd037e6f42130e860",
        "to": "0x5f87ae2b5b978fdf21a5495518967e7f3d89ea23",
        "gas": "0x24bf8",
        "value": "0x0",
        "data": "0x7709b6ab00000000000000000000000000000000000000000000021e19e0c9bab2400000",
        "nonce": "0x2a9",
        "accessList": []
      },
      "additionalContracts": [],
      "isFixedGasLimit": false
    }
  ],
  "receipts": [
    {
      "transactionHash": "0x6cf832fc2ac88d94c8e92e16d2a6d851b65b1119eae9f0ccd807799112f51a31",
      "transactionIndex": "0x16",
      "blockHash": "0x74ac1b5cf08265bd2953970147f3c9c0ce3abfa58f756e2bfec2509a91b582b2",
      "blockNumber": "0x4e3fe2",
      "from": "0x1Cb30cb181D7854F91c2410BD037E6F42130e860",
      "to": "0xBdD9c513Be2514F83B72761503F0be2134ec6A1a",
      "cumulativeGasUsed": "0x17a7e4",
      "gasUsed": "0xb463",
      "contractAddress": null,
      "logs": [
        {
          "address": "0xBdD9c513Be2514F83B72761503F0be2134ec6A1a",
          "topics": [
            "0x8c5be1e5ebec7d5bd14f71427d1e84f3dd0314c0f7b2291e5b200ac8c7c3b925",
            "0x0000000000000000000000001cb30cb181d7854f91c2410bd037e6f42130e860",
            "0x0000000000000000000000005f87ae2b5b978fdf21a5495518967e7f3d89ea23"
          ],
          "data": "0x00000000000000000000000000000000000000000000021e19e0c9bab2400000",
          "blockHash": "0x74ac1b5cf08265bd2953970147f3c9c0ce3abfa58f756e2bfec2509a91b582b2",
          "blockNumber": "0x4e3fe2",
          "transactionHash": "0x6cf832fc2ac88d94c8e92e16d2a6d851b65b1119eae9f0ccd807799112f51a31",
          "transactionIndex": "0x16",
          "logIndex": "0x18",
          "removed": false
        }
      ],
      "status": "0x1",
      "logsBloom": "0x02002000000000000000000200000000000000000000000000000000000000000000000000000000000000000000000004000000000000000000000001200000000000000000000000000000000000000000000000000020000000000000000000000000000000000000000000000000000000000000000000000000000000000000000000000000000000000000000000000000000000000000000000000000020000000000000000000000000000000000000000000000000000000000000000000000000000000000000000000000020000000004000000000000010000000010000000000000000000000000000000000000000000000000000000000000",
      "type": "0x2",
      "effectiveGasPrice": "0x14a6a0926"
    },
    {
      "transactionHash": "0x0619c352bb6df21f73de33a14c8806c161e9e1cde37c8c0263807846805c10f2",
      "transactionIndex": "0x17",
      "blockHash": "0x74ac1b5cf08265bd2953970147f3c9c0ce3abfa58f756e2bfec2509a91b582b2",
      "blockNumber": "0x4e3fe2",
      "from": "0x1Cb30cb181D7854F91c2410BD037E6F42130e860",
      "to": "0x5f87AE2b5B978FDF21A5495518967e7F3d89EA23",
      "cumulativeGasUsed": "0x195193",
      "gasUsed": "0x1a9af",
      "contractAddress": null,
      "logs": [
        {
          "address": "0xBdD9c513Be2514F83B72761503F0be2134ec6A1a",
          "topics": [
            "0xddf252ad1be2c89b69c2b068fc378daa952ba7f163c4a11628f55a4df523b3ef",
            "0x0000000000000000000000001cb30cb181d7854f91c2410bd037e6f42130e860",
            "0x0000000000000000000000005f87ae2b5b978fdf21a5495518967e7f3d89ea23"
          ],
          "data": "0x00000000000000000000000000000000000000000000021e19e0c9bab2400000",
          "blockHash": "0x74ac1b5cf08265bd2953970147f3c9c0ce3abfa58f756e2bfec2509a91b582b2",
          "blockNumber": "0x4e3fe2",
          "transactionHash": "0x0619c352bb6df21f73de33a14c8806c161e9e1cde37c8c0263807846805c10f2",
          "transactionIndex": "0x17",
          "logIndex": "0x19",
          "removed": false
        },
        {
          "address": "0x5f87AE2b5B978FDF21A5495518967e7F3d89EA23",
          "topics": [
            "0xddf252ad1be2c89b69c2b068fc378daa952ba7f163c4a11628f55a4df523b3ef",
            "0x0000000000000000000000000000000000000000000000000000000000000000",
            "0x000000000000000000000000fc0d2439d12a501fc5071b871740b8a0430f1133"
          ],
          "data": "0x00000000000000000000000000000000000000000000021e19e0c9bab2400000",
          "blockHash": "0x74ac1b5cf08265bd2953970147f3c9c0ce3abfa58f756e2bfec2509a91b582b2",
          "blockNumber": "0x4e3fe2",
          "transactionHash": "0x0619c352bb6df21f73de33a14c8806c161e9e1cde37c8c0263807846805c10f2",
          "transactionIndex": "0x17",
          "logIndex": "0x1a",
          "removed": false
        },
        {
          "address": "0x5f87AE2b5B978FDF21A5495518967e7F3d89EA23",
          "topics": [
            "0xdcbc1c05240f31ff3ad067ef1ee35ce4997762752e3a095284754544f4c709d7",
            "0x0000000000000000000000001cb30cb181d7854f91c2410bd037e6f42130e860",
            "0x000000000000000000000000fc0d2439d12a501fc5071b871740b8a0430f1133"
          ],
          "data": "0x00000000000000000000000000000000000000000000021e19e0c9bab240000000000000000000000000000000000000000000000000021e19e0c9bab2400000",
          "blockHash": "0x74ac1b5cf08265bd2953970147f3c9c0ce3abfa58f756e2bfec2509a91b582b2",
          "blockNumber": "0x4e3fe2",
          "transactionHash": "0x0619c352bb6df21f73de33a14c8806c161e9e1cde37c8c0263807846805c10f2",
          "transactionIndex": "0x17",
          "logIndex": "0x1b",
          "removed": false
        },
        {
          "address": "0x5f87AE2b5B978FDF21A5495518967e7F3d89EA23",
          "topics": [
            "0x05481d73db532e5e33460a49c151606cfe362daee86a1cab011fda979f1a9fe5"
          ],
          "data": "0x00000000000000000000000000000000000000000000021e19e0c9bab2400000",
          "blockHash": "0x74ac1b5cf08265bd2953970147f3c9c0ce3abfa58f756e2bfec2509a91b582b2",
          "blockNumber": "0x4e3fe2",
          "transactionHash": "0x0619c352bb6df21f73de33a14c8806c161e9e1cde37c8c0263807846805c10f2",
          "transactionIndex": "0x17",
          "logIndex": "0x1c",
          "removed": false
        }
      ],
      "status": "0x1",
      "logsBloom": "0x0200200000000000000000020000000000000000004000000000000040000000000000000000000000000000000000000400000000000000000000000100000000000040000000000000000800000000000000000000002000000000000000000000000002000000000000000000080000000000000400000000001000000000000000000000000000000000000000000000000000000000000000000000000000000000000000000000000000000000000000000000000000000000000080020000000200000000000000000000000802008000000c000000000000150020000000000008000000000000000000000000000000000000000000000000000000",
      "type": "0x2",
      "effectiveGasPrice": "0x14a6a0926"
    }
  ],
  "libraries": [],
  "pending": [],
  "returns": {},
  "timestamp": 1705860628,
  "chain": 11155111,
  "multi": false,
  "commit": "581e935"
}