{
  "transactions": [
    {
      "hash": "0x8ba7bd49e0aed9c3dd4a3faee44e871e232ea2020672e5793f08d61d4e9513b2",
      "transactionType": "CALL",
      "contractName": "MainVault",
      "contractAddress": "0x0Daf0Dd7902EB415f9624c102Ef6dA7a20D15e10",
      "function": "setMainPayment(address)",
      "arguments": [
        "0x0A7eba6b4841128E05704890d2326553803570cF"
      ],
      "transaction": {
        "type": "0x02",
        "from": "0x1cb30cb181d7854f91c2410bd037e6f42130e860",
        "to": "0x0daf0dd7902eb415f9624c102ef6da7a20d15e10",
        "gas": "0x10e6f",
        "value": "0x0",
        "data": "0x3674e6d50000000000000000000000000a7eba6b4841128e05704890d2326553803570cf",
        "nonce": "0x251",
        "accessList": []
      },
      "additionalContracts": [],
      "isFixedGasLimit": false
    }
  ],
  "receipts": [],
  "libraries": [],
  "pending": [
    "0x8ba7bd49e0aed9c3dd4a3faee44e871e232ea2020672e5793f08d61d4e9513b2"
  ],
  "returns": {},
  "timestamp": 1705812169,
  "chain": 11155111,
  "multi": false,
  "commit": "b80610e"
}