{
  "transactions": [
    {
      "hash": "0x5d2d3f16f4ed0240df8a2ba58ca8a1e702d22df02677d799c9d947378c3ace4b",
      "transactionType": "CALL",
      "contractName": "TestGHO",
      "contractAddress": "0xBdD9c513Be2514F83B72761503F0be2134ec6A1a",
      "function": "approve(address,uint256):(bool)",
      "arguments": [
        "0x0Daf0Dd7902EB415f9624c102Ef6dA7a20D15e10",
        "10000000000000000000000"
      ],
      "transaction": {
        "type": "0x02",
        "from": "0x1cb30cb181d7854f91c2410bd037e6f42130e860",
        "to": "0xbdd9c513be2514f83b72761503f0be2134ec6a1a",
        "gas": "0x107d0",
        "value": "0x0",
        "data": "0x095ea7b30000000000000000000000000daf0dd7902eb415f9624c102ef6da7a20d15e1000000000000000000000000000000000000000000000021e19e0c9bab2400000",
        "nonce": "0x24f",
        "accessList": []
      },
      "additionalContracts": [],
      "isFixedGasLimit": false
    },
    {
      "hash": "0x5cbd9aaf42abaf78f98d889b040dfc110a0fcf10da88c52a70e94786d6122db5",
      "transactionType": "CALL",
      "contractName": "MainVault",
      "contractAddress": "0x0Daf0Dd7902EB415f9624c102Ef6dA7a20D15e10",
      "function": "depositGHO(uint256)",
      "arguments": [
        "10000000000000000000000"
      ],
      "transaction": {
        "type": "0x02",
        "from": "0x1cb30cb181d7854f91c2410bd037e6f42130e860",
        "to": "0x0daf0dd7902eb415f9624c102ef6da7a20d15e10",
        "gas": "0x25303",
        "value": "0x0",
        "data": "0x7709b6ab00000000000000000000000000000000000000000000021e19e0c9bab2400000",
        "nonce": "0x250",
        "accessList": []
      },
      "additionalContracts": [],
      "isFixedGasLimit": false
    }
  ],
  "receipts": [
    {
      "transactionHash": "0x5d2d3f16f4ed0240df8a2ba58ca8a1e702d22df02677d799c9d947378c3ace4b",
      "transactionIndex": "0x2c",
      "blockHash": "0xf8602fc8fd4230dd12a88f1e0506d7e460745b7d8fc1ae23a3ecc8ccafc3da2e",
      "blockNumber": "0x4e31f1",
      "from": "0x1Cb30cb181D7854F91c2410BD037E6F42130e860",
      "to": "0xBdD9c513Be2514F83B72761503F0be2134ec6A1a",
      "cumulativeGasUsed": "0x2e39bf",
      "gasUsed": "0xb463",
      "contractAddress": null,
      "logs": [
        {
          "address": "0xBdD9c513Be2514F83B72761503F0be2134ec6A1a",
          "topics": [
            "0x8c5be1e5ebec7d5bd14f71427d1e84f3dd0314c0f7b2291e5b200ac8c7c3b925",
            "0x0000000000000000000000001cb30cb181d7854f91c2410bd037e6f42130e860",
            "0x0000000000000000000000000daf0dd7902eb415f9624c102ef6da7a20d15e10"
          ],
          "data": "0x00000000000000000000000000000000000000000000021e19e0c9bab2400000",
          "blockHash": "0xf8602fc8fd4230dd12a88f1e0506d7e460745b7d8fc1ae23a3ecc8ccafc3da2e",
          "blockNumber": "0x4e31f1",
          "transactionHash": "0x5d2d3f16f4ed0240df8a2ba58ca8a1e702d22df02677d799c9d947378c3ace4b",
          "transactionIndex": "0x2c",
          "logIndex": "0x30",
          "removed": false
        }
      ],
      "status": "0x1",
      "logsBloom": "0x02002000000000000000000000000000000000000000000000000000000000000000000000000000000000000000000041000000000000000000000001200000000000000000000000000000000000000000000000000020000000000000000000000000000000000000000000000000000000000000000000000000000000000000000000000000000000000000000000000000000000000000000000000000020000000000000000000000000000000000000000000000000000000000000000000000000000000000000000000000200000000004000000000000010000000010000000000000000000000000000000000000000000000000000000000000",
      "type": "0x2",
      "effectiveGasPrice": "0xbc5a035e"
    },
    {
      "transactionHash": "0x5cbd9aaf42abaf78f98d889b040dfc110a0fcf10da88c52a70e94786d6122db5",
      "transactionIndex": "0x2d",
      "blockHash": "0xf8602fc8fd4230dd12a88f1e0506d7e460745b7d8fc1ae23a3ecc8ccafc3da2e",
      "blockNumber": "0x4e31f1",
      "from": "0x1Cb30cb181D7854F91c2410BD037E6F42130e860",
      "to": "0x0Daf0Dd7902EB415f9624c102Ef6dA7a20D15e10",
      "cumulativeGasUsed": "0x2fd098",
      "gasUsed": "0x196d9",
      "contractAddress": null,
      "logs": [
        {
          "address": "0xBdD9c513Be2514F83B72761503F0be2134ec6A1a",
          "topics": [
            "0xddf252ad1be2c89b69c2b068fc378daa952ba7f163c4a11628f55a4df523b3ef",
            "0x0000000000000000000000001cb30cb181d7854f91c2410bd037e6f42130e860",
            "0x0000000000000000000000000daf0dd7902eb415f9624c102ef6da7a20d15e10"
          ],
          "data": "0x00000000000000000000000000000000000000000000021e19e0c9bab2400000",
          "blockHash": "0xf8602fc8fd4230dd12a88f1e0506d7e460745b7d8fc1ae23a3ecc8ccafc3da2e",
          "blockNumber": "0x4e31f1",
          "transactionHash": "0x5cbd9aaf42abaf78f98d889b040dfc110a0fcf10da88c52a70e94786d6122db5",
          "transactionIndex": "0x2d",
          "logIndex": "0x31",
          "removed": false
        },
        {
          "address": "0x0Daf0Dd7902EB415f9624c102Ef6dA7a20D15e10",
          "topics": [
            "0xddf252ad1be2c89b69c2b068fc378daa952ba7f163c4a11628f55a4df523b3ef",
            "0x0000000000000000000000000000000000000000000000000000000000000000",
            "0x0000000000000000000000000000000000000000000000000000000000000000"
          ],
          "data": "0x00000000000000000000000000000000000000000000021e19e0c9bab2400000",
          "blockHash": "0xf8602fc8fd4230dd12a88f1e0506d7e460745b7d8fc1ae23a3ecc8ccafc3da2e",
          "blockNumber": "0x4e31f1",
          "transactionHash": "0x5cbd9aaf42abaf78f98d889b040dfc110a0fcf10da88c52a70e94786d6122db5",
          "transactionIndex": "0x2d",
          "logIndex": "0x32",
          "removed": false
        },
        {
          "address": "0x0Daf0Dd7902EB415f9624c102Ef6dA7a20D15e10",
          "topics": [
            "0xdcbc1c05240f31ff3ad067ef1ee35ce4997762752e3a095284754544f4c709d7",
            "0x0000000000000000000000001cb30cb181d7854f91c2410bd037e6f42130e860",
            "0x0000000000000000000000000000000000000000000000000000000000000000"
          ],
          "data": "0x00000000000000000000000000000000000000000000021e19e0c9bab240000000000000000000000000000000000000000000000000021e19e0c9bab2400000",
          "blockHash": "0xf8602fc8fd4230dd12a88f1e0506d7e460745b7d8fc1ae23a3ecc8ccafc3da2e",
          "blockNumber": "0x4e31f1",
          "transactionHash": "0x5cbd9aaf42abaf78f98d889b040dfc110a0fcf10da88c52a70e94786d6122db5",
          "transactionIndex": "0x2d",
          "logIndex": "0x33",
          "removed": false
        },
        {
          "address": "0x0Daf0Dd7902EB415f9624c102Ef6dA7a20D15e10",
          "topics": [
            "0x05481d73db532e5e33460a49c151606cfe362daee86a1cab011fda979f1a9fe5"
          ],
          "data": "0x00000000000000000000000000000000000000000000021e19e0c9bab2400000",
          "blockHash": "0xf8602fc8fd4230dd12a88f1e0506d7e460745b7d8fc1ae23a3ecc8ccafc3da2e",
          "blockNumber": "0x4e31f1",
          "transactionHash": "0x5cbd9aaf42abaf78f98d889b040dfc110a0fcf10da88c52a70e94786d6122db5",
          "transactionIndex": "0x2d",
          "logIndex": "0x34",
          "removed": false
        }
      ],
      "status": "0x1",
      "logsBloom": "0x0200200000000000000000000000000000000000004000000000000000000000000000000000000000000000000000004100000000000000000000000100000000000040000000000000000800000000000000000000002000000000000000000000000002000400000002000000080000000000000400000000001000000000000000000000000000000000000000000000000000000000000000000000000000000000000000000000000000100000000000000000000000000000000000020000000200000000000000000000000820000000000c000000000000010020000000000000000000000000000000000000000000000000000000000000000000",
      "type": "0x2",
      "effectiveGasPrice": "0xbc5a035e"
    }
  ],
  "libraries": [],
  "pending": [],
  "returns": {},
  "timestamp": 1705811920,
  "chain": 11155111,
  "multi": false,
  "commit": "b80610e"
}