{
  "transactions": [
    {
      "hash": "0x6c690ed5fa52a234b52b3411167f2943723be84b896180956a0fad4c96b228fc",
      "transactionType": "CALL",
      "contractName": "TestGHOPartnerPassport",
      "contractAddress": "0xEa9b91D90ff3e904EcF230296D88c30c78E1E4c8",
      "function": "mint(address,uint256)",
      "arguments": [
        "0x6C92E8595C8E749be38480e7ed5d53a0682C331F",
        "7"
      ],
      "transaction": {
        "type": "0x02",
        "from": "0x1cb30cb181d7854f91c2410bd037e6f42130e860",
        "to": "0xea9b91d90ff3e904ecf230296d88c30c78e1e4c8",
        "gas": "0x17307",
        "value": "0x0",
        "data": "0x40c10f190000000000000000000000006c92e8595c8e749be38480e7ed5d53a0682c331f0000000000000000000000000000000000000000000000000000000000000007",
        "nonce": "0x291",
        "accessList": []
      },
      "additionalContracts": [],
      "isFixedGasLimit": false
    }
  ],
  "receipts": [
    {
      "transactionHash": "0x6c690ed5fa52a234b52b3411167f2943723be84b896180956a0fad4c96b228fc",
      "transactionIndex": "0x17",
      "blockHash": "0x2956d2b90f51191c393b1b6f3e7dbfaea7051ca574a1e222d9d5c7c0ca3e6eec",
      "blockNumber": "0x4e3f38",
      "from": "0x1Cb30cb181D7854F91c2410BD037E6F42130e860",
      "to": "0xEa9b91D90ff3e904EcF230296D88c30c78E1E4c8",
      "cumulativeGasUsed": "0x1ad4dd",
      "gasUsed": "0x10c9f",
      "contractAddress": null,
      "logs": [
        {
          "address": "0xEa9b91D90ff3e904EcF230296D88c30c78E1E4c8",
          "topics": [
            "0xddf252ad1be2c89b69c2b068fc378daa952ba7f163c4a11628f55a4df523b3ef",
            "0x0000000000000000000000000000000000000000000000000000000000000000",
            "0x0000000000000000000000006c92e8595c8e749be38480e7ed5d53a0682c331f",
            "0x0000000000000000000000000000000000000000000000000000000000000007"
          ],
          "data": "0x",
          "blockHash": "0x2956d2b90f51191c393b1b6f3e7dbfaea7051ca574a1e222d9d5c7c0ca3e6eec",
          "blockNumber": "0x4e3f38",
          "transactionHash": "0x6c690ed5fa52a234b52b3411167f2943723be84b896180956a0fad4c96b228fc",
          "transactionIndex": "0x17",
          "logIndex": "0x1d",
          "removed": false
        }
      ],
      "status": "0x1",
      "logsBloom": "0x00000000000000000000000000000000000000000000000000000000000000000000000000000000000000020000000000001000000000000000008000000000000020000000000000010008000000000000000000000000000000000000000000000000020000000000000000000800000000000000000000000010000800000000000000000000000000000000000000000000000000000000000000000000000000000000000000000000000000000000000000000000000000000000000000000002400000000000000000000000000000000000000000000100000020000000000000000000000000000000000000000000040000000000000000000000",
      "type": "0x2",
      "effectiveGasPrice": "0x215ba8cb1"
    }
  ],
  "libraries": [],
  "pending": [],
  "returns": {},
  "timestamp": 1705858291,
  "chain": 11155111,
  "multi": false,
  "commit": "b7b0b1c"
}