{
  "transactions": [
    {
      "hash": "0x93857e2384203dda013e1724a1ce2c97aee443404542d0f31677002cfe2a2183",
      "transactionType": "CALL",
      "contractName": "MainVault",
      "contractAddress": "0x44dc28ea5A729c6235D50bbA2a25e92D5D242149",
      "function": "setMainPayment(address)",
      "arguments": [
        "0xe2Dc1E2716B8E06B9Ed0b4498ddAfa2260F32BEA"
      ],
      "transaction": {
        "type": "0x02",
        "from": "0x1cb30cb181d7854f91c2410bd037e6f42130e860",
        "to": "0x44dc28ea5a729c6235d50bba2a25e92d5d242149",
        "gas": "0xfed0",
        "value": "0x0",
        "data": "0x3674e6d5000000000000000000000000e2dc1e2716b8e06b9ed0b4498ddafa2260f32bea",
        "nonce": "0x286",
        "accessList": []
      },
      "additionalContracts": [],
      "isFixedGasLimit": false
    }
  ],
  "receipts": [
    {
      "transactionHash": "0x93857e2384203dda013e1724a1ce2c97aee443404542d0f31677002cfe2a2183",
      "transactionIndex": "0x35",
      "blockHash": "0x52ae7bd9db61893696789e6e9fd68eee2dcc24101c446a5b87dcb8886ae65e2d",
      "blockNumber": "0x4e3e35",
      "from": "0x1Cb30cb181D7854F91c2410BD037E6F42130e860",
      "to": "0x44dc28ea5A729c6235D50bbA2a25e92D5D242149",
      "cumulativeGasUsed": "0xa81685",
      "gasUsed": "0xb87c",
      "contractAddress": null,
      "logs": [
        {
          "address": "0x44dc28ea5A729c6235D50bbA2a25e92D5D242149",
          "topics": [
            "0x4c070d2bd28acbebea1baca2a0a570d95bcbc30dee9a07c8218065ad38a400fb"
          ],
          "data": "0x000000000000000000000000e2dc1e2716b8e06b9ed0b4498ddafa2260f32bea",
          "blockHash": "0x52ae7bd9db61893696789e6e9fd68eee2dcc24101c446a5b87dcb8886ae65e2d",
          "blockNumber": "0x4e3e35",
          "transactionHash": "0x93857e2384203dda013e1724a1ce2c97aee443404542d0f31677002cfe2a2183",
          "transactionIndex": "0x35",
          "logIndex": "0xb8",
          "removed": false
        }
      ],
      "status": "0x1",
      "logsBloom": "0x00000000000000000000000000000000000000000000000000000000040000000100000000000000000000000000000000000000000004000000000000000000000000000000000000000000000000000000000000000000000000000000000000000000000000000000000000000000000000000000000000000000000020000000000000000000000000000000000000000000002000000000000000000000000001000000000000000000000000000000000000000000000000000000000000000000000000000000000000000000000000000000000000000000000000000000000000000000000000000000000000000000000000000000000000000000",
      "type": "0x2",
      "effectiveGasPrice": "0x5173b0a70"
    }
  ],
  "libraries": [],
  "pending": [],
  "returns": {},
  "timestamp": 1705854842,
  "chain": 11155111,
  "multi": false,
  "commit": "3348477"
}