{
  "transactions": [
    {
      "hash": "0x1dd09a3e353fd17729723c1cfa4d8f154daddd4b1b61a8bc5a461bfe3bc52fe2",
      "transactionType": "CALL",
      "contractName": "TestGHOPartnerPassport",
      "contractAddress": "0xEa9b91D90ff3e904EcF230296D88c30c78E1E4c8",
      "function": "mint(address,uint256)",
      "arguments": [
        "0x4d2cE66107a44C349036adF33877865a7b6B0d49",
        "8"
      ],
      "transaction": {
        "type": "0x02",
        "from": "0x1cb30cb181d7854f91c2410bd037e6f42130e860",
        "to": "0xea9b91d90ff3e904ecf230296d88c30c78e1e4c8",
        "gas": "0x17307",
        "value": "0x0",
        "data": "0x40c10f190000000000000000000000004d2ce66107a44c349036adf33877865a7b6b0d490000000000000000000000000000000000000000000000000000000000000008",
        "nonce": "0x294",
        "accessList": []
      },
      "additionalContracts": [],
      "isFixedGasLimit": false
    }
  ],
  "receipts": [],
  "libraries": [],
  "pending": [
    "0x1dd09a3e353fd17729723c1cfa4d8f154daddd4b1b61a8bc5a461bfe3bc52fe2"
  ],
  "returns": {},
  "timestamp": 1705858806,
  "chain": 11155111,
  "multi": false,
  "commit": "b7b0b1c"
}